:020000040800F2
:1000000000000220DD1F0008451F00084D1F0008EA
:10001000551F00085D1F0008651F00080000000054
:1000200000000000000000000000000061BE0008A9
:100030006D1F000800000000B1C00008B196000864
:100040002D2000082D2000082D2000082D2000085C
:100050002D2000082D2000082D2000082D2000084C
:100060002D2000082D2000082D2000082D2000083C
:100070002D2000082D2000082D2000082D2000082C
:100080002D2000082D2000082D2000082D2000081C
:100090002D2000082D2000082D2000082D2000080C
:1000A0002D2000082D2000082D2000082D200008FC
:1000B0002D2000082D2000082D2000082D200008EC
:1000C0002D2000082D2000082D2000082D200008DC
:1000D0002D2000082D2000082D2000082D200008CC
:1000E0002D2000082D2000082D2000082D200008BC
:1000F0002D2000082D2000082D2000082D200008AC
:100100002D2000082D2000082D2000082D2000089B
:100110002D2000082D2000087D1F00082D2000083C
:10012000911F00082D2000082D2000082D20000818
:100130002D2000082D2000082D2000082D2000086B
:100140002D2000082D2000082D200008A51F0008E4
:100150002D2000082D2000082D2000082D2000084B
:100160002D2000082D2000082D2000082D2000083B
:100170002D2000082D2000082D2000080000000080
:080180002D2000082D200008CD
:1001900010B5054C237833B9044B13B10448AFF3C1
:1001A00000800123237010BD5001002000000000DA
:1001B00064D2000808B5034B1BB103490348AFF3F1
:1001C000008008BD000000005401002064D2000837
:1001D00081F0004102E000BF83F0004330B54FEAF8
:1001E00041044FEA430594EA050F08BF90EA020F65
:1001F0001FBF54EA000C55EA020C7FEA645C7FEAF8
:10020000655C00F0E2804FEA5454D4EB5555B8BF1A
:100210006D420CDD2C4480EA020281EA030382EA8B
:10022000000083EA010180EA020281EA0303362D1D
:1002300088BF30BD11F0004F4FEA01314FF4801CF0
:100240004CEA113102D0404261EB410113F0004F02
:100250004FEA03334CEA133302D0524263EB4303B9
:1002600094EA050F00F0A780A4F10104D5F1200E57
:100270000DDB02FA0EFC22FA05F2801841F10001B2
:1002800003FA0EF2801843FA05F359410EE0A5F186
:1002900020050EF1200E012A03FA0EFC28BF4CF0B7
:1002A000020C43FA05F3C01851EBE37101F000456D
:1002B00007D54FF0000EDCF1000C7EEB00006EEB7A
:1002C0000101B1F5801F1BD3B1F5001F0CD3490804
:1002D0005FEA30004FEA3C0C04F101044FEA44525B
:1002E00012F5800F80F09A80BCF1004F08BF5FEAE2
:1002F000500C50F1000041EB045141EA050130BDC2
:100300005FEA4C0C404141EB0101013C28BFB1F5D3
:10031000801FE9D291F0000F04BF01460020B1FA1E
:1003200081F308BF2033A3F10B03B3F120020CDAF1
:100330000C3208DD02F1140CC2F10C0201FA0CF0CF
:1003400021FA02F10CE002F11402D8BFC2F1200C34
:1003500001FA02F120FA0CFCDCBF41EA0C019040EA
:10036000E41AA2BF01EB0451294330BD6FEA040433
:100370001F3C1CDA0C340EDC04F11404C4F120021E
:1003800020FA04F001FA02F340EA030021FA04F330
:1003900045EA030130BDC4F10C04C4F1200220FA87
:1003A00002F001FA04F340EA0300294630BD21FAC5
:1003B00004F0294630BD94F0000F83F4801306BF8B
:1003C00081F480110134013D4EE77FEA645C18BF7F
:1003D0007FEA655C29D094EA050F08BF90EA020F16
:1003E00005D054EA000C04BF1946104630BD91EA0E
:1003F000030F1EBF0021002030BD5FEA545C05D111
:100400004000494128BF41F0004130BD14F580044F
:100410003CBF01F5801130BD01F0004545F0FE41C3
:1004200041F470014FF0000030BD7FEA645C1ABFF8
:10043000194610467FEA655C1CBF0B46024650EA2F
:10044000013406BF52EA033591EA030F41F400215B
:1004500030BD00BF90F0000F04BF0021704730B5E1
:100460004FF4806404F132044FF000054FF00001B6
:1004700050E700BF90F0000F04BF0021704730B577
:100480004FF4806404F1320410F0004548BF40424C
:100490004FF000013EE700BF42004FEAE2014FEAA1
:1004A00031014FEA02701FBF12F07F4393F07F4F7C
:1004B00081F06051704732F07F4208BF704793F07F
:1004C0007F4F04BF41F40021704730B54FF4607492
:1004D00001F0004521F000411CE700BF50EA010295
:1004E00008BF704730B54FF000050AE050EA01023E
:1004F00008BF704730B511F0004502D5404261EBAE
:1005000041014FF4806404F132045FEA915C3FF4EE
:10051000D8AE4FF003025FEADC0C18BF03325FEA8B
:10052000DC0C18BF033202EBDC02C2F1200300FA3C
:1005300003FC20FA02F001FA03FE40EA0E0021FA61
:1005400002F11444BDE600BF70B54FF0FF0C4CF44F
:10055000E06C1CEA11541DBF1CEA135594EA0C0F01
:1005600095EA0C0F00F0DEF82C4481EA030621EA3C
:100570004C5123EA4C5350EA013518BF52EA033577
:1005800041F4801143F4801338D0A0FB02CE4FF029
:100590000005E1FB02E506F00042E0FB03E54FF059
:1005A0000006E1FB03569CF0000F18BF4EF0010E51
:1005B000A4F1FF04B6F5007F64F5407404D25FEA4D
:1005C0004E0E6D4146EB060642EAC62141EA555100
:1005D0004FEAC52040EA5E504FEACE2EB4F1FD0C42
:1005E00088BFBCF5E06F1ED8BEF1004F08BF5FEAC0
:1005F000500E50F1000041EB045170BD06F0004672
:1006000046EA010140EA020081EA0301B4EB5C041E
:10061000C2BFD4EB0C0541EA045170BD41F4801116
:100620004FF0000E013C00F3AB8014F1360FDEBF3B
:10063000002001F0004170BDC4F10004203C35DA17
:100640000C341BDC04F11404C4F1200500FA05F39A
:1006500020FA04F001FA05F240EA020001F000423B
:1006600021F0004110EBD37021FA04F642EB0601B1
:100670005EEA430E08BF20EAD37070BDC4F10C04DB
:10068000C4F1200500FA04F320FA05F001FA04F29F
:1006900040EA020001F0004110EBD37041F100018B
:1006A0005EEA430E08BF20EAD37070BDC4F1200596
:1006B00000FA05F24EEA020E20FA04F301FA05F2FE
:1006C00043EA020321FA04F001F0004121FA04F2A6
:1006D00020EA020000EBD3705EEA430E08BF20EA76
:1006E000D37070BD94F0000F0FD101F000464000B0
:1006F00041EB010111F4801F08BF013CF7D041EA32
:10070000060195F0000F18BF704703F00046520035
:1007100043EB030313F4801F08BF013DF7D043EA06
:100720000603704794EA0C0F0CEA135518BF95EABC
:100730000C0F0CD050EA410618BF52EA4306D1D143
:1007400081EA030101F000414FF0000070BD50EA62
:10075000410606BF1046194652EA430619D094EAEC
:100760000C0F02D150EA013613D195EA0C0F05D1D6
:1007700052EA03361CBF104619460AD181EA03012A
:1007800001F0004141F0FE4141F470014FF00000E2
:1007900070BD41F0FE4141F4780170BD70B54FF07D
:1007A000FF0C4CF4E06C1CEA11541DBF1CEA1355FD
:1007B00094EA0C0F95EA0C0F00F0A7F8A4EB0504DF
:1007C00081EA030E52EA03354FEA013100F08880D6
:1007D0004FEA03334FF0805545EA131343EA12639F
:1007E0004FEA022245EA111545EA10654FEA002654
:1007F0000EF000419D4208BF964244F1FD0404F50D
:10080000407402D25B084FEA3202B61A65EB030568
:100810005B084FEA32024FF480104FF4002CB6EB25
:10082000020E75EB030E22BFB61A754640EA0C00A5
:100830005B084FEA3202B6EB020E75EB030E22BFE5
:10084000B61A754640EA5C005B084FEA3202B6EB26
:10085000020E75EB030E22BFB61A754640EA9C00E5
:100860005B084FEA3202B6EB020E75EB030E22BFB5
:10087000B61A754640EADC0055EA060E18D04FEA73
:10088000051545EA16754FEA06164FEAC30343EA13
:1008900052734FEAC2025FEA1C1CC0D111F4801FE0
:1008A0000BD141EA00014FF000004FF0004CB6E7D9
:1008B00011F4801F04BF01430020B4F1FD0C88BF78
:1008C000BCF5E06F3FF6AFAEB5EB030C04BFB6EB83
:1008D000020C5FEA500C50F1000041EB045170BD76
:1008E0000EF0004E4EEA113114EB5C04C2BFD4EBA3
:1008F0000C0541EA045170BD41F480114FF0000E27
:10090000013C90E645EA060E8DE60CEA135594EAA2
:100910000C0F08BF95EA0C0F3FF43BAF94EA0C0FA5
:100920000AD150EA01347FF434AF95EA0C0F7FF41A
:1009300025AF104619462CE795EA0C0F06D152EA6E
:1009400003353FF4FDAE1046194622E750EA410652
:1009500018BF52EA43067FF4C5AE50EA41047FF463
:100960000DAF52EA43057FF4EBAE12E74FF0FF3CC8
:1009700006E000BF4FF0010C02E000BF4FF0010C99
:100980004DF804CD4FEA410C7FEA6C5C4FEA430C12
:1009900018BF7FEA6C5C1BD001B050EA410C0CBF61
:1009A00052EA430C91EA030F02BF90EA020F0020C3
:1009B000704710F1000F91EA030F58BF994208BF2A
:1009C00090422CBFD8176FEAE37040F001007047E7
:1009D0004FEA410C7FEA6C5C02D150EA013C07D13E
:1009E0004FEA430C7FEA6C5CD6D152EA033CD3D089
:1009F0005DF8040B704700BF8446104662468C4683
:100A00001946634600E000BF01B5FFF7B7FF0028B5
:100A100048BF10F1000F01BD4DF808EDFFF7F4FFDE
:100A20000CBF012000205DF808FB00BF4DF808ED69
:100A3000FFF7EAFF34BF012000205DF808FB00BF8C
:100A40004DF808EDFFF7E0FF94BF012000205DF8AE
:100A500008FB00BF4DF808EDFFF7CEFF94BF012063
:100A600000205DF808FB00BF4DF808EDFFF7C4FF5C
:100A700034BF012000205DF808FB00BF4FEA4102AF
:100A800012F5001215D211D56FF47873B3EB6252E0
:100A900012D94FEAC12343F0004343EA505311F007
:100AA000004F23FA02F018BF404270474FF0000099
:100AB000704750EA013005D111F0004008BF6FF0D7
:100AC000004070474FF00000704700BF53B94AB96B
:100AD000002908BF00281CBF4FF0FF314FF0FF3046
:100AE00000F088B9ADF1080C6DE904CE00F006F80D
:100AF000DDF804E0DDE9022304B070472DE9F0479A
:100B0000089D8E4604468846002B4AD18A421746E5
:100B100062D9B2FA82F64EB1C6F1200301FA06F8A4
:100B200020FA03F3B74043EA0808B4404FEA174EEF
:100B30001FFA87FCB8FBFEF1230C0EFB118843EA79
:100B4000084301FB0CF29A4209D9FB1801F1FF306E
:100B500080F0EA809A4240F2E78002393B449A1AD8
:100B6000A3B2B2FBFEF00EFB102243EA024300FBED
:100B70000CFC9C4509D9FB1800F1FF3280F0D680AF
:100B80009C4540F2D3803B44023840EA0140A3EB4D
:100B90000C0300211DB1F3400022C5E90032BDE87D
:100BA000F0878B4205D90DB1C5E900010021084647
:100BB000F5E7B3FA83F1002946D1734502D38242A7
:100BC00000F20581841A6EEB030201209046002D8D
:100BD000E5D0C5E90048E2E7002A00F09080B2FACB
:100BE00082F6002E40F0A4808A1A030C4FEA174EBA
:100BF00080B2BCB20121B2FBFEFC0EFB1C2243EA18
:100C0000024304FB0CF29A4207D9FB180CF1FF389F
:100C100002D29A4200F2E080C4469B1AB3FBFEF275
:100C20000EFB123340EA034302FB04F49C4207D953
:100C3000FB1802F1FF3002D29C4200F2CA80024649
:100C40001B1B42EA0C40A5E7C1F120068B4022FAAB
:100C500006F71F430EFA01F420FA06F32EFA06FEF9
:100C60004FEA1749234300FA01F81FFA87FCBEFB3D
:100C7000F9F01C0C09FB10EE44EA0E4400FB0CFEDC
:100C8000A64502FA01F209D93C1900F1FF3A80F0B9
:100C90009C80A64540F2998002383C44A4EB0E04A7
:100CA0001FFA83FEB4FBF9F309FB13444EEA044434
:100CB00003FB0CFCA44508D93C1903F1FF3E80F06E
:100CC0008280A4457FD9023B3C4443EA0040A4EB28
:100CD0000C04A0FB02EC64457346E14662D35FD08E
:100CE0005DB1B8EB030264EB090404FA06F622FADC
:100CF00001F31E43CC40C5E9006400214FE7B1FB7E
:100D0000F2FC010C41EA0E4180B240EA01423B464E
:100D100038463C46B846BE462026B1FBF7F1A2EB6A
:100D2000080241EA0C4166E7014618E710462CE745
:100D3000C6F120022EFA02F3B740B14020FA02F2C7
:100D40004FEA174E0A43B3FBFEF8BCB20EFB183352
:100D5000110C41EA034108FB04F9B04089454FEA10
:100D6000104380B23ED9791808F1FF3C01D2894581
:100D70001FD8A1EB0901B1FBFEF909FB04F80EFB3A
:100D8000191192B242EA0142424529D2BA1809F138
:100D9000FF31C4D24245C2D2A9F102013A44BEE7B2
:100DA000F0459DD2BEEB02036CEB070C0138E14627
:100DB00096E7A7EB09094944A8F1020CB1FBFEF93B
:100DC00009FB04F8DBE773467FE7504666E7084611
:100DD000FDE63B44023A33E7ACF1020C3B441CE72E
:100DE00049469CE7A1EB0901C446B1FBFEF909FBAA
:100DF00004F8C4E7704700BF80B500AF01F018F9F0
:100E000000F03CF800F0B2FA00F090FA00F058FA66
:100E100000F002FA00F004F900F0AAF900F096F8E8
:100E200008F060FC0D4A0B21082008F052FD034633
:100E30000B4A13600B4A00210B4808F09DFC034647
:100E40000A4A13600A4A00210A4808F095FC034642
:100E5000094A136008F06AFC00BFFDE748D30008A8
:100E60008C08002000D30008491400083403002037
:100E700024D3000819150008E005002080B594B0BF
:100E800000AF07F120033022002118460CF0FAF8D9
:100E900007F10C0300221A605A609A60DA601A6146
:100EA0000023BB60274B1B6C264A43F0805313641E
:100EB000244B1B6C03F08053BB60BB6800237B603A
:100EC000214B1B68204A43F4804313601E4B1B6870
:100ED00003F480437B607B6801233B624FF48033E3
:100EE0007B620223BB634FF48003FB6304233B64F8
:100EF00048237B640223BB640323FB6407F12003C4
:100F0000184603F04BFB0346002B01D000F026FBF4
:100F10000F23FB6002233B6100237B614FF480536E
:100F2000BB610023FB6107F10C030221184603F0AB
:100F3000ADFD0346002B01D000F010FB00BF503781
:100F4000BD4680BD003802400070004080B584B0CE
:100F500000AF3B4600221A605A609A60DA602D4B5F
:100F60002D4A1A602B4B00225A602A4B00229A60AD
:100F7000284B01221A61274B00221A76254B0022AA
:100F800083F82020234B0022DA62224B234A9A6204
:100F9000204B0022DA601F4B0322DA611D4B002236
:100FA00083F830201B4B01225A611A4801F0A6F841
:100FB0000346002B01D000F0D1FA03233B6001234C
:100FC0007B600023BB603B461946124801F0DAF80B
:100FD0000346002B01D000F0C1FA02237B603B46A0
:100FE00019460C4801F0CEF80346002B01D000F062
:100FF000B5FA03237B603B461946064801F0C2F868
:101000000346002B01D000F0A9FA00BF1037BD46FF
:1010100080BD00BF6C010020002001400100000FD6
:1010200080B592B000AF07F1400300221A605A6009
:1010300007F1240300221A605A609A60DA601A618C
:101040005A619A613B1D2022002118460CF01AF8C3
:10105000454B464A1A60444B00225A60424B60227C
:101060009A60414B40F28162DA603F4B00221A6184
:101070003D4B00225A613C4B00229A613A4804F0F1
:101080006BF80346002B01D000F068FA00233B64A4
:1010900000237B6407F140031946334804F0FEFE49
:1010A0000346002B01D000F059FA60237B62002335
:1010B000BB620023FB6200233B6300237B630023AE
:1010C000BB630023FB6307F1240300221946264873
:1010D00004F07EFB0346002B01D000F03FFA07F13D
:1010E000240304221946204804F072FB0346002B17
:1010F00001D000F033FA07F12403082219461A48F8
:1011000004F066FB0346002B01D000F027FA07F13C
:1011100024030C221946144804F05AFB0346002B02
:1011200001D000F01BFA00237B600023BB6000238A
:10113000FB6000233B6100237B614FF40053BB61E4
:1011400000233B623B1D1946074804F023FF03467A
:10115000002B01D000F002FA034800F03DFE00BF72
:101160004837BD4680BD00BF14020020000001408A
:1011700080B58CB000AF07F10C0324220021184683
:101180000BF080FF3B1D00221A605A60214B4FF08C
:1011900080421A601F4B00225A601E4B00229A6048
:1011A0001C4B4FF0FF32DA601A4B00221A61194BC8
:1011B00000229A610323FB6000233B6101237B61D2
:1011C0000023BB610023FB6100233B6201237B62A0
:1011D0000023BB620023FB6207F10C0319460D4894
:1011E00004F0D2F80346002B01D000F0B7F9002339
:1011F0007B600023BB603B1D1946064804F04EFE91
:101200000346002B01D000F0A9F900BF3037BD46DE
:1012100080BD00BF5C02002080B58CB000AF07F13C
:101220000C032422002118460BF02CFF3B1D00224A
:101230001A605A60204B214A1A601F4B00225A60E4
:101240001D4B00229A601C4B4FF6FF72DA601A4B5E
:1012500000221A61184B00229A610323FB600023CD
:101260003B6101237B610023BB610023FB61002301
:101270003B6201237B620023BB620023FB6207F118
:101280000C0319460C4804F07FF80346002B01D0EC
:1012900000F064F900237B600023BB603B1D19460E
:1012A000054804F0FBFD0346002B01D000F056F981
:1012B00000BF3037BD4680BDA402002000040040BE
:1012C00080B582B000AF3B4600221A605A60154BD1
:1012D000154A1A60134B31225A60124B00229A6051
:1012E000104B4FF6FF72DA600E4B00229A610D48E8
:1012F00003F00AFE0346002B01D000F02FF9002373
:101300003B6000237B603B461946064804F0C6FD5F
:101310000346002B01D000F021F900BF0837BD467D
:1013200080BD00BFEC0200200014004080B582B0F8
:1013300000AF00237B600C4B1B6B0B4A43F4800314
:101340001363094B1B6B03F480037B607B680022F3
:101350000521382001F0ECF9382001F005FA00BF32
:101360000837BD4680BD00BF0038024080B58AB056
:1013700000AF07F1140300221A605A609A60DA6025
:101380001A6100233B612D4B1B6B2C4A43F08003F9
:1013900013632A4B1B6B03F080033B613B69002303
:1013A000FB60264B1B6B254A43F001031363234B61
:1013B0001B6B03F00103FB60FB680023BB601F4B4A
:1013C0001B6B1E4A43F0100313631C4B1B6B03F093
:1013D0001003BB60BB6800237B60184B1B6B174A74
:1013E00043F004031363154B1B6B03F004037B6092
:1013F0007B6800233B60114B1B6B104A43F00203D8
:1014000013630E4B1B6B03F002033B603B6800222F
:10141000C0210B4801F03CFEC0237B610123BB616E
:101420000023FB6100233B6207F1140319460448C3
:1014300001F092FC00BF2837BD4680BD0038024055
:10144000000002400000000080B5A6B004AF786044
:101450000BF0E2F82A4803F0A7FD07F10800042387
:10146000029300230193274B00939FED1F2B9FEDC9
:10147000201B9FED210B0C230822234900F074F858
:1014800001228021214801F003FE214B186800232E
:101490000022204908F0F0FAC7F884001D4B5B7861
:1014A000DBB2012B05D100228021184801F0F0FDAC
:1014B00009E0184B5B78DBB2022B04D101228021BA
:1014C000124801F0E5FD134BB3F902301BB21A4686
:1014D00007F108031146184600F0BCFA0A2008F08C
:1014E000DDF9D2E7AFF30080000000000000F03F1C
:1014F000000000000000E03F9A9999999999B93F3E
:10150000EC020020A402002014020020000002408F
:101510008C0800208009002080B582B000AF786080
:101520004021044801F0CDFD4FF4FA7008F0B6F9FF
:1015300000BFF5E70000024080B582B000AF7860E0
:101540007B681B68044A934201D100F093FD00BF01
:101550000837BD4680BD00BF0010004080B400AF1A
:1015600072B600BF00BFFDE780B5A8B000AF7862DB
:101570003962FA61BB6187ED040B87ED021B87EDD1
:10158000002BD7E90423C7E90E23D7E90023C7E9D5
:101590001223D7E90223C7E910233B6ABB62FB6928
:1015A000C7F88030BB69C7F88430D7F8A830FB6231
:1015B000D7F8AC30C7F88830D7F8B030C7F88C30DF
:1015C0000023A7F8903047F6FF73A7F89230002366
:1015D0003B670023BB660023FB664FF000024FF021
:1015E0000003C7E918230023FB670023BB67002320
:1015F0007B67BB6AD7F880201146184603F0FCFDD4
:10160000BB6AD7F884201146184603F0F5FDFB6A43
:10161000D7F888201146184603F05CFFFB6AD7F81C
:101620008C201146184603F055FF7B6A184607F1D7
:101630002803782219460BF0B1FD786AA037BD4621
:1016400080BD80B485B000AF78607B685B681B6844
:101650005B6AFB817B68B3F968309BB2FA89D31A65
:101660009BB2BB81B7F90E207B68A3F86820B7F95D
:101670000C3018461437BD465DF8047B70472DE9E1
:10168000B04382B000AF7860396000F007FD0246D9
:101690003B689A633B689A6B3B681B6CD21A3B6849
:1016A000DA637B685B6C002B02D17B6801225A6491
:1016B0003B685A6C3B689B6CD31A1846FEF7DAFEFF
:1016C00002460B463968C1E908233B68D3E908455F
:1016D0003B68DB6C1846FEF7CDFE02460B46204603
:1016E0002946FEF779FD02460B4614461D463B6827
:1016F000DB6B1846FEF7AEFE02460B462046294637
:10170000FFF74CF802460B463968C1E90C233B68E9
:10171000D3E90A453B68D3E908893B68DB6B184687
:10172000FEF798FE02460B4640464946FEF70CFF80
:1017300002460B4620462946FEF750FD02460B4660
:101740003968C1E90A233B68D3E902013B68D3E960
:101750000823FEF7F9FE02460B4614461D463B6879
:10176000D3E906013B68D3E90C23FEF7EDFE024600
:101770000B4620462946FEF731FD02460B4614462D
:101780001D463B68D3E904013B68D3E90A23FEF711
:10179000DBFE02460B4620462946FEF71FFD0246A9
:1017A0000B463968C1E900233B68D3E9082310469A
:1017B0001946FFF763F902463B68DA643B689A6BA7
:1017C0003B681A643B68D3E900457B68B3F86A302C
:1017D0001846FEF74FFE02460B4620462946FFF705
:1017E00043F90346002B0AD07B68B3F86A301846E9
:1017F000FEF730FE02460B463968C1E900233B681C
:10180000D3E900457B68B3F86A305B421846FEF7BF
:1018100031FE02460B4620462946FFF707F90346EC
:10182000002B00D10BE07B68B3F86A305B421846AE
:10183000FEF720FE02460B463968C1E9002300BFCF
:101840000837BD46BDE8B08380B483B000AF786090
:101850007B689B6D002B05D17B681B681B68002291
:101860005A6318E07B689B6D042B05D17B681B686D
:101870001A68002393630EE07B689B6D082B05D1EB
:101880007B681B681A680023D36304E07B681B68CD
:101890001A68002313647B68DB6D002B07D17B681B
:1018A00093F870207B681B681B685A6321E07B6893
:1018B000DB6D042B08D17B6893F870107B681B6884
:1018C0001A680B46936314E07B68DB6D082B08D124
:1018D0007B6893F870107B681B681A680B46D363AB
:1018E00007E07B6893F870107B681B681A680B46EA
:1018F000136400BF0C37BD465DF8047B704780B4AD
:1019000083B000AF78607B689B6D002B07D17B684C
:1019100093F870207B681B681B685A6321E07B6822
:101920009B6D042B08D17B6893F870107B681B6853
:101930001A680B46936314E07B689B6D082B08D1F3
:101940007B6893F870107B681B681A680B46D3633A
:1019500007E07B6893F870107B681B681A680B4679
:1019600013647B68DB6D002B05D17B681B681B68EB
:1019700000225A6318E07B68DB6D042B05D17B687D
:101980001B681A68002393630EE07B68DB6D082BED
:1019900005D17B681B681A680023D36304E07B6869
:1019A0001B681A680023136400BF0C37BD465DF83E
:1019B000047B704780B483B000AF78607B689B6D18
:1019C000002B05D17B681B681B6800225A6318E056
:1019D0007B689B6D042B05D17B681B681A6800230C
:1019E00093630EE07B689B6D082B05D17B681B68B9
:1019F0001A680023D36304E07B681B681A6800231D
:101A000013647B68DB6D002B05D17B681B681B684A
:101A100000225A6318E07B68DB6D042B05D17B68DC
:101A20001B681A68002393630EE07B68DB6D082B4C
:101A300005D17B681B681A680023D36304E07B68C8
:101A40001B681A680023136400BF0C37BD465DF89D
:101A5000047B704780B582B000AF786039607868E9
:101A6000FFF7EFFD03461A467B681A657B683A6804
:101A7000DA647B68083319467868FFF700FE7B68F4
:101A8000D3E902014FF000020F4BFEF7EDFF0346D2
:101A9000002B03D07868FFF7D7FE11E07B68D3E90D
:101AA00002014FF00002094BFEF7C0FF0346002B76
:101AB00003D07868FFF723FF02E07868FFF77AFF2A
:101AC00000BF0837BD4680BD00002440000024C090
:101AD00080B582B000AF00237B60124B5B6C114A73
:101AE00043F4804353640F4B5B6C03F480437B608F
:101AF0007B6800233B600B4B1B6C0A4A43F080530E
:101B00001364084B1B6C03F080533B603B6800225E
:101B10000F216FF0010000F00BFE00BF0837BD463B
:101B200080BD00BF0038024080B58AB000AF786049
:101B300007F1140300221A605A609A60DA601A6191
:101B40007B681B682F4A934257D100233B612E4B81
:101B50005B6C2D4A43F4807353642B4B5B6C03F432
:101B600080733B613B690023FB60274B1B6B264A5C
:101B700043F001031363244B1B6B03F00103FB6071
:101B8000FB6818237B610323BB610023FB6107F122
:101B9000140319461D4801F0DFF81D4B1D4A1A6059
:101BA0001B4B00225A601A4B00229A60184B0022ED
:101BB000DA60174B4FF480621A61154B4FF40062E4
:101BC0005A61134B4FF400529A61114B4FF48072DB
:101BD000DA610F4B00221A620D4B00225A620C4848
:101BE00000F0D0FD0346002B01D0FFF7B7FC7B6867
:101BF000074A9A63064A7B68936300BF2837BD464D
:101C000080BD00BF002001400038024000000240BB
:101C1000B40100201064024080B485B000AF786049
:101C20007B681B680B4A93420DD10023FB600A4B73
:101C30005B6C094A43F001035364074B5B6C03F090
:101C40000103FB60FB6800BF1437BD465DF8047BF1
:101C5000704700BF000001400038024080B58CB0E2
:101C600000AF786007F11C0300221A605A609A6086
:101C7000DA601A617B681B68B3F1804F4AD1002398
:101C8000BB613F4B1B6C3E4A43F0010313643C4B6A
:101C90001B6C03F00103BB61BB6900237B61384B04
:101CA0001B6B374A43F001031363354B1B6B03F087
:101CB00001037B617B6900233B61314B1B6B304A25
:101CC00043F0020313632E4B1B6B03F002033B61D3
:101CD0003B692023FB6102233B6200237B620023DC
:101CE000BB620123FB6207F11C031946254801F082
:101CF00033F80823FB6102233B6200237B6200234D
:101D0000BB620123FB6207F11C0319461E4801F068
:101D100023F830E07B681B681C4A93422BD10023D8
:101D2000FB60174B1B6C164A43F002031364144B01
:101D30001B6C03F00203FB60FB680023BB60104BCD
:101D40001B6B0F4A43F0040313630D4B1B6B03F033
:101D50000403BB60BB68C023FB6102233B6200231A
:101D60007B620023BB620223FB6207F11C0319465E
:101D7000074800F0F1FF00BF3037BD4680BD00BF0F
:101D8000003802400000024000040240000400400D
:101D90000008024080B485B000AF78607B681B68A3
:101DA0000B4A93420DD10023FB600A4B1B6C094A7E
:101DB00043F020031364074B1B6C03F02003FB600C
:101DC000FB6800BF1437BD465DF8047B704700BF59
:101DD000001400400038024080B588B000AF786041
:101DE00007F10C0300221A605A609A60DA601A61E7
:101DF0007B681B68124A93421ED10023BB60114BC3
:101E00001B6B104A43F0100313630E4B1B6B03F064
:101E10001003BB60BB684FF4D443FB6002233B61FB
:101E200000237B610023BB610123FB6107F10C03ED
:101E30001946054800F090FF00BF2037BD4680BD21
:101E400000000140003802400010024080B58EB012
:101E500000AF78600023FB620023BB620023FB60BD
:101E6000334B1B6C324A43F010031364304B1B6C32
:101E700003F01003FB60FB6807F1100207F1140385
:101E80001146184603F00EF83B6AFB62FB6A002B12
:101E900003D102F0F3FF786304E002F0EFFF0346A2
:101EA0005B007B637B6B234AA2FB03239B0C013B00
:101EB000BB62214B214A1A601F4B40F2E732DA60C5
:101EC0001D4ABB6A53601C4B00221A611A4B002248
:101ED0009A60194B00229A61174803F015F80346DF
:101EE00087F8333097F83330002B1BD1124803F0BA
:101EF000C3F8034687F8333097F83330002B11D1FD
:101F0000362000F031FC7B680F2B08D8002279685E
:101F1000362000F00DFC0A4A7B68136002E00123C2
:101F200087F8333097F8333018463837BD4680BDD0
:101F30000038024083DE1B433809002000100040B7
:101F40000400002080B400AF00BFFDE780B400AF04
:101F500000BFFDE780B400AF00BFFDE780B400AF75
:101F600000BFFDE780B400AF00BFFDE780B400AF65
:101F700000BFBD465DF8047B7047000080B500AF30
:101F8000024803F035FB00BF80BD00BF38090020C8
:101F900080B500AF024800F0A3FC00BF80BD00BFC9
:101FA000B401002080B500AF024801F0E8F900BF9D
:101FB00080BD00BF9C68002080B400AF064BD3F802
:101FC0008830054A43F47003C2F8883000BFBD462C
:101FD0005DF8047B704700BF00ED00E0DFF834D00F
:101FE000FFF7EAFF0C480D490D4A002302E0D458E0
:101FF000C4500433C4188C42F9D30A4A0A4C002353
:1020000001E013600432A242FBD30BF0A1F8FEF70B
:10201000F3FE704700000220000000205001002065
:1020200090D3000850010020E0700020FEE700007F
:1020300080B500AF0E4B1B680D4A43F4007313606C
:102040000B4B1B680A4A43F480631360084B1B6800
:10205000074A43F480731360032000F05EFB0F20F7
:10206000FFF7F4FEFFF734FD0023184680BD00BFE4
:10207000003C024080B400AF064B1B781A46064B6A
:102080001B681344044A136000BFBD465DF8047B1F
:10209000704700BF08000020D009002080B400AFC6
:1020A000034B1B681846BD465DF8047B704700BFB4
:1020B000D009002080B584B000AF7860FFF7EEFF54
:1020C000B8607B68FB60FB68B3F1FF3F05D00A4B4B
:1020D0001B781A46FB681344FB6000BFFFF7DEFF66
:1020E0000246BB68D31AFA689A42F7D800BF00BF0D
:1020F0001037BD4680BD00BF0800002080B584B009
:1021000000AF78600023FB737B68002B01D10123B3
:1021100033E07B681B6C002B09D17868FFF704FD66
:102120007B6800225A647B68002283F83C207B682D
:102130001B6C03F01003002B18D17B681B6C23F47D
:10214000885323F0020343F002027B681A64786824
:1021500000F03AF97B6800225A647B681B6C23F01C
:10216000030343F001027B681A6401E00123FB735F
:102170007B68002283F83C20FB7B18461037BD4665
:1021800080BD000080B485B000AF78603960002366
:10219000BB607B6893F83C30012B01D1022305E141
:1021A0007B68012283F83C203B681B68092B25D9FA
:1021B0007B681B68D9683B681B689BB21A4613464C
:1021C0005B0013441E3B072202FA03F3DA437B68E9
:1021D0001B680A40DA607B681B68D9683B689A68AC
:1021E0003B681B689BB2184603465B0003441E3BDA
:1021F0009A407B681B680A43DA6022E07B681B68B0
:1022000019693B681B689BB21A4613465B0013446E
:10221000072202FA03F3DA437B681B680A401A615B
:102220007B681B6819693B689A683B681B689BB2AE
:10223000184603465B0003449A407B681B680A43C8
:102240001A613B685B68062B24D87B681B68596B56
:102250003B685A6813469B001344053B1F2202FA51
:1022600003F3DA437B681B680A405A637B681B6888
:10227000596B3B681B689BB218463B685A6813460B
:102280009B001344053B00FA03F27B681B680A437A
:102290005A634CE03B685B680C2B24D87B681B6856
:1022A000196B3B685A6813469B001344233B1F225B
:1022B00002FA03F3DA437B681B680A401A637B68FF
:1022C0001B68196B3B681B689BB218463B685A68D1
:1022D00013469B001344233B00FA03F27B681B6800
:1022E0000A431A6323E07B681B68D96A3B685A6813
:1022F00013469B001344413B1F2202FA03F3DA43C7
:102300007B681B680A40DA627B681B68D96A3B6895
:102310001B689BB218463B685A6813469B001344DF
:10232000413B00FA03F27B681B680A43DA62224BE6
:10233000FB607B681B68214A934209D13B681B689C
:10234000122B05D1FB685B6843F48002FB685A607E
:102350007B681B68194A934223D13B681B68102B8A
:1023600003D03B681B68112B1BD1FB685B6843F4EF
:102370000002FB685A603B681B68102B11D1104BA0
:102380001B68104AA2FB03239A0C13469B001344BC
:102390005B00BB6002E0BB68013BBB60BB68002B1D
:1023A000F9D17B68002283F83C20002318461437BB
:1023B000BD465DF8047B70470023014000200140CA
:1023C0000000002083DE1B4380B485B000AF78603E
:1023D000794BFB60FB685B6823F44032FB685A6012
:1023E000FB685A687B685B681A43FB685A607B68C5
:1023F0001B685A687B681B6822F480725A607B688D
:102400001B6859687B681B691A027B681B680A4352
:102410005A607B681B685A687B681B6822F04072B0
:102420005A607B681B6859687B689A687B681B6880
:102430000A435A607B681B689A687B681B6822F4B1
:1024400000629A607B681B6899687B68DA687B68C1
:102450001B680A439A607B689B6A584A934222D061
:102460007B681B689A687B681B6822F070629A60C0
:102470007B681B6899687B689A6A7B681B680A435B
:102480009A607B681B689A687B681B6822F04052E0
:102490009A607B681B6899687B68DA6A7B681B684E
:1024A0000A439A600FE07B681B689A687B681B6828
:1024B00022F070629A607B681B689A687B681B6870
:1024C00022F040529A607B681B689A687B681B68A0
:1024D00022F002029A607B681B6899687B681B7E09
:1024E0005A007B681B680A439A607B6893F8203027
:1024F000002B1BD07B681B685A687B681B6842F402
:1025000000625A607B681B685A687B681B6822F40B
:1025100060425A607B681B6859687B685B6A013B54
:102520005A037B681B680A435A6007E07B681B6894
:102530005A687B681B6822F400625A607B681B68DB
:10254000DA6A7B681B6822F47002DA627B681B68B7
:10255000D96A7B68DB69013B1A057B681B680A4303
:10256000DA627B681B689A687B681B6822F40072D9
:102570009A607B681B6899687B6893F830305A02D0
:102580007B681B680A439A607B681B689A687B6853
:102590001B6822F480629A607B681B6899687B687C
:1025A0005B699A027B681B680A439A6000BF143714
:1025B000BD465DF8047B7047002301400100000F19
:1025C00080B485B000AF78607B6803F00703FB60E0
:1025D0000C4BDB68BB60BA684FF6FF031340BB606F
:1025E000FB681A02BB68134343F0BF6343F4003334
:1025F000BB60044ABB68D36000BF1437BD465DF8BA
:10260000047B704700ED00E080B400AF044BDB6852
:102610001B0A03F007031846BD465DF8047B7047AC
:1026200000ED00E080B483B000AF0346FB7197F982
:102630000730002B0BDBFB7903F01F02074997F9EA
:1026400007305B09012000FA02F241F8232000BFA5
:102650000C37BD465DF8047B704700BF00E100E029
:1026600080B483B000AF03463960FB7197F907303F
:10267000002B0ADB3B68DAB20C4997F907301201EC
:10268000D2B20B4483F800230AE03B68DAB208496F
:10269000FB7903F00F03043B1201D2B20B441A760C
:1026A00000BF0C37BD465DF8047B704700E100E0D9
:1026B00000ED00E080B489B000AFF860B9607A60E6
:1026C000FB6803F00703FB61FB69C3F10703042BFD
:1026D00028BF0423BB61FB690433062B02D9FB69C5
:1026E000033B00E000237B614FF0FF32BB6902FA3D
:1026F00003F3DA43BB681A407B699A404FF0FF311D
:102700007B6901FA03F3D9437B680B4013431846F6
:102710002437BD465DF8047B704780B582B000AFBA
:1027200078607868FFF74CFF00BF0837BD4680BD72
:1027300080B586B000AF0346B9607A60FB730023B2
:102740007B61FFF761FF78617A68B9687869FFF7A4
:10275000B1FF024697F90F3011461846FFF780FF88
:1027600000BF1837BD4680BD80B582B000AF0346BC
:10277000FB7197F907301846FFF754FF00BF083781
:10278000BD4680BD80B586B000AF786000237B6118
:10279000FFF784FC38617B68002B01D1012399E0AD
:1027A0007B68022283F835207B68002283F834207E
:1027B0007B681B681A687B681B6822F001021A603C
:1027C0000FE0FFF76BFC02463B69D31A052B08D9D3
:1027D0007B6820225A657B68032283F83520032317
:1027E00078E07B681B681B6803F00103002BE8D1CD
:1027F0007B681B681B687B617A69384B13407B617F
:102800007B685A687B689B681A437B68DB681A435D
:102810007B681B691A437B685B691A437B689B6909
:102820001A437B68DB691A437B681B6A13437A6926
:1028300013437B617B685B6A042B07D17B68DA6A90
:102840007B681B6B13437A6913437B617B681B684E
:102850007A691A607B681B685B697B617B6923F01E
:1028600007037B617B685B6A7A6913437B617B68E2
:102870005B6A042B17D17B689B6A7A6913437B617F
:102880007B68DB6A002B0ED0786800F0E9F903461C
:10289000002B08D07B6840225A657B68012283F8B0
:1028A0003520012316E07B681B687A695A617868D5
:1028B00000F0A0F90346FB607B68DB6D3F229A4085
:1028C000FB689A607B6800225A657B68012283F866
:1028D0003520002318461837BD4680BD3F8010F0D4
:1028E00080B586B000AF78600023BB608E4B1B685C
:1028F0008E4AA2FB03239B0A7B617B689B6D3B6135
:102900003B691B68FB607B68DB6D08229A40FB68B3
:102910001340002B1AD07B681B681B6803F004036C
:10292000002B13D07B681B681A687B681B6822F039
:1029300004021A607B68DB6D08229A403B699A604A
:102940007B685B6D43F001027B685A657B68DB6DD9
:1029500001229A40FB681340002B12D07B681B6851
:102960005B6903F08003002B0BD07B68DB6D0122D9
:102970009A403B699A607B685B6D43F002027B681A
:102980005A657B68DB6D04229A40FB681340002B7C
:1029900012D07B681B681B6803F00203002B0BD06E
:1029A0007B68DB6D04229A403B699A607B685B6DB3
:1029B00043F004027B685A657B68DB6D10229A4005
:1029C000FB681340002B43D07B681B681B6803F037
:1029D0000803002B3CD07B68DB6D10229A403B69DA
:1029E0009A607B681B681B6803F48023002B18D057
:1029F0007B681B681B6803F40023002B08D17B68ED
:102A00001B6C002B24D07B681B6C786898471FE0F8
:102A10007B689B6C002B1BD07B689B6C786898470D
:102A200016E07B681B681B6803F48073002B07D1DA
:102A30007B681B681A687B681B6822F008021A60B2
:102A40007B681B6C002B03D07B681B6C78689847F5
:102A50007B68DB6D20229A40FB681340002B00F05E
:102A60008F807B681B681B6803F01003002B00F04D
:102A700087807B68DB6D20229A403B699A607B6887
:102A800093F83530DBB2052B36D17B681B681A68AA
:102A90007B681B6822F016021A607B681B685A6903
:102AA0007B681B6822F080025A617B681B6C002BDC
:102AB00003D17B689B6C002B07D07B681B681A686E
:102AC0007B681B6822F008021A607B68DB6D3F227E
:102AD0009A403B699A607B68012283F835207B68C5
:102AE000002283F834207B681B6D002B7ED07B682E
:102AF0001B6D7868984779E07B681B681B6803F456
:102B00008023002B1DD07B681B681B6803F4002307
:102B1000002B0DD17B685B6C002B31D07B685B6C2C
:102B2000786898472CE000BF00000020B5814E1B5C
:102B30007B68DB6B002B23D07B68DB6B7868984766
:102B40001EE07B681B681B6803F48073002B0FD1A9
:102B50007B681B681A687B681B6822F010021A6089
:102B60007B68012283F835207B68002283F83420BB
:102B70007B68DB6B002B03D07B68DB6B7868984746
:102B80007B685B6D002B32D07B685B6D03F00103CB
:102B9000002B22D07B68052283F835207B681B68D8
:102BA0001A687B681B6822F001021A60BB68013357
:102BB000BB607A699A4207D37B681B681B6803F085
:102BC0000103002BF2D100E000BF7B68012283F8F3
:102BD00035207B68002283F834207B68DB6C002B77
:102BE00005D07B68DB6C7868984700E000BF183739
:102BF000BD4680BD80B485B000AF78607B681B683F
:102C0000DBB2103B144AA2FB03231B09FB60134AEF
:102C1000FB6813441B781A467B68DA65FB68032B54
:102C200009D97B681B6823F47F7323F003031A1D03
:102C30007B689A6507E07B681B6823F47F7323F049
:102C400003037A6893657B689B6D18461437BD460D
:102C50005DF8047B704700BFABAAAAAA78D300082E
:102C600080B485B000AF78600023FB737B689B6AFB
:102C7000BB607B689B69002B1FD1BB68032B56D8B8
:102C800001A252F823F000BF992C0008AB2C0008D9
:102C9000992C00082F2D00087B68DB6A03F08073F5
:102CA000002B46D00123FB7343E07B68DB6AB3F162
:102CB000C07F40D10123FB733DE07B689B69B3F586
:102CC000005F21D1BB68032B37D801A252F823F053
:102CD000E12C0008E72C0008E12C0008F92C000882
:102CE0000123FB7330E07B68DB6A03F08073002B09
:102CF00025D00123FB7322E07B68DB6AB3F1C07F40
:102D00001FD10123FB731CE0BB68022B03D9BB68F6
:102D1000032B03D018E00123FB7315E07B68DB6A0B
:102D200003F08073002B0ED00123FB730BE000BF78
:102D30000AE000BF08E000BF06E000BF04E000BFFB
:102D400002E000BF00E000BFFB7B18461437BD4621
:102D50005DF8047B704700BF80B489B000AF786035
:102D6000396000237B6100233B610023BB610023AA
:102D7000FB616BE10122FB6902FA03F37B613B68B3
:102D80001B687A6913403B613A697B699A4240F05B
:102D90005A813B685B6803F00303012B05D03B6855
:102DA0005B6803F00303022B30D17B689B68BB6137
:102DB000FB695B00032202FA03F3DB43BA691340A9
:102DC000BB613B68DA68FB695B0002FA03F3BA692E
:102DD0001343BB617B68BA699A607B685B68BB61BF
:102DE0000122FB6902FA03F3DB43BA691340BB61BA
:102DF0003B685B681B0903F00102FB6902FA03F3FD
:102E0000BA691343BB617B68BA695A603B685B6807
:102E100003F00303032B17D07B68DB68BB61FB69FE
:102E20005B00032202FA03F3DB43BA691340BB6180
:102E30003B689A68FB695B0002FA03F3BA691343C3
:102E4000BB617B68BA69DA603B685B6803F00303C7
:102E5000022B23D1FB69DA087B68083253F8223051
:102E6000BB61FB6903F007039B000F2202FA03F327
:102E7000DB43BA691340BB613B681A69FB6903F025
:102E800007039B0002FA03F3BA691343BB61FB69B2
:102E9000DA087B680832B96943F822107B681B683E
:102EA000BB61FB695B00032202FA03F3DB43BA69EF
:102EB0001340BB613B685B6803F00302FB695B0086
:102EC00002FA03F3BA691343BB617B68BA691A60FB
:102ED0003B685B6803F44033002B00F0B4800023B0
:102EE000FB60604B5B6C5F4A43F4804353645D4B13
:102EF0005B6C03F48043FB60FB685B4AFB699B08E7
:102F0000023352F82330BB61FB6903F003039B00DB
:102F10000F2202FA03F3DB43BA691340BB617B68FB
:102F2000524A93422BD07B68514A934225D07B680A
:102F3000504A93421FD07B684F4A934219D07B6816
:102F40004E4A934213D07B684D4A93420DD07B6822
:102F50004C4A934207D07B684B4A934201D10723E6
:102F60000EE008230CE006230AE0052308E0042312
:102F700006E0032304E0022302E0012300E0002333
:102F8000FA6902F0030292009340BA691343BB61ED
:102F90003549FB699B080233BA6941F823203B4B52
:102FA0009B68BB613B69DB43BA691340BB613B680B
:102FB0005B6803F48013002B03D0BA693B691343A9
:102FC000BB61324ABB699360304BDB68BB613B69D4
:102FD000DB43BA691340BB613B685B6803F40013D1
:102FE000002B03D0BA693B691343BB61274ABB6915
:102FF000D360264B5B68BB613B69DB43BA69134016
:10300000BB613B685B6803F40033002B03D0BA69F3
:103010003B691343BB611D4ABB6953601B4B1B6873
:10302000BB613B69DB43BA691340BB613B685B68CA
:1030300003F48033002B03D0BA693B691343BB61AF
:10304000124ABB691360FB690133FB61FB690F2BFB
:103050007FF690AE00BF00BF2437BD465DF8047B0D
:10306000704700BF003802400038014000000240B5
:103070000004024000080240000C02400010024020
:103080000014024000180240001C0240003C0140B5
:1030900080B483B000AF78600B467B8013467B70B2
:1030A0007B78002B03D07A887B689A6103E07B8869
:1030B0001A047B689A6100BF0C37BD465DF8047B3B
:1030C000704780B485B000AF78600B467B807B682A
:1030D0005B69FB607A88FB6813401A04FB68D9437C
:1030E0007B880B401A437B689A6100BF1437BD464A
:1030F0005DF8047B704780B586B002AF78607B686E
:10310000002B01D1012301E17B681B68BB607B6858
:1031100093F89534DBB2002B06D17B68002283F84C
:103120009424786809F09AFC7B68032283F895243C
:10313000BB68B3F1A04F02D17B6800229A717B6813
:103140001B68184603F0A3F87B6818687B681A7C34
:103150008DF8002004330ECB02F082FF0346002BD3
:1031600005D07B68022283F895240123CEE07B689A
:103170001B680021184603F09BF80346002B05D07E
:103180007B68022283F895240123BFE00023FB73B0
:103190004AE0FA7B79681346DB0013449B000B443A
:1031A000153301221A70FA7B79681346DB00134449
:1031B0009B000B441433FA7B1A70FA7BFB7B98B2AA
:1031C00079681346DB0013449B000B442E33024600
:1031D0001A80FA7B79681346DB0013449B000B448A
:1031E000183300221A70FA7B79681346DB00134407
:1031F0009B000B441C3300221A60FA7B796813464B
:10320000DB0013449B000B44203300221A60FA7B3E
:1032100079681346DB0013449B000B4424330022DF
:103220001A60FB7B0133FB737B681B79FA7B9A4244
:10323000AFD30023FB7344E0FA7B79681346DB00CD
:1032400013449B000B4403F2552300221A70FA7BAF
:1032500079681346DB0013449B000B4403F5157398
:10326000FA7B1A70FA7B79681346DB0013449B00E3
:103270000B4403F5167300221A70FA7B7968134623
:10328000DB0013449B000B4403F5177300221A6004
:10329000FA7B79681346DB0013449B000B4403F56B
:1032A000187300221A60FA7B79681346DB00134416
:1032B0009B000B4403F5197300221A60FB7B01335A
:1032C000FB737B681B79FA7B9A42B5D37B681868DD
:1032D0007B681A7C8DF8002004330ECB03F034F8A1
:1032E0000346002B05D07B68022283F89524012336
:1032F0000CE07B6800225A747B68012283F89524D5
:103300007B681B68184604F07EF8002318461037C7
:10331000BD4680BD80B584B000AF78607B681B6817
:10332000FB607B6893F89434012B01D1022322E0E7
:103330007B68012283F89424FB68DB6803F0400378
:10334000002B09D07B685B7B012B05D1FB689B6B55
:1033500043F48032FB689A637B681B68184602F06E
:1033600085FF7B681B68184604F02CF87B680022F8
:1033700083F89424002318461037BD4680BD90B5CD
:103380008DB000AF78607B681B683B623B6AFB6175
:103390007B681B68184604F0EAF80346002B40F0EF
:1033A0008C847B681B68184604F04EF80346002B9B
:1033B00000F08284FB6903F500639B681B0AC3F37A
:1033C0000D027B68C3F8D4247B681B68184604F0A0
:1033D0003BF8034603F00203022B07D17B681B680E
:1033E0005A697B681B6802F002025A617B681B689D
:1033F000184604F029F8034603F01003102B61D19E
:103400007B681B689A697B681B6822F010029A61CE
:103410003B6A1B6ABB61BB6903F00F021346DB000A
:1034200013449B0003F514737A68134404337B61DF
:10343000BB6903F4F013B3F5802F24D1BA6947F6C2
:10344000F0731340002B35D07B69D968BB691B0929
:103450009BB2C3F30A039BB21A46386A03F060FEBC
:103460007B69DA68BB691B09C3F30A031A447B69E9
:10347000DA607B695A69BB691B09C3F30A031A4402
:103480007B695A6116E0BB6903F4F013B3F5402F72
:1034900010D17B6803F29C4308221946386A03F076
:1034A0003FFE7B695A69BB691B09C3F30A031A44CF
:1034B0007B695A617B681B689A697B681B6842F06C
:1034C00010029A617B681B68184603F0BDFF034633
:1034D00003F40023B3F5002F40F0A78000237B62A4
:1034E0007B681B68184603F0C2FFB86299E0BB6AAC
:1034F00003F00103002B00F08E807B681B687A6A62
:10350000D2B21146184603F0E6FF38613B6903F07A
:103510000103002B0CD07B6A5A01FB69134403F5AD
:1035200030631A4601239360796A786800F0A4FE3C
:103530003B6903F00803002B0CD07B6A5A01FB693E
:10354000134403F530631A4608239360796A786858
:1035500000F07AFF3B6903F01003002B08D07B6A70
:103560005A01FB69134403F530631A461023936034
:103570003B6903F00203002B30D03B6A5B6903F028
:103580008003802B09D1FB6903F500635B68FA694E
:1035900002F5006243F4806353607A6A1346DB00ED
:1035A00013449B0003F514737A68134404337B615E
:1035B0007B69DB78012B08D17B690022DA707B6A9A
:1035C000DBB21946786809F04FFB7B6A5A01FB6948
:1035D000134403F530631A46022393603B6903F0FA
:1035E0002003002B08D07B6A5A01FB69134403F5C2
:1035F00030631A46202393603B6903F40053002B89
:1036000009D07B6A5A01FB69134403F530631A46FB
:103610004FF4005393607B6A01337B62BB6A5B08A3
:10362000BB62BB6A002B7FF462AF7B681B681846E5
:1036300003F00AFF034603F48023B3F5802F40F024
:10364000DB807B681B68184603F02BFFB862002301
:103650007B62CDE0BB6A03F00103002B00F0C28067
:103660007B681B687A6AD2B21146184603F051FF94
:1036700038613B6903F00103002B57D07B6A03F0EC
:103680000F03012202FA03F3FB60FB6903F50063F9
:103690005A6BFB68DB43F96901F5006113404B632A
:1036A0007B6A5A01FB69134403F510631A46012330
:1036B00093607B689B79012B32D179687A6A1346D3
:1036C000DB0013449B000B442033196878687A6A46
:1036D0001346DB0013449B0003441C331B6819444E
:1036E00078687A6A1346DB0013449B000344203356
:1036F00019607B6A002B13D179687A6A1346DB0064
:1037000013449B000B4424331B68002B08D17B68B7
:1037100018687B6803F29C431A46012103F058FFA6
:103720007B6ADBB21946786809F019FA3B6903F045
:103730000803002B08D07B6A5A01FB69134403F588
:1037400010631A46082393603B6903F01003002BB3
:1037500008D07B6A5A01FB69134403F510631A46CB
:10376000102393603B6903F04003002B08D07B6A71
:103770005A01FB69134403F510631A464023936012
:103780003B6903F00203002B23D0796A386A02F008
:103790003FFF7A6A1346DB0013449B0010337A68BC
:1037A000134404337B617B69DB78012B08D17B698F
:1037B0000022DA707B6ADBB21946786809F066FA93
:1037C0007B6A5A01FB69134403F510631A4602230E
:1037D00093603B6903F08003002B03D0796A78681B
:1037E00000F0BDFC7B6A01337B62BB6A5B08BB6295
:1037F000BB6A002B7FF42EAF7B681B68184603F072
:1038000023FE034603F00043B3F1004F22D1FB69CE
:1038100003F500635B68FA6902F5006223F00103B7
:1038200053607B6893F8CC34012B08D17B6800226D
:1038300083F8CC240021786800F0A4FE02E07868C8
:1038400009F004FA7B681B685A697B681B6802F000
:1038500000425A617B681B68184603F0F5FD034679
:1038600003F40063B3F5006F12D1FB6903F5006345
:103870009B6803F00103012B02D1786809F0C0F9BD
:103880007B681B685A697B681B6802F400625A6196
:103890007B681B68184603F0D7FD034603F480538A
:1038A000B3F5805F40F0B780FB6903F500635B68A8
:1038B000FA6902F5006223F0010353607B681B681C
:1038C0001021184602F0A4FE0023FB6246E0FB6ACA
:1038D0005A01FB69134403F510631A464FF67F3310
:1038E0009360FB6A5A01FB69134403F510631B687C
:1038F000FA6A5101FA690A4402F5106223F40013CE
:103900001360FB6A5A01FB69134403F530631A46DE
:103910004FF67F339360FB6A5A01FB69134403F54A
:1039200030631B68FA6A5101FA690A4402F5306291
:1039300023F400131360FB6A5A01FB69134403F577
:1039400030631B68FA6A5101FA690A4402F5306271
:1039500043F000631360FB6A0133FB627B681B79F1
:103960001A46FB6A9342B2D3FB6903F50063DB6935
:10397000FA6902F5006243F00113D3617B68DB7BD7
:10398000002B16D0FB6903F50063D3F88430FA6985
:1039900002F5006243F00B03C2F88430FB6903F5C3
:1039A00000635B6CFA6902F5006243F00B03536439
:1039B00015E0FB6903F500635B69FA6902F50062D3
:1039C00043F4005343F02B035361FB6903F5006399
:1039D0001B69FA6902F5006243F00B031361FB698E
:1039E00003F500631B68FA6902F5006223F4FE63C5
:1039F00013607B6818687B6899797B6803F29C4345
:103A00001A4603F0E5FD7B681B685A697B681B68F2
:103A100002F480525A617B681B68184603F014FD5B
:103A2000034603F40053B3F5005F23D17B681B68A2
:103A3000184603F0AAFD7B681B68184602F061FE79
:103A400003461A467B68DA717B681C6801F00AFA43
:103A500001467B68DB791A46204602F065FB7868F0
:103A600009F0A5F87B681B685A697B681B6802F43B
:103A700000525A617B681B68184603F0E5FC034658
:103A800003F00803082B0AD1786809F082F87B68F4
:103A90001B685A697B681B6802F008025A617B68E0
:103AA0001B68184603F0D0FC034603F08003802B0C
:103AB00023D13B6A9B6923F080023B6A9A61012310
:103AC0007B6214E079687A6A1346DB0013449B003A
:103AD0000B4403F257231B78012B05D17B6ADBB221
:103AE0001946786800F00AFB7B6A01337B627B68C9
:103AF0001B791A467B6A9342E4D37B681B6818469D
:103B000003F0A2FC034603F48013B3F5801F3CD1FD
:103B100001237B622BE07B6A5A01FB69134403F5A6
:103B200010631B68BB6179687A6A1346DB00134433
:103B30009B000B4418331B78012B15D1BB69002B5C
:103B400012DA79687A6A1346DB0013449B000B444F
:103B5000173301221A707B6ADBB263F07F03DBB29A
:103B60001946786800F0CAFA7B6A01337B627B6889
:103B70001B791A467B6A9342CDD37B681B685A69CE
:103B80007B681B6802F480125A617B681B681846C8
:103B900003F05AFC034603F40013B3F5001F56D19B
:103BA00001237B6245E07B6A5A01FB69134403F5FC
:103BB00030631B68BB6179687A6A1346DB00134483
:103BC0009B000B4403F516731B78012B2ED1BB69A8
:103BD000002B2BDABB691A0C7B68D3F8D434534022
:103BE00003F00103002B21D179687A6A1346DB00C8
:103BF00013449B000B4403F2572301221A703B6AC3
:103C00009B6943F080023B6A9A613B6A5B6903F0FF
:103C10008003002B0AD1FB6903F500635B68FA6936
:103C200002F5006243F40073536008E07B6A0133DD
:103C30007B627B681B791A467B6A9342B3D37B68AD
:103C40001B685A697B681B6802F400125A617B6822
:103C50001B68184603F0F8FB034603F08043B3F1FA
:103C6000804F0AD1786809F023F87B681B685A698D
:103C70007B681B6802F080425A617B681B681846AB
:103C800003F0E2FB034603F00403042B15D17B6829
:103C90001B685B68BB61BB6903F00403002B02D0A7
:103CA000786809F013F87B681B6859687B681B68A3
:103CB000BA690A435A6000E000BF3437BD4690BD80
:103CC00080B582B000AF78600B46FB707B6893F8DC
:103CD0009434012B01D1022312E07B68012283F886
:103CE00094247B68FA785A747B681B68FA781146CA
:103CF000184603F041FB7B68002283F894240023DC
:103D000018460837BD4680BD80B584B000AF7860E6
:103D1000084611461A460346FB700B463B80134685
:103D2000BB700023FB7297F90330002B0FDAFB788E
:103D300003F00F021346DB0013449B0010337A6834
:103D400013440433FB60FB6801225A700FE0FB78D8
:103D500003F00F021346DB0013449B0003F51473BA
:103D60007A6813440433FB60FB6800225A70FB78C6
:103D700003F00F03DAB2FB681A703B88C3F30A0240
:103D8000FB689A60FB68BA781A71FB685B78002B55
:103D900004D0FB681B781A46FB685A83BB78022B59
:103DA00002D1FB6800225A717B6893F89434012B8E
:103DB00001D102230EE07B68012283F894247B6802
:103DC0001B68F968184602F0C1FC7B68002283F882
:103DD0009424FB7A18461037BD4680BD80B584B068
:103DE00000AF78600B46FB7097F90330002B0FDAB9
:103DF000FB7803F00F021346DB0013449B001033E3
:103E00007A6813440433FB60FB6801225A700FE0A8
:103E1000FB7803F00F021346DB0013449B0003F50D
:103E200014737A6813440433FB60FB6800225A70F1
:103E3000FB7803F00F03DAB2FB681A707B6893F823
:103E40009434012B01D102230EE07B68012283F818
:103E500094247B681B68F968184602F0FFFC7B68B5
:103E6000002283F89424002318461037BD4680BDF5
:103E700080B586B000AFF8607A603B600B46FB729D
:103E8000FB7A03F00F021346DB0013449B0003F59B
:103E90001473FA68134404337B617B697A68DA60CF
:103EA0007B693A681A617B6900225A617B6900224A
:103EB0005A70FB7A03F00F03DAB27B691A70FB6861
:103EC0009B79012B02D17A687B69DA61FB681868FB
:103ED000FB689B791A46796902F09CFD002318461D
:103EE0001837BD4680BD80B483B000AF78600B4604
:103EF000FB70FB7803F00F0279681346DB00134474
:103F00009B000B4403F51A731B6818460C37BD461B
:103F10005DF8047B704780B586B000AFF8607A60CA
:103F20003B600B46FB72FB7A03F00F021346DB008B
:103F300013449B001033FA68134404337B617B699C
:103F40007A68DA607B693A681A617B6900225A6193
:103F50007B6901225A70FB7A03F00F03DAB27B69A6
:103F60001A70FB689B79012B02D17A687B69DA6150
:103F7000FB681868FB689B791A46796902F04AFD6C
:103F8000002318461837BD4680BD80B584B000AF09
:103F900078600B46FB70FB7803F00F037A681279A8
:103FA000934201D901234FE097F90330002B0FDA38
:103FB000FB7803F00F021346DB0013449B00103321
:103FC0007A6813440433FB60FB6801225A700DE0E9
:103FD000FA781346DB0013449B0003F514737A68E8
:103FE00013440433FB60FB6800225A70FB68012213
:103FF0009A70FB7803F00F03DAB2FB681A707B68E3
:1040000093F89434012B01D102231DE07B68012237
:1040100083F894247B681B68F968184603F0D8F885
:10402000FB7803F00F03002B09D17B6818687B68CD
:1040300099797B6803F29C431A4603F0C9FA7B68BE
:10404000002283F89424002318461037BD4680BD13
:1040500080B584B000AF78600B46FB70FB7803F04E
:104060000F037A681279934201D9012342E097F94C
:104070000330002B0FDAFB7803F00F021346DB004E
:1040800013449B0010337A6813440433FB60FB68CD
:1040900001225A700FE0FB7803F00F021346DB0099
:1040A00013449B0003F514737A6813440433FB60D4
:1040B000FB6800225A70FB6800229A70FB7803F0BC
:1040C0000F03DAB2FB681A707B6893F89434012B03
:1040D00001D102230EE07B68012283F894247B68DF
:1040E0001B68F968184603F0E1F87B68002283F842
:1040F0009424002318461037BD4680BD80B584B097
:1041000000AF78600B46FB7097F90330002B0CDA98
:10411000FB7803F00F021346DB0013449B001033BF
:104120007A6813440433FB600CE0FB7803F00F0261
:104130001346DB0013449B0003F514737A681344A1
:104140000433FB607B681B68F968184602F000FFC7
:104150000346FB72FB7A18461037BD4680BD80B51A
:104160008AB002AF786039607B681B687B617B69CD
:104170003B613A681346DB0013449B0010337A68B6
:1041800013440433FB60FB685A69FB681B699A425D
:1041900001D901236BE0FB681A69FB685B69D31ADC
:1041A000FB61FB689B68FA699A4202D9FB689B68CD
:1041B000FB61FB6903339B08BB612AE0FB681A695A
:1041C000FB685B69D31AFB61FB689B68FA699A42DA
:1041D00002D9FB689B68FB61FB6903339B08BB61E9
:1041E000FB68D9683B68DAB2FB6998B27B689B7957
:1041F00000930346786902F055FFFB68DA68FB69B3
:104200001A44FB68DA60FB685A69FB691A44FB6868
:104210005A613B685A013B69134403F510639B697B
:104220009BB2BA699A4209D8FB685A69FB681B6954
:104230009A4203D2FB681B69002BBFD1FB681A6945
:10424000FB685B699A4211D83B6803F00F030122B7
:1042500002FA03F3BB603B6903F500635A6BBB686A
:10426000DB43396901F5006113404B6300231846B5
:104270002037BD4680BD000080B588B000AF7860B3
:1042800039607B681B68FB61FB69BB61FB693C3380
:1042900004331B687B613B685A01BB69134403F517
:1042A00030639B683B617B689B79012B7BD13B69C9
:1042B00003F00803002B15D07B69614A934240F25A
:1042C000B9803B6903F40043002B00F0B3803B68E6
:1042D0005A01BB69134403F530631A464FF4004397
:1042E0009360A7E03B6903F02003002B09D03B68F3
:1042F0005A01BB69134403F530631A4620239360C7
:1043000098E03B6903F02803002B40F093807B6921
:104310004B4A93420FD93B6903F40043002B0AD068
:104320003B685A01BB69134403F530631A464FF4E6
:10433000004393607EE03A681346DB0013449B0021
:1043400003F514737A6813440433FB60FB681A6A3C
:104350003B685901BB690B4403F530631B69C3F328
:104360001203D21AFB685A613B68002B14D1FB6818
:104370001B69002B09D17B6818687B6803F29C439A
:104380001A46012103F024F906E0FB68DA68FB68AD
:104390005B691A44FB68DA603B68DBB219467868EF
:1043A00008F0C2FB46E07B69264A934224D13B6970
:1043B00003F40043002B0AD03B685A01BB69134445
:1043C00003F530631A464FF40043936032E03B69D3
:1043D00003F02003002B08D03B685A01BB6913444B
:1043E00003F530631A46202393603B68DBB219461D
:1043F000786808F099FB1DE03B68002B14D17968C0
:104400003A681346DB0013449B000B4403F5197311
:104410001B68002B08D17B6818687B6803F29C43FB
:104420001A46002103F0D4F83B68DBB219467868DD
:1044300008F07AFB002318462037BD4680BD00BF38
:104440000A30544F0A31544F80B586B000AF7860BF
:1044500039607B681B687B617B693B617B693C33AE
:1044600004331B68FB603B685A013B69134403F546
:1044700030639B68BB60FB68154A93420ED9BB68EA
:1044800003F40043002B09D03B685A013B691344F5
:1044900003F530631A464FF400439360786808F0E0
:1044A00031FBFB680A4A93420CD97B689B79012B4C
:1044B00008D17B6818687B6803F29C431A46012187
:1044C00003F086F8002318461837BD4680BD00BFAC
:1044D0000A30544F80B485B000AF78600B46FB7053
:1044E00013463B807B681B685B6ABB60FB78002BD4
:1044F00007D13B8819047B681B68BA680A439A6233
:1045000028E07B681B689B6A1B0CBA681344BB607D
:104510000023FB730DE07B681A68FB7B40339B0034
:1045200013445B681B0CBA681344BB60FB7B01330C
:10453000FB73FA7BFB78013B9A42ECD33B8818046F
:104540007B681968FB78013BBA68024340339B00E3
:104550000B445A60002318461437BD465DF8047BAF
:10456000704780B483B000AF78600B467B807B6877
:104570001B687A885A62002318460C37BD465DF8DE
:10458000047B704780B483B000AF78600B46FB704B
:1045900000BF0C37BD465DF8047B704780B586B020
:1045A00000AF78607B68002B01D1012367E27B6854
:1045B0001B6803F00103002B75D0884B9B6803F048
:1045C0000C03042B0CD0854B9B6803F00C03082BC9
:1045D00012D1824B5B6803F48003B3F5800F0BD1DB
:1045E0007E4B1B6803F40033002B5BD07B685B6859
:1045F000002B57D1012342E27B685B68B3F5803F13
:1046000006D1764B1B68754A43F4803313601DE076
:104610007B685B68B3F5A02F0CD1704B1B686F4AA9
:1046200043F4802313606D4B1B686C4A43F4803362
:1046300013600BE0694B1B68684A23F480331360F6
:10464000664B1B68654A23F4802313607B685B68B4
:10465000002B13D0FDF722FD386108E0FDF71EFDA9
:1046600002463B69D31A642B01D9032307E25B4B53
:104670001B6803F40033002BF0D014E0FDF70EFDAF
:10468000386108E0FDF70AFD02463B69D31A642B46
:1046900001D90323F3E1514B1B6803F40033002BD2
:1046A000F0D100E000BF7B681B6803F00203002B21
:1046B00063D04A4B9B6803F00C03002B0BD0474B95
:1046C0009B6803F00C03082B1CD1444B5B6803F47C
:1046D0008003002B16D1414B1B6803F00203002B13
:1046E00005D07B68DB68012B01D00123C7E13B4B80
:1046F0001B6823F0F8027B681B69DB003749134312
:104700000B603AE07B68DB68002B20D0344B012241
:104710001A60FDF7C3FC386108E0FDF7BFFC0246F4
:104720003B69D31A022B01D90323A8E12B4B1B6849
:1047300003F00203002BF0D0284B1B6823F0F80293
:104740007B681B69DB00254913430B6015E0244B94
:1047500000221A60FDF7A2FC386108E0FDF79EFC1C
:1047600002463B69D31A022B01D9032387E11B4B75
:104770001B6803F00203002BF0D17B681B6803F079
:104780000803002B36D07B685B69002B16D0154BD5
:1047900001221A60FDF782FC386108E0FDF77EFC1B
:1047A00002463B69D31A022B01D9032367E10B4B65
:1047B0005B6F03F00203002BF0D01BE0094B0022DB
:1047C0001A60FDF76BFC38610EE0FDF767FC0246EE
:1047D0003B69D31A022B07D9032350E1003802406A
:1047E00000004742800E4742884B5B6F03F0020394
:1047F000002BEAD17B681B6803F00403002B00F058
:1048000097800023FB75814B1B6C03F08053002BBA
:104810000FD10023BB607D4B1B6C7C4A43F080535F
:1048200013647A4B1B6C03F08053BB60BB6801239D
:10483000FB75774B1B6803F48073002B18D1744B06
:104840001B68734A43F480731360FDF727FC3861DB
:1048500008E0FDF723FC02463B69D31A022B01D97D
:1048600003230CE16A4B1B6803F48073002BF0D028
:104870007B689B68012B06D1644B1B6F634A43F036
:10488000010313671CE07B689B68052B0CD15F4B11
:104890001B6F5E4A43F0040313675C4B1B6F5B4A5C
:1048A00043F0010313670BE0584B1B6F574A23F08B
:1048B00001031367554B1B6F544A23F0040313671E
:1048C0007B689B68002B15D0FDF7E8FB38610AE098
:1048D000FDF7E4FB02463B69D31A41F2883293426A
:1048E00001D90323CBE0494B1B6F03F00203002BDC
:1048F000EED014E0FDF7D2FB38610AE0FDF7CEFB05
:1049000002463B69D31A41F28832934201D903230C
:10491000B5E03E4B1B6F03F00203002BEED1FB7D95
:10492000012B05D1394B1B6C384A23F0805313649B
:104930007B689B69002B00F0A180344B9B6803F0DF
:104940000C03082B5CD07B689B69022B41D1314B57
:1049500000221A60FDF7A2FB386108E0FDF79EFB1C
:1049600002463B69D31A022B01D9032387E0274B68
:104970001B6803F00073002BF0D17B68DA697B6859
:104980001B6A1A437B685B6A9B011A437B689B6ABC
:104990005B08013B1B041A437B68DB6A1B061B494F
:1049A00013434B601B4B01221A60FDF777FB386104
:1049B00008E0FDF773FB02463B69D31A022B01D9CD
:1049C00003235CE0114B1B6803F00073002BF0D055
:1049D00054E0104B00221A60FDF760FB386108E0DC
:1049E000FDF75CFB02463B69D31A022B01D9032376
:1049F00045E0064B1B6803F00073002BF0D13DE04F
:104A00007B689B69012B07D1012338E00038024005
:104A100000700040600047421B4B5B68FB607B6896
:104A20009B69012B28D0FB6803F480027B68DB695B
:104A30009A4221D1FB6803F03F027B681B6A9A42CD
:104A40001AD1FA6847F6C07313407A68526A920125
:104A5000934211D1FB6803F440327B689B6A5B0888
:104A6000013B1B049A4207D1FB6803F070627B682C
:104A7000DB6A1B069A4201D0012300E0002318469E
:104A80001837BD4680BD00BF0038024080B584B0F5
:104A900000AF786039607B68002B01D10123CCE046
:104AA000684B1B6803F007033A689A420CD9654BC0
:104AB0003A68D2B21A70634B1B6803F007033A6876
:104AC0009A4201D00123B8E07B681B6803F002031F
:104AD000002B20D07B681B6803F00403002B05D05B
:104AE000594B9B68584A43F4E05393607B681B68BA
:104AF00003F00803002B05D0534B9B68524A43F444
:104B000060439360504B9B6823F0F0027B689B6886
:104B10004D4913438B607B681B6803F00103002B36
:104B200044D07B685B68012B07D1474B1B6803F4BB
:104B30000033002B19D101237FE07B685B68022BD7
:104B400003D07B685B68032B07D13F4B1B6803F0E6
:104B50000073002B09D101236FE03B4B1B6803F06E
:104B60000203002B01D1012367E0374B9B6823F040
:104B700003027B685B68344913438B60FDF78EFA50
:104B8000F8600AE0FDF78AFA0246FB68D31A41F2A0
:104B90008832934201D903234FE02B4B9B6803F0EB
:104BA0000C027B685B689B009A42EBD1254B1B682B
:104BB00003F007033A689A420CD2224B3A68D2B209
:104BC0001A70204B1B6803F007033A689A4201D021
:104BD000012332E07B681B6803F00403002B08D03C
:104BE000194B9B6823F4E0527B68DB68164913433A
:104BF0008B607B681B6803F00803002B09D0124B05
:104C00009B6823F460427B681B69DB000E491343F9
:104C10008B6000F021F802460B4B9B681B0903F0E8
:104C20000F030A49CB5C22FA03F3094A1360094BCC
:104C30001B681846FDF70AF9002318461037BD46D1
:104C400080BD00BF003C02400038024060D3000835
:104C500000000020040000202DE9B04F94B000AF08
:104C600000237B640023FB6400233B640023BB64BC
:104C7000794B9B6803F00C03082B0DD0082B00F236
:104C8000E180002B02D0042B03D0DBE0734BBB642C
:104C9000DBE0734BBB64D8E06F4B5B6803F03F0312
:104CA0007B646D4B5B6803F48003002B63D06A4B1D
:104CB0005B689B090022BB63FA63BB6BC3F3080309
:104CC0003B6300237B63D7E90C4522462B464FF01C
:104CD00000004FF00001590141EAD2615001024643
:104CE0000B462146511A3961294663EB01037B616A
:104CF0004FF000024FF00003D7E904AB59468B0197
:104D0000514643EA916351468A015146B2EB01088C
:104D1000594663EB01094FF000024FF000034FEAE0
:104D2000C90343EA58734FEAC8029046994623469E
:104D300018EB0303BB602B4649EB0303FB604FF00A
:104D400000024FF00003D7E9024529464B022146F5
:104D500043EAD15321464A02104619467B6C002291
:104D6000BB62FA62D7E90A23FBF7B0FE02460B46A4
:104D70001346FB6458E0384B5B689B0900221846D9
:104D80001146C0F308033B6200237B62D7E9088920
:104D900042464B464FF000004FF00001590141EAF6
:104DA000D261500102460B464146B2EB010A494628
:104DB00063EB010B4FF000024FF000034FEA8B133F
:104DC00043EA9A634FEA8A12B2EB0A0463EB0B05DB
:104DD0004FF000024FF00003EB0043EA5473E2008F
:104DE00014461D464346E3183B604B4645EB030320
:104DF0007B604FF000024FF00003D7E900452946E1
:104E00008B02214643EA915321468A0210461946F5
:104E10007B6C0022BB61FA61D7E90623FBF756FEE3
:104E200002460B461346FB640B4B5B681B0C03F0FE
:104E3000030301335B003B64FA6C3B6CB2FBF3F39E
:104E4000BB6402E0054BBB6400BFBB6C1846503727
:104E5000BD46BDE8B08F00BF003802400024F4001A
:104E600000127A0080B400AF034B1B681846BD46A1
:104E70005DF8047B704700BF0000002080B500AFE4
:104E8000FFF7F0FF0246054B9B689B0A03F0070300
:104E90000349CB5C22FA03F3184680BD0038024078
:104EA00070D3000880B483B000AF786039607B684D
:104EB0000F221A60124B9B6803F003027B685A6052
:104EC0000F4B9B6803F0F0027B689A600C4B9B6869
:104ED00003F4E0527B68DA60094B9B68DB0803F45B
:104EE000E0527B681A61074B1B6803F007023B68BE
:104EF0001A6000BF0C37BD465DF8047B704700BFE9
:104F000000380240003C024080B582B000AF7860BB
:104F10007B68002B01D1012341E07B6893F83D3091
:104F2000DBB2002B06D17B68002283F83C20786836
:104F3000FCF730FF7B68022283F83D207B681A680B
:104F40007B6804331946104600F02CFD7B68012273
:104F500083F846207B68012283F83E207B6801228B
:104F600083F83F207B68012283F840207B68012280
:104F700083F841207B68012283F842207B6801226C
:104F800083F843207B68012283F844207B68012258
:104F900083F845207B68012283F83D2000231846D2
:104FA0000837BD4680BD000080B485B000AF786092
:104FB0007B6893F83D30DBB2012B01D0012346E042
:104FC0007B68022283F83D207B681B68234A93425A
:104FD00022D07B681B68B3F1804F1DD07B681B68B3
:104FE0001F4A934218D07B681B681E4A934213D015
:104FF0007B681B681C4A93420ED07B681B681B4A67
:10500000934209D07B681B68194A934204D07B689D
:105010001B68184A934211D17B681B689B6803F098
:105020000703FB60FB68062B10D07B681B681A68BF
:105030007B681B6842F001021A6007E07B681B680E
:105040001A687B681B6842F001021A600023184648
:105050001437BD465DF8047B704700BF0000014077
:105060000004004000080040000C00400004014023
:10507000004001400018004080B485B000AF786067
:105080007B6893F83D30DBB2012B01D001234EE069
:105090007B68022283F83D207B681B68DA687B68A6
:1050A0001B6842F00102DA607B681B68234A934266
:1050B00022D07B681B68B3F1804F1DD07B681B68D2
:1050C0001F4A934218D07B681B681E4A934213D034
:1050D0007B681B681C4A93420ED07B681B681B4A86
:1050E000934209D07B681B68194A934204D07B68BD
:1050F0001B68184A934211D17B681B689B6803F0B8
:105100000703FB60FB68062B10D07B681B681A68DE
:105110007B681B6842F001021A6007E07B681B682D
:105120001A687B681B6842F001021A600023184667
:105130001437BD465DF8047B704700BF0000014096
:105140000004004000080040000C00400004014042
:10515000004001400018004080B582B000AF786088
:105160007B68002B01D1012341E07B6893F83D303F
:10517000DBB2002B06D17B68002283F83C207868E4
:10518000FCF74AFD7B68022283F83D207B681A68A1
:105190007B6804331946104600F004FC7B6801224A
:1051A00083F846207B68012283F83E207B68012239
:1051B00083F83F207B68012283F840207B6801222E
:1051C00083F841207B68012283F842207B6801221A
:1051D00083F843207B68012283F844207B68012206
:1051E00083F845207B68012283F83D200023184680
:1051F0000837BD4680BD000080B584B000AF786040
:1052000039603B68002B09D17B6893F83E30DBB2F4
:10521000012B14BF01230023DBB222E03B68042BE7
:1052200009D17B6893F83F30DBB2012B14BF012317
:105230000023DBB215E03B68082B09D17B6893F8AB
:105240004030DBB2012B14BF01230023DBB208E0A6
:105250007B6893F84130DBB2012B14BF012300239C
:10526000DBB2002B01D001237CE03B68002B04D192
:105270007B68022283F83E2013E03B68042B04D1B4
:105280007B68022283F83F200BE03B68082B04D1A7
:105290007B68022283F8402003E07B68022283F8C7
:1052A00041207B681B6801223968184600F0D0FD58
:1052B0007B681B682D4A934204D07B681B682C4A8C
:1052C000934201D1012300E00023002B07D07B682B
:1052D0001B685A6C7B681B6842F400425A647B6806
:1052E0001B68224A934222D07B681B68B3F1804F2F
:1052F0001DD07B681B681F4A934218D07B681B68CF
:105300001D4A934213D07B681B681C4A93420ED0FF
:105310007B681B68164A934209D07B681B68184A51
:10532000934204D07B681B68164A934211D17B6874
:105330001B689B6803F00703FB60FB68062B10D01B
:105340007B681B681A687B681B6842F001021A6060
:1053500007E07B681B681A687B681B6842F00102E3
:105360001A60002318461037BD4680BD000001407A
:10537000000401400004004000080040000C004010
:10538000004001400018004080B586B000AF786052
:1053900039607B68002B01D1012397E07B6893F88B
:1053A0003D30DBB2002B06D17B68002283F83C2025
:1053B0007868FCF753FC7B68022283F83D207B6809
:1053C0001B689B687A68126823F4804323F0070304
:1053D00093607B681A687B6804331946104600F0B6
:1053E000E1FA7B681B689B687B617B681B689B6933
:1053F0003B617B681B681B6AFB603B681B687A69C2
:1054000013437B613B6923F4407323F003033B6147
:105410003B689A683B689B691B0213433A691343D4
:105420003B613B6923F4406323F00C033B613B6920
:1054300023F4704323F0F0033B613B68DA683B6878
:10544000DB691B0213433A6913433B613B681B69E9
:105450001A013B681B6A1B0313433A6913433B6100
:10546000FB6823F02203FB60FB6823F08803FB60EA
:105470003B685A683B685B691B011343FA68134336
:10548000FB607B681B687A699A607B681B683A6975
:105490009A617B681B68FA681A627B68012283F84C
:1054A00046207B68012283F83E207B68012283F836
:1054B0003F207B68012283F842207B68012283F829
:1054C00043207B68012283F83D20002318461837CB
:1054D000BD4680BD80B584B000AF786039607B6820
:1054E00093F83E30FB737B6893F83F30BB737B6867
:1054F00093F842307B737B6893F843303B733B688F
:10550000002B10D1FB7B012B02D17B7B012B01D027
:10551000012369E07B68022283F83E207B68022237
:1055200083F8422031E03B68042B10D1BB7B012B78
:1055300002D13B7B012B01D0012355E07B68022285
:1055400083F83F207B68022283F843201DE0FB7B29
:10555000012B08D1BB7B012B05D17B7B012B02D119
:105560003B7B012B01D001233EE07B68022283F8C4
:105570003E207B68022283F83F207B68022283F86A
:1055800042207B68022283F843203B68002B03D033
:105590003B68042B08D00FE07B681B6801220021C8
:1055A000184600F055FC16E07B681B6801220421B8
:1055B000184600F04DFC0EE07B681B6801220021BC
:1055C000184600F045FC7B681B6801220421184640
:1055D00000F03EFC00BF7B681B681A687B681B6894
:1055E00042F001021A60002318461037BD4680BD04
:1055F00080B584B000AF78607B681B68DB68FB60B7
:105600007B681B681B69BB60BB6803F00203002B4F
:1056100020D0FB6803F00203002B1BD07B681B68C3
:105620006FF002021A617B6801221A777B681B689F
:105630009B6903F00303002B03D0786800F094F912
:1056400005E0786800F086F9786800F097F97B68E3
:1056500000221A77BB6803F00403002B20D0FB68FC
:1056600003F00403002B1BD07B681B686FF004025F
:105670001A617B6802221A777B681B689B6903F4B6
:105680004073002B03D0786800F06EF905E078686D
:1056900000F060F9786800F071F97B6800221A77F1
:1056A000BB6803F00803002B20D0FB6803F008035D
:1056B000002B1BD07B681B686FF008021A617B68A7
:1056C00004221A777B681B68DB6903F00303002B55
:1056D00003D0786800F048F905E0786800F03AF9FE
:1056E000786800F04BF97B6800221A77BB6803F0FA
:1056F0001003002B20D0FB6803F01003002B1BD0FD
:105700007B681B686FF010021A617B6808221A77A9
:105710007B681B68DB6903F44073002B03D0786857
:1057200000F022F905E0786800F014F9786800F0DC
:1057300025F97B6800221A77BB6803F00103002B70
:105740000CD0FB6803F00103002B07D07B681B68BB
:105750006FF001021A617868FBF7EEFEBB6803F098
:105760008003002B0CD0FB6803F08003002B07D0D4
:105770007B681B686FF080021A61786800F066FC35
:10578000BB6803F04003002B0CD0FB6803F0400320
:10579000002B07D07B681B686FF040021A617868A5
:1057A00000F0F6F8BB6803F02003002B0CD0FB6878
:1057B00003F02003002B07D07B681B686FF02002EA
:1057C0001A61786800F038FC00BF1037BD4680BD14
:1057D00080B586B000AFF860B9607A600023FB75D1
:1057E000FB6893F83C30012B01D10223AEE0FB684B
:1057F000012283F83C207B680C2B00F29F8001A2E1
:1058000052F823F0395800083D5900083D59000866
:105810003D590008795800083D5900083D590008D5
:105820003D590008BB5800083D5900083D59000883
:105830003D590008FB580008FB681B68B96818460A
:1058400000F056F9FB681B689A69FB681B6842F018
:1058500008029A61FB681B689A69FB681B6822F062
:1058600004029A61FB681B689969BB681A69FB6846
:105870001B680A439A6164E0FB681B68B9681846B4
:1058800000F0A6F9FB681B689A69FB681B6842F484
:1058900000629A61FB681B689A69FB681B6822F4C6
:1058A00080629A61FB681B689969BB681B691A0270
:1058B000FB681B680A439A6143E0FB681B68B96890
:1058C000184600F0FBF9FB681B68DA69FB681B6887
:1058D00042F00802DA61FB681B68DA69FB681B6842
:1058E00022F00402DA61FB681B68D969BB681A6997
:1058F000FB681B680A43DA6123E0FB681B68B96830
:10590000184600F04FFAFB681B68DA69FB681B68F1
:1059100042F40062DA61FB681B68DA69FB681B68A5
:1059200022F48062DA61FB681B68D969BB681B6975
:105930001A02FB681B680A43DA6102E00123FB7567
:1059400000BFFB68002283F83C20FB7D1846183717
:10595000BD4680BD80B483B000AF786000BF0C3717
:10596000BD465DF8047B704780B483B000AF7860BB
:1059700000BF0C37BD465DF8047B704780B483B030
:1059800000AF786000BF0C37BD465DF8047B704700
:1059900080B483B000AF786000BF0C37BD465DF8BF
:1059A000047B704780B485B000AF786039607B6855
:1059B0001B68FB607B68434A934213D07B68B3F15A
:1059C000804F0FD07B68404A93420BD07B683F4AA0
:1059D000934207D07B683E4A934203D07B683D4A9E
:1059E000934208D1FB6823F07003FB603B685B685F
:1059F000FA681343FB607B68324A93422BD07B6882
:105A0000B3F1804F27D07B682F4A934223D07B6825
:105A10002E4A93421FD07B682D4A93421BD07B684D
:105A20002C4A934217D07B682B4A934213D07B6851
:105A30002A4A93420FD07B68294A93420BD07B6855
:105A4000284A934207D07B68274A934203D07B6859
:105A5000264A934208D1FB6823F44073FB603B68FD
:105A6000DB68FA681343FB60FB6823F080023B6845
:105A70005B691343FB603B689A687B68DA623B684A
:105A80001A687B689A627B680E4A934203D07B68EF
:105A9000104A934203D13B681A697B681A637B689A
:105AA0001B6843F004027B681A607B6801225A611C
:105AB0007B68FA681A6000BF1437BD465DF8047B46
:105AC000704700BF00000140000400400008004093
:105AD000000C00400004014000400140004401402F
