:020000040800F2
:1000000000000220A11500080915000811150008BC
:100010001915000821150008291500080000000026
:1000200000000000000000000000000001B0000817
:10003000311500080000000051B20008AD8800082A
:10004000F1150008F1150008F1150008F115000878
:10005000F1150008F1150008F1150008F115000868
:10006000F1150008F1150008F1150008F115000858
:10007000F1150008F1150008F1150008F115000848
:10008000F1150008F1150008F1150008F115000838
:10009000F1150008F1150008F1150008F115000828
:1000A000F1150008F1150008F1150008F115000818
:1000B000F1150008F1150008F1150008F115000808
:1000C000F1150008F1150008F1150008F1150008F8
:1000D000F1150008F1150008F1150008F1150008E8
:1000E000F1150008F1150008F1150008F1150008D8
:1000F000F1150008F1150008F1150008F1150008C8
:10010000F1150008F1150008F1150008F1150008B7
:10011000F1150008F115000841150008F115000857
:1001200055150008F1150008F1150008F115000833
:10013000F1150008F1150008F1150008F115000887
:10014000F1150008F1150008F115000869150008FF
:10015000F1150008F1150008F1150008F115000867
:10016000F1150008F1150008F1150008F115000857
:10017000F1150008F1150008F11500080000000055
:08018000F1150008F11500085B
:1001900010B5054C237833B9044B13B10448AFF3C1
:1001A00000800123237010BD5001002000000000DA
:1001B00004C4000808B5034B1BB103490348AFF35F
:1001C000008008BD000000005401002004C40008A5
:1001D00053B94AB9002908BF00281CBF4FF0FF31AE
:1001E0004FF0FF3000F088B9ADF1080C6DE904CE96
:1001F00000F006F8DDF804E0DDE9022304B0704702
:100200002DE9F047089D8E4604468846002B4AD1CA
:100210008A42174662D9B2FA82F64EB1C6F120037D
:1002200001FA06F820FA03F3B74043EA0808B4409D
:100230004FEA174E1FFA87FCB8FBFEF1230C0EFBAA
:10024000118843EA084301FB0CF29A4209D9FB18D2
:1002500001F1FF3080F0EA809A4240F2E7800239F3
:100260003B449A1AA3B2B2FBFEF00EFB102243EA03
:10027000024300FB0CFC9C4509D9FB1800F1FF323E
:1002800080F0D6809C4540F2D3803B44023840EA5F
:100290000140A3EB0C0300211DB1F3400022C5E98E
:1002A0000032BDE8F0878B4205D90DB1C5E90001E8
:1002B00000210846F5E7B3FA83F1002946D17345DA
:1002C00002D3824200F20581841A6EEB0302012000
:1002D0009046002DE5D0C5E90048E2E7002A00F08D
:1002E0009080B2FA82F6002E40F0A4808A1A030CA5
:1002F0004FEA174E80B2BCB20121B2FBFEFC0EFBEE
:100300001C2243EA024304FB0CF29A4207D9FB1871
:100310000CF1FF3802D29A4200F2E080C4469B1AE8
:10032000B3FBFEF20EFB123340EA034302FB04F47C
:100330009C4207D9FB1802F1FF3002D29C4200F226
:10034000CA8002461B1B42EA0C40A5E7C1F1200609
:100350008B4022FA06F71F430EFA01F420FA06F347
:100360002EFA06FE4FEA1749234300FA01F81FFA56
:1003700087FCBEFBF9F01C0C09FB10EE44EA0E44AE
:1003800000FB0CFEA64502FA01F209D93C1900F166
:10039000FF3A80F09C80A64540F2998002383C44A8
:1003A000A4EB0E041FFA83FEB4FBF9F309FB13441C
:1003B0004EEA044403FB0CFCA44508D93C1903F1A4
:1003C000FF3E80F08280A4457FD9023B3C4443EA53
:1003D0000040A4EB0C04A0FB02EC64457346E1462C
:1003E00062D35FD05DB1B8EB030264EB090404FA99
:1003F00006F622FA01F31E43CC40C5E90064002151
:100400004FE7B1FBF2FC010C41EA0E4180B240EA39
:1004100001423B4638463C46B846BE462026B1FB24
:10042000F7F1A2EB080241EA0C4166E7014618E742
:1004300010462CE7C6F120022EFA02F3B740B14075
:1004400020FA02F24FEA174E0A43B3FBFEF8BCB2A1
:100450000EFB1833110C41EA034108FB04F9B040CC
:1004600089454FEA104380B23ED9791808F1FF3C24
:1004700001D289451FD8A1EB0901B1FBFEF909FBA7
:1004800004F80EFB191192B242EA0142424529D208
:10049000BA1809F1FF31C4D24245C2D2A9F1020112
:1004A0003A44BEE7F0459DD2BEEB02036CEB070C6D
:1004B0000138E14696E7A7EB09094944A8F1020C87
:1004C000B1FBFEF909FB04F8DBE773467FE7504612
:1004D00066E70846FDE63B44023A33E7ACF1020C1E
:1004E0003B441CE749469CE7A1EB0901C446B1FB2C
:1004F000FEF909FB04F8C4E7704700BF00000000E4
:10050000F0B5ADF22C4D2AAF01F074F800F05EF9B1
:1005100000F028FC00F006FC00F0CEFB00F024FB0D
:1005200000F026FA00F074FB00F0CAFA00F0B6F909
:1005300007F56073A3F59E7318462C231A46002115
:100540000BF070FE07F56073A3F59E73964A1A6070
:1005500007F56073A3F59E730D225A6007F560736B
:10056000A3F5B47318462C231A4600210BF05AFE4B
:1005700007F56073A3F5B4738B4A1A6007F56073CF
:10058000A3F5B4730E225A6007F56073A3F5CA731E
:1005900018462C231A4600210BF044FE07F5607321
:1005A000A3F5E07318462C231A4600210BF03AFEFF
:1005B00007F56073A3F5887C07F56073A3F59E7655
:1005C0000023299307F56073A3F5E0731EAC1D4665
:1005D0000FCD0FC40FCD0FC495E8070084E80700C6
:1005E00007F56073A3F5CA7313AC1D460FCD0FC496
:1005F0000FCD0FC495E8070084E8070007F5607386
:10060000A3F5B47308AC1D460FCD0FC40FCD0FC4B6
:1006100095E8070084E807006D4606F10C040FCC4E
:100620000FC594E80F0085E80F0096E80E009FEDD7
:10063000582B9FED591B9FED5A0B604600F05CFC58
:1006400007F56073A3F53F7318462C231A46002163
:100650000BF0E8FD07F56073A3F53F73524A1A608B
:1006600007F56073A3F53F7309225A6007F56073BD
:10067000A3F54A7318462C231A4600210BF0D2FD2D
:1006800007F56073A3F54A73474A1A6007F560736C
:10069000A3F54A730B225A6007F56073A3F55573EF
:1006A00018462C231A4600210BF0BCFD07F5607399
:1006B000A3F5607318462C231A4600210BF0B2FDF7
:1006C00007F56073A3F5347C07F56073A3F53F76F7
:1006D0000023299307F56073A3F560731EAC1D46D4
:1006E0000FCD0FC40FCD0FC495E8070084E80700B5
:1006F00007F56073A3F5557313AC1D460FCD0FC4FA
:100700000FCD0FC495E8070084E8070007F5607374
:10071000A3F54A7308AC1D460FCD0FC40FCD0FC40F
:1007200095E8070084E807006D4606F10C040FCC3D
:100730000FC594E80F0085E80F0096E80E009FEDC6
:10074000142B9FED151B9FED160B604600F0D4FB9C
:1007500008F0C6F8154A0B21082008F0E5F9034611
:10076000134A1360134A0021134808F003F90346A3
:10077000124A1360124A0021124808F0FBF803469F
:10078000114A136008F0D0F800BFFDE7AFF3008016
:10079000000000000000F03F000000000000E03F0B
:1007A0009A9999999999B93F00100240E8C40008B4
:1007B000D4080020A0C40008590E00087C030020C3
:1007C000C4C40008A90E00082806002080B594B013
:1007D00000AF07F120033022002118460BF022FD64
:1007E00007F10C0300221A605A609A60DA601A61FD
:1007F0000023BB60274B1B6C264A43F080531364D5
:10080000244B1B6C03F08053BB60BB6800237B60F0
:10081000214B1B68204A43F4804313601E4B1B6826
:1008200003F480437B607B6801233B624FF4803399
:100830007B620223BB634FF48003FB6304233B64AE
:1008400048237B640223BB640323FB6407F120037A
:10085000184603F085F90346002B01D000F046FB53
:100860000F23FB6002233B6100237B614FF4805325
:10087000BB610023FB6107F10C030221184603F062
:10088000E7FB0346002B01D000F030FB00BF5037E0
:10089000BD4680BD003802400070004080B584B085
:1008A00000AF3B4600221A605A609A60DA602D4B16
:1008B0002D4A1A602B4B00225A602A4B00229A6064
:1008C000284B01221A61274B00221A76254B002261
:1008D00083F82020234B0022DA62224B234A9A62BB
:1008E000204B0022DA601F4B0322DA611D4B0022ED
:1008F00083F830201B4B01225A611A4800F0E0FEB9
:100900000346002B01D000F0F1FA03233B600123E2
:100910007B600023BB603B461946124800F014FF81
:100920000346002B01D000F0E1FA02237B603B4636
:1009300019460C4800F008FF0346002B01D000F0D8
:10094000D5FA03237B603B461946064800F0FCFEBF
:100950000346002B01D000F0C9FA00BF1037BD4696
:1009600080BD00BF6C010020002001400100000F8D
:1009700080B592B000AF07F1400300221A605A60C0
:1009800007F1240300221A605A609A60DA601A6143
:100990005A619A613B1D2022002118460BF042FC4F
:1009A000454B464A1A60444B00225A60424B602233
:1009B0009A60414B40F28162DA603F4B00221A613B
:1009C0003D4B00225A613C4B00229A613A4803F0A9
:1009D0003DFE0346002B01D000F088FA00233B6463
:1009E00000237B6407F140031946334804F054FBAD
:1009F0000346002B01D000F079FA60237B620023CC
:100A0000BB620023FB6200233B6300237B63002364
:100A1000BB630023FB6307F1240300221946264829
:100A200003F0FAFF0346002B01D000F05FFA07F154
:100A3000240304221946204803F0EEFF0346002B4E
:100A400001D000F053FA07F12403082219461A488E
:100A500003F0E2FF0346002B01D000F047FA07F154
:100A600024030C221946144803F0D6FF0346002B3A
:100A700001D000F03BFA00237B600023BB60002321
:100A8000FB6000233B6100237B614FF40053BB619B
:100A900000233B623B1D1946074804F079FB0346DF
:100AA000002B01D000F022FA034800F077FC00BFD1
:100AB0004837BD4680BD00BF140200200000014041
:100AC00080B58CB000AF07F10C032422002118463A
:100AD0000BF0A8FB3B1D00221A605A60214B4FF01F
:100AE00080421A601F4B00225A601E4B00229A60FF
:100AF0001C4B4FF0FF32DA601A4B00221A61194B7F
:100B000000229A610123FB6000233B6101237B618A
:100B10000023BB610023FB6100233B6201237B6256
:100B20000023BB620023FB6207F10C0319460D484A
:100B300003F0DBFD0346002B01D000F0D7F90023C2
:100B40007B600023BB603B1D1946064804F0A4FAF5
:100B50000346002B01D000F0C9F900BF3037BD4675
:100B600080BD00BF5C02002080B58CB000AF07F1F3
:100B70000C032422002118460BF054FB3B1D0022DD
:100B80001A605A60204B214A1A601F4B00225A609B
:100B90001D4B00229A601C4B4FF6FF72DA601A4B15
:100BA00000221A61184B00229A610123FB60002386
:100BB0003B6101237B610023BB610023FB610023B8
:100BC0003B6201237B620023BB620023FB6207F1CF
:100BD0000C0319460C4803F088FD0346002B01D096
:100BE00000F084F900237B600023BB603B1D1946A5
:100BF000054804F051FA0346002B01D000F076F9C5
:100C000000BF3037BD4680BDA40200200004004074
:100C100080B58CB000AF07F10C03242200211846E8
:100C20000BF000FB3B1D00221A605A60204B214A4A
:100C30001A601F4B00225A601D4B00229A601C4B09
:100C40004FF6FF72DA601A4B00221A61184B00222D
:100C50009A610323FB6000233B6101237B61002336
:100C6000BB610023FB6100233B6201237B62002305
:100C7000BB620023FB6207F10C0319460C4803F02A
:100C800034FD0346002B01D000F030F900237B60D7
:100C90000023BB603B1D1946054804F0FDF90346DF
:100CA000002B01D000F022F900BF3037BD4680BDD7
:100CB000EC0200200008004080B582B000AF3B4647
:100CC00000221A605A60154B154A1A60134B3122E4
:100CD0005A60124B00229A60104B4FF6FF72DA6096
:100CE0000E4B00229A610D4803F0F0FB0346002BE7
:100CF00001D000F0FBF800233B6000237B603B4603
:100D00001946064804F0C8F90346002B01D000F04C
:100D1000EDF800BF0837BD4680BD00BF340300209A
:100D20000014004080B582B000AF00237B600C4B04
:100D30001B6B0B4A43F480031363094B1B6B03F4D7
:100D400080037B607B6800220521382000F0D2FF01
:100D5000382000F0EBFF00BF0837BD4680BD00BF64
:100D60000038024080B58CB000AF07F11C030022B0
:100D70001A605A609A60DA601A610023BB61344BD2
:100D80001B6B334A43F080031363314B1B6B03F03F
:100D90008003BB61BB6900237B612D4B1B6B2C4A1D
:100DA00043F0010313632A4B1B6B03F001037B61C8
:100DB0007B6900233B61264B1B6B254A43F01003E4
:100DC0001363234B1B6B03F010033B613B69002350
:100DD000FB601F4B1B6B1E4A43F0080313631C4B45
:100DE0001B6B03F00803FB60FB680023BB60184B20
:100DF0001B6B174A43F004031363154B1B6B03F083
:100E00000403BB60BB6800237B60114B1B6B104A63
:100E100043F0020313630E4B1B6B03F002037B6072
:100E20007B680022C0210B4801F014FCC023FB6149
:100E300001233B6200237B620023BB6207F11C039A
:100E40001946044801F06AFA00BF3037BD4680BD3C
:100E5000003802400000024080B582B000AF7860E8
:100E60000AF0AAFC012280210D4801F0F3FB0D4B92
:100E70005B78DBB2012B05D100228021084801F00C
:100E8000E9FB09E0074B5B78DBB2022B04D10122BE
:100E90008021034801F0DEFB3C2007F018FEE6E766
:100EA00000000240C809002080B582B000AF786021
:100EB0004021044801F0E7FB4FF4FA7007F0ECFD25
:100EC00000BFF5E70000024080B582B000AF786057
:100ED0007B681B68044A934201D100F0ADFB00BF60
:100EE0000837BD4680BD00BF0010004080B400AF91
:100EF00072B600BF00BFFDE784B0B0B5CCB000AFA4
:100F000007F59874A4F58A74206007F5A27080E84C
:100F10000E0007F1100383ED000B07F1100303ED42
:100F2000021B3B4683ED002B07F59873A3F58871F0
:100F300007F11003D3E90023C1E9022307F59873F1
:100F4000A3F588713B46D3E90023C1E9062307F5E1
:100F50009873A3F5887107F1100353E90223C1E9DF
:100F6000042307F59873A3F58873D7F8F421DA649E
:100F700007F59873A3F5887303F15C0407F5A27570
:100F80000FCD0FC40FCD0FC495E8070084E807000C
:100F900007F59873A3F5887303F1880407F5B8750E
:100FA0000FCD0FC40FCD0FC495E8070084E80700EC
:100FB00007F59873A3F5887303F1B40407F5CE75AC
:100FC0000FCD0FC40FCD0FC495E8070084E80700CC
:100FD00007F59873A3F5887303F1E00407F5E4754A
:100FE0000FCD0FC40FCD0FC495E8070084E80700AC
:100FF00007F59873A3F58A731A6807F59873A3F534
:101000008873104619464FF488731A460BF096F908
:1010100007F59873A3F58A73186807F59877BD46A6
:10102000BDE8B04004B0704780B582B000AF002387
:101030007B60124B5B6C114A43F4804353640F4B4B
:101040005B6C03F480437B607B6800233B600B4B4D
:101050001B6C0A4A43F080531364084B1B6C03F06B
:1010600080533B603B6800220F216FF0010000F0CD
:1010700041FE00BF0837BD4680BD00BF00380240BA
:1010800080B58AB000AF786007F1140300221A60BF
:101090005A609A60DA601A617B681B682F4A934233
:1010A00057D100233B612E4B5B6C2D4A43F4807378
:1010B00053642B4B5B6C03F480733B613B690023EF
:1010C000FB60274B1B6B264A43F001031363244B41
:1010D0001B6B03F00103FB60FB6818237B61032398
:1010E000BB610023FB6107F1140319461D4801F0A1
:1010F00015F91D4B1D4A1A601B4B00225A601A4BF2
:1011000000229A60184B0022DA60174B4FF480627D
:101110001A61154B4FF400625A61134B4FF40052A1
:101120009A61114B4FF48072DA610F4B00221A6200
:101130000D4B00225A620C4800F006FE0346002BBD
:1011400001D0FFF7D3FE7B68074A9A63064A7B68A3
:10115000936300BF2837BD4680BD00BF002001401B
:101160000038024000000240B40100201064024038
:1011700080B485B000AF78607B681B680B4A9342EF
:101180000DD10023FB600A4B5B6C094A43F001035D
:101190005364074B5B6C03F00103FB60FB6800BF0B
:1011A0001437BD465DF8047B704700BF0000014066
:1011B0000038024080B58EB000AF786007F124039C
:1011C00000221A605A609A60DA601A617B681B68B4
:1011D000B3F1804F4AD100233B62584B1B6C574AF6
:1011E00043F001031364554B1B6C03F001033B6296
:1011F0003B6A0023FB61514B1B6B504A43F00103D8
:1012000013634E4B1B6B03F00103FB61FB6900236F
:10121000BB614A4B1B6B494A43F002031363474BC4
:101220001B6B03F00203BB61BB6920237B620223BB
:10123000BB620023FB6200233B6301237B6307F156
:10124000240319463E4801F069F808237B62022313
:10125000BB620023FB6200233B6301237B6307F136
:1012600024031946374801F059F863E07B681B688E
:10127000354A93422CD100237B61304B1B6C2F4AA3
:1012800043F0020313642D4B1B6C03F002037B61DC
:101290007B6900233B61294B1B6B284A43F0040305
:1012A0001363264B1B6B03F004033B613B69C023B4
:1012B0007B620223BB620023FB6200233B630223A9
:1012C0007B6307F124031946204801F027F831E039
:1012D0007B681B681E4A93422CD10023FB60174B8E
:1012E0001B6C164A43F004031364144B1B6C03F08D
:1012F0000403FB60FB680023BB60104B1B6B0F4AB1
:1013000043F0080313630D4B1B6B03F00803BB6032
:10131000BB684FF440537B620223BB620023FB6235
:1013200000233B6302237B6307F12403194609482A
:1013300000F0F4FF00BF3837BD4680BD00380240E2
:101340000000024000040240000400400008024087
:1013500000080040000C024080B485B000AF786007
:101360007B681B680B4A93420DD10023FB600A4B3C
:101370001B6C094A43F020031364074B1B6C03F0FA
:101380002003FB60FB6800BF1437BD465DF8047B9B
:10139000704700BF001400400038024080B588B09C
:1013A00000AF786007F10C0300221A605A609A605F
:1013B000DA601A617B681B68124A93421ED10023CF
:1013C000BB60114B1B6B104A43F0100313630E4BB1
:1013D0001B6B03F01003BB60BB684FF4D443FB608E
:1013E00002233B6100237B610023BB610123FB617E
:1013F00007F10C031946054800F090FF00BF2037A5
:10140000BD4680BD0000014000380240001002408F
:1014100080B58EB000AF78600023FB620023BB6212
:101420000023FB60334B1B6C324A43F01003136400
:10143000304B1B6C03F01003FB60FB6807F11002DC
:1014400007F114031146184603F00EF83B6AFB62DD
:10145000FB6A002B03D102F0F3FF786304E002F093
:10146000EFFF03465B007B637B6B234AA2FB0323F6
:101470009B0C013BBB62214B214A1A601F4B40F27F
:10148000E732DA601D4ABB6A53601C4B00221A61C6
:101490001A4B00229A60194B00229A61174803F0F8
:1014A00015F8034687F8333097F83330002B1BD1FB
:1014B000124803F05BF8034687F8333097F833306F
:1014C000002B11D1362000F031FC7B680F2B08D89F
:1014D00000227968362000F00DFC0A4A7B68136010
:1014E00002E0012387F8333097F833301846383755
:1014F000BD4680BD0038024083DE1B4380090020CA
:10150000001000400400002080B400AF00BFFDE7E1
:1015100080B400AF00BFFDE780B400AF00BFFDE7BF
:1015200080B400AF00BFFDE780B400AF00BFFDE7AF
:1015300080B400AF00BFBD465DF8047B704700007B
:1015400080B500AF024803F076F900BF80BD00BF50
:101550008009002080B500AF024800F0A3FC00BF66
:1015600080BD00BFB401002080B500AF024801F08B
:10157000E8F900BF80BD00BFE468002080B400AF80
:10158000064BD3F88830054A43F47003C2F888301C
:1015900000BFBD465DF8047B704700BF00ED00E072
:1015A000DFF834D0FFF7EAFF0C480D490D4A00235D
:1015B00002E0D458C4500433C4188C42F9D30A4A08
:1015C0000A4C002301E013600432A242FBD30AF06C
:1015D0008FFEFEF795FF70470000022000000020FC
:1015E0005001002030C50008500100202871002063
:1015F000FEE7000080B500AF0E4B1B680D4A43F4B8
:10160000007313600B4B1B680A4A43F4806313603A
:10161000084B1B68074A43F480731360032000F0F3
:101620005EFB0F20FFF7F4FEFFF7FEFC00231846D9
:1016300080BD00BF003C024080B400AF064B1B7869
:101640001A46064B1B681344044A136000BFBD468C
:101650005DF8047B704700BF08000020180A0020D6
:1016600080B400AF034B1B681846BD465DF8047B91
:10167000704700BF180A002080B584B000AF7860C2
:10168000FFF7EEFFB8607B68FB60FB68B3F1FF3FDC
:1016900005D00A4B1B781A46FB681344FB6000BF59
:1016A000FFF7DEFF0246BB68D31AFA689A42F7D802
:1016B00000BF00BF1037BD4680BD00BF080000203E
:1016C00080B584B000AF78600023FB737B68002B8B
:1016D00001D1012333E07B681B6C002B09D17868B2
:1016E000FFF7CEFC7B6800225A647B68002283F8F7
:1016F0003C207B681B6C03F01003002B18D17B6827
:101700001B6C23F4885323F0020343F002027B682E
:101710001A64786800F03AF97B6800225A647B68A2
:101720001B6C23F0030343F001027B681A6401E0A1
:101730000123FB737B68002283F83C20FB7B184667
:101740001037BD4680BD000080B485B000AF786022
:1017500039600023BB607B6893F83C30012B01D1DA
:10176000022305E17B68012283F83C203B681B686B
:10177000092B25D97B681B68D9683B681B689BB21D
:101780001A4613465B0013441E3B072202FA03F37A
:10179000DA437B681B680A40DA607B681B68D9689B
:1017A0003B689A683B681B689BB2184603465B001F
:1017B00003441E3B9A407B681B680A43DA6022E0C0
:1017C0007B681B6819693B681B689BB21A46134605
:1017D0005B001344072202FA03F3DA437B681B68B9
:1017E0000A401A617B681B6819693B689A683B6804
:1017F0001B689BB2184603465B0003449A407B6813
:101800001B680A431A613B685B68062B24D87B6817
:101810001B68596B3B685A6813469B001344053B91
:101820001F2202FA03F3DA437B681B680A405A63FB
:101830007B681B68596B3B681B689BB218463B680A
:101840005A6813469B001344053B00FA03F27B6879
:101850001B680A435A634CE03B685B680C2B24D836
:101860007B681B68196B3B685A6813469B001344DE
:10187000233B1F2202FA03F3DA437B681B680A400A
:101880001A637B681B68196B3B681B689BB2184620
:101890003B685A6813469B001344233B00FA03F24B
:1018A0007B681B680A431A6323E07B681B68D96A5C
:1018B0003B685A6813469B001344413B1F2202FABF
:1018C00003F3DA437B681B680A40DA627B681B68B3
:1018D000D96A3B681B689BB218463B685A68134636
:1018E0009B001344413B00FA03F27B681B680A43E8
:1018F000DA62224BFB607B681B68214A934209D164
:101900003B681B68122B05D1FB685B6843F48002BF
:10191000FB685A607B681B68194A934223D13B6875
:101920001B68102B03D03B681B68112B1BD1FB6875
:101930005B6843F40002FB685A603B681B68102B2D
:1019400011D1104B1B68104AA2FB03239A0C1346BB
:101950009B0013445B00BB6002E0BB68013BBB60C3
:10196000BB68002BF9D17B68002283F83C20002360
:1019700018461437BD465DF8047B704700230140CC
:10198000002001400000002083DE1B4380B485B0AE
:1019900000AF7860794BFB60FB685B6823F44032F2
:1019A000FB685A60FB685A687B685B681A43FB688F
:1019B0005A607B681B685A687B681B6822F48072D7
:1019C0005A607B681B6859687B681B691A027B68D0
:1019D0001B680A435A607B681B685A687B681B68EF
:1019E00022F040725A607B681B6859687B689A686D
:1019F0007B681B680A435A607B681B689A687B682F
:101A00001B6822F400629A607B681B6899687B6897
:101A1000DA687B681B680A439A607B689B6A584A4D
:101A2000934222D07B681B689A687B681B6822F00F
:101A300070629A607B681B6899687B689A6A7B68A9
:101A40001B680A439A607B681B689A687B681B68FE
:101A500022F040529A607B681B6899687B68DA6A5A
:101A60007B681B680A439A600FE07B681B689A6872
:101A70007B681B6822F070629A607B681B689A68BA
:101A80007B681B6822F040529A607B681B689A68EA
:101A90007B681B6822F002029A607B681B68996869
:101AA0007B681B7E5A007B681B680A439A607B68D0
:101AB00093F82030002B1BD07B681B685A687B682A
:101AC0001B6842F400625A607B681B685A687B6836
:101AD0001B6822F460425A607B681B6859687B6807
:101AE0005B6A013B5A037B681B680A435A6007E044
:101AF0007B681B685A687B681B6822F400625A6026
:101B00007B681B68DA6A7B681B6822F47002DA6201
:101B10007B681B68D96A7B68DB69013B1A057B68B7
:101B20001B680A43DA627B681B689A687B681B68DB
:101B300022F400729A607B681B6899687B6893F84E
:101B400030305A027B681B680A439A607B681B68C6
:101B50009A687B681B6822F480629A607B681B68C5
:101B600099687B685B699A027B681B680A439A6084
:101B700000BF1437BD465DF8047B70470023014069
:101B80000100000F80B485B000AF78607B6803F07F
:101B90000703FB600C4BDB68BB60BA684FF6FF03C2
:101BA0001340BB60FB681A02BB68134343F0BF637A
:101BB00043F40033BB60044ABB68D36000BF1437F2
:101BC000BD465DF8047B704700ED00E080B400AFD7
:101BD000044BDB681B0A03F007031846BD465DF89B
:101BE000047B704700ED00E080B483B000AF034693
:101BF000FB7197F90730002B0BDBFB7903F01F0219
:101C0000074997F907305B09012000FA02F241F811
:101C1000232000BF0C37BD465DF8047B704700BF32
:101C200000E100E080B483B000AF03463960FB718F
:101C300097F90730002B0ADB3B68DAB20C4997F9B9
:101C400007301201D2B20B4483F800230AE03B684C
:101C5000DAB20849FB7903F00F03043B1201D2B258
:101C60000B441A7600BF0C37BD465DF8047B704705
:101C700000E100E000ED00E080B489B000AFF86062
:101C8000B9607A60FB6803F00703FB61FB69C3F18D
:101C90000703042B28BF0423BB61FB690433062B15
:101CA00002D9FB69033B00E000237B614FF0FF3268
:101CB000BB6902FA03F3DA43BB681A407B699A40B6
:101CC0004FF0FF317B6901FA03F3D9437B680B4086
:101CD000134318462437BD465DF8047B704780B532
:101CE00082B000AF78607868FFF74CFF00BF08371C
:101CF000BD4680BD80B586B000AF0346B9607A604E
:101D0000FB7300237B61FFF761FF78617A68B96834
:101D10007869FFF7B1FF024697F90F301146184670
:101D2000FFF780FF00BF1837BD4680BD80B582B089
:101D300000AF0346FB7197F907301846FFF754FFD1
:101D400000BF0837BD4680BD80B586B000AF786063
:101D500000237B61FFF784FC38617B68002B01D195
:101D6000012399E07B68022283F835207B680022FA
:101D700083F834207B681B681A687B681B6822F034
:101D800001021A600FE0FFF76BFC02463B69D31AB1
:101D9000052B08D97B6820225A657B68032283F8CB
:101DA0003520032378E07B681B681B6803F0010380
:101DB000002BE8D17B681B681B687B617A69384B14
:101DC00013407B617B685A687B689B681A437B6819
:101DD000DB681A437B681B691A437B685B691A439B
:101DE0007B689B691A437B68DB691A437B681B6AC3
:101DF00013437A6913437B617B685B6A042B07D1C9
:101E00007B68DA6A7B681B6B13437A6913437B61D7
:101E10007B681B687A691A607B681B685B697B61F9
:101E20007B6923F007037B617B685B6A7A691343F4
:101E30007B617B685B6A042B17D17B689B6A7A693C
:101E400013437B617B68DB6A002B0ED0786800F05F
:101E5000E9F90346002B08D07B6840225A657B686D
:101E6000012283F83520012316E07B681B687A691C
:101E70005A61786800F0A0F90346FB607B68DB6D6F
:101E80003F229A40FB689A607B6800225A657B6813
:101E9000012283F83520002318461837BD4680BD3F
:101EA0003F8010F080B586B000AF78600023BB6043
:101EB0008E4B1B688E4AA2FB03239B0A7B617B68C7
:101EC0009B6D3B613B691B68FB607B68DB6D082297
:101ED0009A40FB681340002B1AD07B681B681B6874
:101EE00003F00403002B13D07B681B681A687B681F
:101EF0001B6822F004021A607B68DB6D08229A409E
:101F00003B699A607B685B6D43F001027B685A65B0
:101F10007B68DB6D01229A40FB681340002B12D0D6
:101F20007B681B685B6903F08003002B0BD07B6828
:101F3000DB6D01229A403B699A607B685B6D43F0E0
:101F400002027B685A657B68DB6D04229A40FB685D
:101F50001340002B12D07B681B681B6803F0020340
:101F6000002B0BD07B68DB6D04229A403B699A60A2
:101F70007B685B6D43F004027B685A657B68DB6DB0
:101F800010229A40FB681340002B43D07B681B68EB
:101F90001B6803F00803002B3CD07B68DB6D10222C
:101FA0009A403B699A607B681B681B6803F4802336
:101FB000002B18D07B681B681B6803F40023002BE0
:101FC00008D17B681B6C002B24D07B681B6C786865
:101FD00098471FE07B689B6C002B1BD07B689B6C39
:101FE0007868984716E07B681B681B6803F4807369
:101FF000002B07D17B681B681A687B681B6822F07E
:1020000008021A607B681B6C002B03D07B681B6C7A
:10201000786898477B68DB6D20229A40FB68134004
:10202000002B00F08F807B681B681B6803F0100397
:10203000002B00F087807B68DB6D20229A403B6993
:102040009A607B6893F83530DBB2052B36D17B681C
:102050001B681A687B681B6822F016021A607B688E
:102060001B685A697B681B6822F080025A617B6892
:102070001B6C002B03D17B689B6C002B07D07B680B
:102080001B681A687B681B6822F008021A607B686C
:10209000DB6D3F229A403B699A607B68012283F89E
:1020A00035207B68002283F834207B681B6D002B71
:1020B0007ED07B681B6D7868984779E07B681B68E9
:1020C0001B6803F48023002B1DD07B681B681B68F2
:1020D00003F40023002B0DD17B685B6C002B31D007
:1020E0007B685B6C786898472CE000BF000000209C
:1020F000B5814E1B7B68DB6B002B23D07B68DB6BD1
:10210000786898471EE07B681B681B6803F480733F
:10211000002B0FD17B681B681A687B681B6822F054
:1021200010021A607B68012283F835207B68002248
:1021300083F834207B68DB6B002B03D07B68DB6B80
:10214000786898477B685B6D002B32D07B685B6D4D
:1021500003F00103002B22D07B68052283F8352091
:102160007B681B681A687B681B6822F001021A6092
:10217000BB680133BB607A699A4207D37B681B68EE
:102180001B6803F00103002BF2D100E000BF7B6865
:10219000012283F835207B68002283F834207B6895
:1021A000DB6C002B05D07B68DB6C7868984700E01F
:1021B00000BF1837BD4680BD80B485B000AF7860E1
:1021C0007B681B68DBB2103B144AA2FB03231B098C
:1021D000FB60134AFB6813441B781A467B68DA6578
:1021E000FB68032B09D97B681B6823F47F7323F0FA
:1021F00003031A1D7B689A6507E07B681B6823F45C
:102200007F7323F003037A6893657B689B6D1846A0
:102210001437BD465DF8047B704700BFABAAAAAA7D
:1022200018C5000880B485B000AF78600023FB7348
:102230007B689B6ABB607B689B69002B1FD1BB6876
:10224000032B56D801A252F823F000BF5D220008EC
:102250006F2200085D220008F32200087B68DB6A19
:1022600003F08073002B46D00123FB7343E07B68AF
:10227000DB6AB3F1C07F40D10123FB733DE07B6893
:102280009B69B3F5005F21D1BB68032B37D801A24E
:1022900052F823F0A5220008AB220008A52200086E
:1022A000BD2200080123FB7330E07B68DB6A03F08A
:1022B0008073002B25D00123FB7322E07B68DB6A4F
:1022C000B3F1C07F1FD10123FB731CE0BB68022B5D
:1022D00003D9BB68032B03D018E00123FB7315E07F
:1022E0007B68DB6A03F08073002B0ED00123FB7345
:1022F0000BE000BF0AE000BF08E000BF06E000BF3F
:1023000004E000BF02E000BF00E000BFFB7B184616
:102310001437BD465DF8047B704700BF80B489B0B8
:1023200000AF7860396000237B6100233B610023AC
:10233000BB610023FB616BE10122FB6902FA03F33D
:102340007B613B681B687A6913403B613A697B6932
:102350009A4240F05A813B685B6803F00303012B0B
:1023600005D03B685B6803F00303022B30D17B6828
:102370009B68BB61FB695B00032202FA03F3DB434A
:10238000BA691340BB613B68DA68FB695B0002FA1B
:1023900003F3BA691343BB617B68BA699A607B68CF
:1023A0005B68BB610122FB6902FA03F3DB43BA6994
:1023B0001340BB613B685B681B0903F00102FB69CA
:1023C00002FA03F3BA691343BB617B68BA695A60C6
:1023D0003B685B6803F00303032B17D07B68DB6863
:1023E000BB61FB695B00032202FA03F3DB43BA69BA
:1023F0001340BB613B689A68FB695B0002FA03F318
:10240000BA691343BB617B68BA69DA603B685B6891
:1024100003F00303022B23D1FB69DA087B6808323F
:1024200053F82230BB61FB6903F007039B000F22C6
:1024300002FA03F3DB43BA691340BB613B681A69D4
:10244000FB6903F007039B0002FA03F3BA69134325
:10245000BB61FB69DA087B680832B96943F822106E
:102460007B681B68BB61FB695B00032202FA03F314
:10247000DB43BA691340BB613B685B6803F003024E
:10248000FB695B0002FA03F3BA691343BB617B6823
:10249000BA691A603B685B6803F44033002B00F0B4
:1024A000B4800023FB60604B5B6C5F4A43F4804365
:1024B00053645D4B5B6C03F48043FB60FB685B4AD9
:1024C000FB699B08023352F82330BB61FB6903F0C0
:1024D00003039B000F2202FA03F3DB43BA691340A4
:1024E000BB617B68524A93422BD07B68514A93422E
:1024F00025D07B68504A93421FD07B684F4A934255
:1025000019D07B684E4A934213D07B684D4A934260
:102510000DD07B684C4A934207D07B684B4A93426C
:1025200001D107230EE008230CE006230AE005236F
:1025300008E0042306E0032304E0022302E0012371
:1025400000E00023FA6902F0030292009340BA69A6
:102550001343BB613549FB699B080233BA6941F8F3
:1025600023203B4B9B68BB613B69DB43BA6913404B
:10257000BB613B685B6803F48013002B03D0BA692E
:102580003B691343BB61324ABB699360304BDB68E4
:10259000BB613B69DB43BA691340BB613B685B6865
:1025A00003F40013002B03D0BA693B691343BB61EA
:1025B000274ABB69D360264B5B68BB613B69DB4341
:1025C000BA691340BB613B685B6803F40033002BBE
:1025D00003D0BA693B691343BB611D4ABB695360B1
:1025E0001B4B1B68BB613B69DB43BA691340BB6192
:1025F0003B685B6803F48033002B03D0BA693B6906
:102600001343BB61124ABB691360FB690133FB6171
:10261000FB690F2B7FF690AE00BF00BF2437BD468D
:102620005DF8047B704700BF00380240003801406D
:10263000000002400004024000080240000C02407A
:10264000001002400014024000180240001C02402A
:10265000003C014080B483B000AF78600B467B80C3
:1026600013467B707B78002B03D07A887B689A6155
:1026700003E07B881A047B689A6100BF0C37BD4673
:102680005DF8047B704780B485B000AF78600B467E
:102690007B807B685B69FB607A88FB6813401A0467
:1026A000FB68D9437B880B401A437B689A6100BF63
:1026B0001437BD465DF8047B704780B586B002AF25
:1026C00078607B68002B01D1012301E17B681B68E6
:1026D000BB607B6893F89534DBB2002B06D17B6836
:1026E000002283F89424786809F088FA7B68032232
:1026F00083F89524BB68B3F1A04F02D17B68002218
:102700009A717B681B68184602F0BFFE7B681868E8
:102710007B681A7C8DF8002004330ECB02F09EFDFE
:102720000346002B05D07B68022283F89524012301
:10273000CEE07B681B680021184602F0B7FE034616
:10274000002B05D07B68022283F895240123BFE08B
:102750000023FB734AE0FA7B79681346DB001344DD
:102760009B000B44153301221A70FA7B79681346DB
:10277000DB0013449B000B441433FA7B1A70FA7B82
:10278000FB7B98B279681346DB0013449B000B4433
:102790002E3302461A80FA7B79681346DB00134415
:1027A0009B000B44183300221A70FA7B7968134699
:1027B000DB0013449B000B441C3300221A60FA7B9D
:1027C00079681346DB0013449B000B44203300223E
:1027D0001A60FA7B79681346DB0013449B000B44B4
:1027E000243300221A60FB7B0133FB737B681B7967
:1027F000FA7B9A42AFD30023FB7344E0FA7B7968FB
:102800001346DB0013449B000B4403F255230022C4
:102810001A70FA7B79681346DB0013449B000B4463
:1028200003F51573FA7B1A70FA7B79681346DB009F
:1028300013449B000B4403F5167300221A70FA7BB5
:1028400079681346DB0013449B000B4403F51773B0
:1028500000221A60FA7B79681346DB0013449B0060
:102860000B4403F5187300221A60FA7B796813464B
:10287000DB0013449B000B4403F5197300221A601C
:10288000FB7B0133FB737B681B79FA7B9A42B5D3E0
:102890007B6818687B681A7C8DF8002004330ECBA7
:1028A00002F050FE0346002B05D07B68022283F81D
:1028B000952401230CE07B6800225A747B68012276
:1028C00083F895247B681B68184603F09AFE002362
:1028D00018461037BD4680BD80B584B000AF786023
:1028E0007B681B68FB607B6893F89434012B01D1F3
:1028F000022322E07B68012283F89424FB68DB68D2
:1029000003F04003002B09D07B685B7B012B05D1D2
:10291000FB689B6B43F48032FB689A637B681B689F
:10292000184602F0A1FD7B681B68184603F048FEBC
:102930007B68002283F89424002318461037BD4694
:1029400080BD90B58DB000AF78607B681B683B623E
:102950003B6AFB617B681B68184603F006FF034671
:10296000002B40F08C847B681B68184603F06AFEDD
:102970000346002B00F08284FB6903F500639B682B
:102980001B0AC3F30D027B68C3F8D4247B681B6861
:10299000184603F057FE034603F00203022B07D14B
:1029A0007B681B685A697B681B6802F002025A61E7
:1029B0007B681B68184603F045FE034603F01003CE
:1029C000102B61D17B681B689A697B681B6822F0B9
:1029D00010029A613B6A1B6ABB61BB6903F00F027C
:1029E0001346DB0013449B0003F514737A68134409
:1029F00004337B61BB6903F4F013B3F5802F24D15A
:102A0000BA6947F6F0731340002B35D07B69D9685B
:102A1000BB691B099BB2C3F30A039BB21A46386A0F
:102A200003F07CFC7B69DA68BB691B09C3F30A030A
:102A30001A447B69DA607B695A69BB691B09C3F375
:102A40000A031A447B695A6116E0BB6903F4F01368
:102A5000B3F5402F10D17B6803F29C43082219463E
:102A6000386A03F05BFC7B695A69BB691B09C3F3D5
:102A70000A031A447B695A617B681B689A697B6800
:102A80001B6842F010029A617B681B68184603F0CD
:102A9000D9FD034603F40023B3F5002F40F0A780CF
:102AA00000237B627B681B68184603F0DEFDB8627A
:102AB00099E0BB6A03F00103002B00F08E807B6875
:102AC0001B687A6AD2B21146184603F002FE3861DA
:102AD0003B6903F00103002B0CD07B6A5A01FB69B0
:102AE000134403F530631A4601239360796A7868CA
:102AF00000F0A4FE3B6903F00803002B0CD07B6AB6
:102B00005A01FB69134403F530631A4608239360A6
:102B1000796A786800F07AFF3B6903F01003002BB4
:102B200008D07B6A5A01FB69134403F530631A46E7
:102B3000102393603B6903F00203002B30D03B6A03
:102B40005B6903F08003802B09D1FB6903F5006307
:102B50005B68FA6902F5006243F4806353607A6A45
:102B60001346DB0013449B0003F514737A68134487
:102B700004337B617B69DB78012B08D17B69002200
:102B8000DA707B6ADBB21946786809F03DF97B6A36
:102B90005A01FB69134403F530631A46022393601C
:102BA0003B6903F02003002B08D07B6A5A01FB69C4
:102BB000134403F530631A46202393603B6903F402
:102BC0000053002B09D07B6A5A01FB69134403F5BB
:102BD00030631A464FF4005393607B6A01337B6283
:102BE000BB6A5B08BB62BB6A002B7FF462AF7B6889
:102BF0001B68184603F026FD034603F48023B3F553
:102C0000802F40F0DB807B681B68184603F047FD8F
:102C1000B86200237B62CDE0BB6A03F00103002BA6
:102C200000F0C2807B681B687A6AD2B211461846EF
:102C300003F06DFD38613B6903F00103002B57D0B1
:102C40007B6A03F00F03012202FA03F3FB60FB69C6
:102C500003F500635A6BFB68DB43F96901F500611A
:102C600013404B637B6A5A01FB69134403F51063FD
:102C70001A46012393607B689B79012B32D17968D6
:102C80007A6A1346DB0013449B000B442033196817
:102C900078687A6A1346DB0013449B0003441C33B4
:102CA0001B68194478687A6A1346DB0013449B005A
:102CB0000344203319607B6A002B13D179687A6A48
:102CC0001346DB0013449B000B4424331B68002B8A
:102CD00008D17B6818687B6803F29C431A4601217F
:102CE00003F074FD7B6ADBB21946786809F007F8D7
:102CF0003B6903F00803002B08D07B6A5A01FB698B
:102D0000134403F510631A46082393603B6903F0EC
:102D10001003002B08D07B6A5A01FB69134403F5AA
:102D200010631A46102393603B6903F04003002BA5
:102D300008D07B6A5A01FB69134403F510631A46F5
:102D4000402393603B6903F00203002B23D0796A90
:102D5000386A02F05BFD7A6A1346DB0013449B007D
:102D600010337A68134404337B617B69DB78012B71
:102D700008D17B690022DA707B6ADBB21946786879
:102D800009F054F87B6A5A01FB69134403F5106398
:102D90001A46022393603B6903F08003002B03D0A3
:102DA000796A786800F0BDFC7B6A01337B62BB6A9C
:102DB0005B08BB62BB6A002B7FF42EAF7B681B688D
:102DC000184603F03FFC034603F00043B3F1004F05
:102DD00022D1FB6903F500635B68FA6902F50062C2
:102DE00023F0010353607B6893F8CC34012B08D1A6
:102DF0007B68002283F8CC240021786800F0A4FED0
:102E000002E0786808F0F2FF7B681B685A697B680B
:102E10001B6802F000425A617B681B68184603F089
:102E200011FC034603F40063B3F5006F12D1FB6994
:102E300003F500639B6803F00103012B02D178685E
:102E400008F0AEFF7B681B685A697B681B6802F458
:102E500000625A617B681B68184603F0F3FB034667
:102E600003F48053B3F5805F40F0B780FB6903F54E
:102E700000635B68FA6902F5006223F001035360A6
:102E80007B681B681021184602F0C0FC0023FB621F
:102E900046E0FB6A5A01FB69134403F510631A46C6
:102EA0004FF67F339360FB6A5A01FB69134403F5C5
:102EB00010631B68FA6A5101FA690A4402F510624C
:102EC00023F400131360FB6A5A01FB69134403F5F2
:102ED00030631A464FF67F339360FB6A5A01FB69F1
:102EE000134403F530631B68FA6A5101FA690A4416
:102EF00002F5306223F400131360FB6A5A01FB6988
:102F0000134403F530631B68FA6A5101FA690A44F5
:102F100002F5306243F000631360FB6A0133FB6229
:102F20007B681B791A46FB6A9342B2D3FB6903F5AF
:102F30000063DB69FA6902F5006243F00113D361B3
:102F40007B68DB7B002B16D0FB6903F50063D3F8AD
:102F50008430FA6902F5006243F00B03C2F8843052
:102F6000FB6903F500635B6CFA6902F5006243F0EC
:102F70000B03536415E0FB6903F500635B69FA69B1
:102F800002F5006243F4005343F02B035361FB69E5
:102F900003F500631B69FA6902F5006243F00B0355
:102FA0001361FB6903F500631B68FA6902F50062AF
:102FB00023F4FE6313607B6818687B6899797B68EB
:102FC00003F29C431A4603F001FC7B681B685A69B4
:102FD0007B681B6802F480525A617B681B68184644
:102FE00003F030FB034603F40053B3F5005F23D135
:102FF0007B681B68184603F0C6FB7B681B68184695
:1030000002F07DFC03461A467B68DA717B681C6817
:1030100001F00AFA01467B68DB791A46204602F085
:1030200081F9786808F093FE7B681B685A697B68B1
:103030001B6802F400525A617B681B68184603F053
:1030400001FB034603F00803082B0AD1786808F057
:1030500070FE7B681B685A697B681B6802F0080277
:103060005A617B681B68184603F0ECFA034603F0CC
:103070008003802B23D13B6A9B6923F080023B6A4B
:103080009A6101237B6214E079687A6A1346DB0057
:1030900013449B000B4403F257231B78012B05D1EB
:1030A0007B6ADBB21946786800F00AFB7B6A013361
:1030B0007B627B681B791A467B6A9342E4D37B6808
:1030C0001B68184603F0BEFA034603F48013B3F5F9
:1030D000801F3CD101237B622BE07B6A5A01FB6994
:1030E000134403F510631B68BB6179687A6A134661
:1030F000DB0013449B000B4418331B78012B15D1C4
:10310000BB69002B12DA79687A6A1346DB00134434
:103110009B000B44173301221A707B6ADBB263F009
:103120007F03DBB21946786800F0CAFA7B6A013384
:103130007B627B681B791A467B6A9342CDD37B689E
:103140001B685A697B681B6802F480125A617B68AD
:103150001B68184603F076FA034603F40013B3F530
:10316000001F56D101237B6245E07B6A5A01FB694F
:10317000134403F530631B68BB6179687A6A1346B0
:10318000DB0013449B000B4403F516731B78012BE3
:103190002ED1BB69002B2BDABB691A0C7B68D3F8E4
:1031A000D434534003F00103002B21D179687A6AAB
:1031B0001346DB0013449B000B4403F25723012208
:1031C0001A703B6A9B6943F080023B6A9A613B6AD2
:1031D0005B6903F08003002B0AD1FB6903F50063F0
:1031E0005B68FA6902F5006243F40073536008E01B
:1031F0007B6A01337B627B681B791A467B6A934248
:10320000B3D37B681B685A697B681B6802F40012A1
:103210005A617B681B68184603F014FA034603F0F2
:103220008043B3F1804F0AD1786808F011FE7B68C3
:103230001B685A697B681B6802F080425A617B6890
:103240001B68184603F0FEF9034603F00403042B41
:1032500015D17B681B685B68BB61BB6903F0040325
:10326000002B02D0786808F001FE7B681B68596863
:103270007B681B68BA690A435A6000E000BF3437B4
:10328000BD4690BD80B582B000AF78600B46FB7044
:103290007B6893F89434012B01D1022312E07B6800
:1032A000012283F894247B68FA785A747B681B683F
:1032B000FA781146184603F05DF97B68002283F81E
:1032C0009424002318460837BD4680BD80B584B0DD
:1032D00000AF7860084611461A460346FB700B465D
:1032E0003B801346BB700023FB7297F90330002B21
:1032F0000FDAFB7803F00F021346DB0013449B0048
:1033000010337A6813440433FB60FB6801225A705F
:103310000FE0FB7803F00F021346DB0013449B0021
:1033200003F514737A6813440433FB60FB680022CE
:103330005A70FB7803F00F03DAB2FB681A703B880F
:10334000C3F30A02FB689A60FB68BA781A71FB68DB
:103350005B78002B04D0FB681B781A46FB685A8305
:10336000BB78022B02D1FB6800225A717B6893F86C
:103370009434012B01D102230EE07B68012283F8F3
:1033800094247B681B68F968184602F0DDFA7B68B4
:10339000002283F89424FB7A18461037BD4680BD7E
:1033A00080B584B000AF78600B46FB7097F90330AE
:1033B000002B0FDAFB7803F00F021346DB001344F7
:1033C0009B0010337A6813440433FB60FB680122CE
:1033D0005A700FE0FB7803F00F021346DB00134432
:1033E0009B0003F514737A6813440433FB60FB6895
:1033F00000225A70FB7803F00F03DAB2FB681A70F0
:103400007B6893F89434012B01D102230EE07B6892
:10341000012283F894247B681B68F968184602F03F
:103420001BFB7B68002283F8942400231846103786
:10343000BD4680BD80B586B000AFF8607A603B6065
:103440000B46FB72FB7A03F00F021346DB001344BA
:103450009B0003F51473FA68134404337B617B69A2
:103460007A68DA607B693A681A617B6900225A617E
:103470007B6900225A70FB7A03F00F03DAB27B6992
:103480001A70FB689B79012B02D17A687B69DA613B
:10349000FB681868FB689B791A46796902F0B8FBEB
:1034A000002318461837BD4680BD80B483B000AFF6
:1034B00078600B46FB70FB7803F00F0279681346C7
:1034C000DB0013449B000B4403F51A731B6818467A
:1034D0000C37BD465DF8047B704780B586B000AF01
:1034E000F8607A603B600B46FB72FB7A03F00F02D8
:1034F0001346DB0013449B001033FA681344043373
:103500007B617B697A68DA607B693A681A617B69FA
:1035100000225A617B6901225A70FB7A03F00F0383
:10352000DAB27B691A70FB689B79012B02D17A6849
:103530007B69DA61FB681868FB689B791A467969D0
:1035400002F066FB002318461837BD4680BD80B5E3
:1035500084B000AF78600B46FB70FB7803F00F037C
:103560007A681279934201D901234FE097F9033029
:10357000002B0FDAFB7803F00F021346DB00134435
:103580009B0010337A6813440433FB60FB6801220C
:103590005A700DE0FA781346DB0013449B0003F5E4
:1035A00014737A6813440433FB60FB6800225A707A
:1035B000FB6801229A70FB7803F00F03DAB2FB6814
:1035C0001A707B6893F89434012B01D102231DE01B
:1035D0007B68012283F894247B681B68F96818468D
:1035E00002F0F4FEFB7803F00F03002B09D17B6897
:1035F00018687B6899797B6803F29C431A4603F04C
:10360000E5F87B68002283F89424002318461037DD
:10361000BD4680BD80B584B000AF78600B46FB70BE
:10362000FB7803F00F037A681279934201D90123E2
:1036300042E097F90330002B0FDAFB7803F00F021A
:103640001346DB0013449B0010337A6813440433A1
:10365000FB60FB6801225A700FE0FB7803F00F0259
:103660001346DB0013449B0003F514737A6813447C
:103670000433FB60FB6800225A70FB6800229A70DA
:10368000FB7803F00F03DAB2FB681A707B6893F8DB
:103690009434012B01D102230EE07B68012283F8D0
:1036A00094247B681B68F968184602F0FDFE7B686D
:1036B000002283F89424002318461037BD4680BDAD
:1036C00080B584B000AF78600B46FB7097F903308B
:1036D000002B0CDAFB7803F00F021346DB001344D7
:1036E0009B0010337A6813440433FB600CE0FB78D2
:1036F00003F00F021346DB0013449B0003F5147321
:103700007A6813440433FB607B681B68F9681846C9
:1037100002F01CFD0346FB72FB7A18461037BD46CB
:1037200080BD80B58AB002AF786039607B681B6865
:103730007B617B693B613A681346DB0013449B0065
:1037400010337A6813440433FB60FB685A69FB68E2
:103750001B699A4201D901236BE0FB681A69FB6877
:103760005B69D31AFB61FB689B68FA699A4202D9CC
:10377000FB689B68FB61FB6903339B08BB612AE024
:10378000FB681A69FB685B69D31AFB61FB689B687D
:10379000FA699A4202D9FB689B68FB61FB690333B3
:1037A0009B08BB61FB68D9683B68DAB2FB6998B2D9
:1037B0007B689B7900930346786902F071FDFB6892
:1037C000DA68FB691A44FB68DA60FB685A69FB69CE
:1037D0001A44FB685A613B685A013B69134403F57C
:1037E00010639B699BB2BA699A4209D8FB685A690F
:1037F000FB681B699A4203D2FB681B69002BBFD18F
:10380000FB681A69FB685B699A4211D83B6803F050
:103810000F03012202FA03F3BB603B6903F5006367
:103820005A6BBB68DB43396901F5006113404B6398
:10383000002318462037BD4680BD000080B588B003
:1038400000AF786039607B681B68FB61FB69BB6116
:10385000FB693C3304331B687B613B685A01BB69DD
:10386000134403F530639B683B617B689B79012BB4
:103870007BD13B6903F00803002B15D07B69614ABB
:10388000934240F2B9803B6903F40043002B00F0FF
:10389000B3803B685A01BB69134403F530631A4691
:1038A0004FF400439360A7E03B6903F02003002B33
:1038B00009D03B685A01BB69134403F530631A46CB
:1038C0002023936098E03B6903F02803002B40F02D
:1038D00093807B694B4A93420FD93B6903F40043C1
:1038E000002B0AD03B685A01BB69134403F53063CF
:1038F0001A464FF4004393607EE03A681346DB00BB
:1039000013449B0003F514737A6813440433FB607B
:10391000FB681A6A3B685901BB690B4403F53063C5
:103920001B69C3F31203D21AFB685A613B68002B70
:1039300014D1FB681B69002B09D17B6818687B6870
:1039400003F29C431A46012102F040FF06E0FB68A7
:10395000DA68FB685B691A44FB68DA603B68DBB2D3
:103960001946786808F0B0F946E07B69264A934228
:1039700024D13B6903F40043002B0AD03B685A0171
:10398000BB69134403F530631A464FF40043936058
:1039900032E03B6903F02003002B08D03B685A015A
:1039A000BB69134403F530631A46202393603B68D8
:1039B000DBB21946786808F087F91DE03B68002BF8
:1039C00014D179683A681346DB0013449B000B441A
:1039D00003F519731B68002B08D17B6818687B6896
:1039E00003F29C431A46002102F0F0FE3B68DBB272
:1039F0001946786808F068F9002318462037BD4654
:103A000080BD00BF0A30544F0A31544F80B586B094
:103A100000AF786039607B681B687B617B693B61C4
:103A20007B693C3304331B68FB603B685A013B698C
:103A3000134403F530639B68BB60FB68154A9342EF
:103A40000ED9BB6803F40043002B09D03B685A0130
:103A50003B69134403F530631A464FF40043936007
:103A6000786808F01FF9FB680A4A93420CD97B6812
:103A70009B79012B08D17B6818687B6803F29C4313
:103A80001A46012102F0A2FE002318461837BD464F
:103A900080BD00BF0A30544F80B485B000AF78605D
:103AA0000B46FB7013463B807B681B685B6ABB6000
:103AB000FB78002B07D13B8819047B681B68BA6828
:103AC0000A439A6228E07B681B689B6A1B0CBA68F1
:103AD0001344BB600023FB730DE07B681A68FB7B1B
:103AE00040339B0013445B681B0CBA681344BB60F3
:103AF000FB7B0133FB73FA7BFB78013B9A42ECD3EF
:103B00003B8818047B681968FB78013BBA6802435C
:103B100040339B000B445A60002318461437BD46BF
:103B20005DF8047B704780B483B000AF78600B46CB
:103B30007B807B681B687A885A62002318460C37A2
:103B4000BD465DF8047B704780B483B000AF7860F9
:103B50000B46FB7000BF0C37BD465DF8047B704719
:103B600080B586B000AF78607B68002B01D101235F
:103B700067E27B681B6803F00103002B75D0884B5C
:103B80009B6803F00C03042B0CD0854B9B6803F05F
:103B90000C03082B12D1824B5B6803F48003B3F54E
:103BA000800F0BD17E4B1B6803F40033002B5BD0DE
:103BB0007B685B68002B57D1012342E27B685B681E
:103BC000B3F5803F06D1764B1B68754A43F48033CA
:103BD00013601DE07B685B68B3F5A02F0CD1704BC0
:103BE0001B686F4A43F4802313606D4B1B686C4A5B
:103BF00043F4803313600BE0694B1B68684A23F47D
:103C000080331360664B1B68654A23F4802313607E
:103C10007B685B68002B13D0FDF722FD386108E05C
:103C2000FDF71EFD02463B69D31A642B01D903231D
:103C300007E25B4B1B6803F40033002BF0D014E069
:103C4000FDF70EFD386108E0FDF70AFD02463B690D
:103C5000D31A642B01D90323F3E1514B1B6803F4FE
:103C60000033002BF0D100E000BF7B681B6803F03D
:103C70000203002B63D04A4B9B6803F00C03002B1C
:103C80000BD0474B9B6803F00C03082B1CD1444B13
:103C90005B6803F48003002B16D1414B1B6803F0D3
:103CA0000203002B05D07B68DB68012B01D00123C8
:103CB000C7E13B4B1B6823F0F8027B681B69DB0004
:103CC000374913430B603AE07B68DB68002B20D058
:103CD000344B01221A60FDF7C3FC386108E0FDF7A0
:103CE000BFFC02463B69D31A022B01D90323A8E18A
:103CF0002B4B1B6803F00203002BF0D0284B1B68F2
:103D000023F0F8027B681B69DB00254913430B6035
:103D100015E0244B00221A60FDF7A2FC386108E090
:103D2000FDF79EFC02463B69D31A022B01D90323FF
:103D300087E11B4B1B6803F00203002BF0D17B686B
:103D40001B6803F00803002B36D07B685B69002BEF
:103D500016D0154B01221A60FDF782FC386108E08D
:103D6000FDF77EFC02463B69D31A022B01D90323DF
:103D700067E10B4B5B6F03F00203002BF0D01BE0FD
:103D8000094B00221A60FDF76BFC38610EE0FDF76D
:103D900067FC02463B69D31A022B07D9032350E183
:103DA0000038024000004742800E4742884B5B6F5C
:103DB00003F00203002BEAD17B681B6803F00403C5
:103DC000002B00F097800023FB75814B1B6C03F0E8
:103DD0008053002B0FD10023BB607D4B1B6C7C4AB2
:103DE00043F0805313647A4B1B6C03F08053BB6029
:103DF000BB680123FB75774B1B6803F48073002BB2
:103E000018D1744B1B68734A43F480731360FDF739
:103E100027FC386108E0FDF723FC02463B69D31A12
:103E2000022B01D903230CE16A4B1B6803F4807356
:103E3000002BF0D07B689B68012B06D1644B1B6F75
:103E4000634A43F0010313671CE07B689B68052B02
:103E50000CD15F4B1B6F5E4A43F0040313675C4B4E
:103E60001B6F5B4A43F0010313670BE0584B1B6F5A
:103E7000574A23F001031367554B1B6F544A23F035
:103E8000040313677B689B68002B15D0FDF7E8FBE4
:103E900038610AE0FDF7E4FB02463B69D31A41F2C0
:103EA0008832934201D90323CBE0494B1B6F03F0C7
:103EB0000203002BEED014E0FDF7D2FB38610AE0DC
:103EC000FDF7CEFB02463B69D31A41F2883293429A
:103ED00001D90323B5E03E4B1B6F03F00203002B17
:103EE000EED1FB7D012B05D1394B1B6C384A23F0F9
:103EF000805313647B689B69002B00F0A180344BD6
:103F00009B6803F00C03082B5CD07B689B69022B39
:103F100041D1314B00221A60FDF7A2FB386108E065
:103F2000FDF79EFB02463B69D31A022B01D90323FE
:103F300087E0274B1B6803F00073002BF0D17B68F0
:103F4000DA697B681B6A1A437B685B6A9B011A43C8
:103F50007B689B6A5B08013B1B041A437B68DB6A36
:103F60001B061B4913434B601B4B01221A60FDF7D4
:103F700077FB386108E0FDF773FB02463B69D31A13
:103F8000022B01D903235CE0114B1B6803F0007383
:103F9000002BF0D054E0104B00221A60FDF760FBBC
:103FA000386108E0FDF75CFB02463B69D31A022B3F
:103FB00001D9032345E0064B1B6803F00073002B77
:103FC000F0D13DE07B689B69012B07D1012338E0EC
:103FD0000038024000700040600047421B4B5B68A5
:103FE000FB607B689B69012B28D0FB6803F480028F
:103FF0007B68DB699A4221D1FB6803F03F027B6852
:104000001B6A9A421AD1FA6847F6C07313407A685D
:10401000526A9201934211D1FB6803F440327B68EB
:104020009B6A5B08013B1B049A4207D1FB6803F0C3
:1040300070627B68DB6A1B069A4201D0012300E0B4
:10404000002318461837BD4680BD00BF0038024027
:1040500080B584B000AF786039607B68002B01D1F7
:104060000123CCE0684B1B6803F007033A689A42CF
:104070000CD9654B3A68D2B21A70634B1B6803F0D7
:1040800007033A689A4201D00123B8E07B681B68B5
:1040900003F00203002B20D07B681B6803F00403AD
:1040A000002B05D0594B9B68584A43F4E05393606A
:1040B0007B681B6803F00803002B05D0534B9B68FB
:1040C000524A43F460439360504B9B6823F0F002E4
:1040D0007B689B684D4913438B607B681B6803F0CA
:1040E0000103002B44D07B685B68012B07D1474B51
:1040F0001B6803F40033002B19D101237FE07B6898
:104100005B68022B03D07B685B68032B07D13F4BB6
:104110001B6803F00073002B09D101236FE03B4BB8
:104120001B6803F00203002B01D1012367E0374B2A
:104130009B6823F003027B685B68344913438B6000
:10414000FDF78EFAF8600AE0FDF78AFA0246FB688E
:10415000D31A41F28832934201D903234FE02B4B0B
:104160009B6803F00C027B685B689B009A42EBD172
:10417000254B1B6803F007033A689A420CD2224B86
:104180003A68D2B21A70204B1B6803F007033A68F2
:104190009A4201D0012332E07B681B6803F00403DC
:1041A000002B08D0194B9B6823F4E0527B68DB6836
:1041B000164913438B607B681B6803F00803002BD0
:1041C00009D0124B9B6823F460427B681B69DB00BB
:1041D0000E4913438B6000F021F802460B4B9B689D
:1041E0001B0903F00F030A49CB5C22FA03F3094AC7
:1041F0001360094B1B681846FDF70AF9002318469F
:104200001037BD4680BD00BF003C02400038024070
:1042100000C5000800000020040000202DE9B04F78
:1042200094B000AF00237B640023FB6400233B6455
:104230000023BB64794B9B6803F00C03082B0DD063
:10424000082B00F2E180002B02D0042B03D0DBE02E
:10425000734BBB64DBE0734BBB64D8E06F4B5B68B4
:1042600003F03F037B646D4B5B6803F48003002B1A
:1042700063D06A4B5B689B090022BB63FA63BB6B2C
:10428000C3F308033B6300237B63D7E90C45224655
:104290002B464FF000004FF00001590141EAD26176
:1042A000500102460B462146511A3961294663EBFB
:1042B00001037B614FF000024FF00003D7E904AB2C
:1042C00059468B01514643EA916351468A01514652
:1042D000B2EB0108594663EB01094FF000024FF0C1
:1042E00000034FEAC90343EA58734FEAC8029046F5
:1042F0009946234618EB0303BB602B4649EB0303A7
:10430000FB604FF000024FF00003D7E90245294659
:104310004B02214643EAD15321464A021046194630
:104320007B6C0022BB62FA62D7E90A23FBF750FFDD
:1043300002460B461346FB6458E0384B5B689B090A
:10434000002218461146C0F308033B6200237B623B
:10435000D7E9088942464B464FF000004FF0000174
:10436000590141EAD261500102460B464146B2EB87
:10437000010A494663EB010B4FF000024FF00003C6
:104380004FEA8B1343EA9A634FEA8A12B2EB0A04AC
:1043900063EB0B054FF000024FF00003EB0043EA24
:1043A0005473E20014461D464346E3183B604B46F7
:1043B00045EB03037B604FF000024FF00003D7E9A9
:1043C000004529468B02214643EA915321468A0241
:1043D000104619467B6C0022BB61FA61D7E90623BF
:1043E000FBF7F6FE02460B461346FB640B4B5B687D
:1043F0001B0C03F0030301335B003B64FA6C3B6C62
:10440000B2FBF3F3BB6402E0054BBB6400BFBB6CC3
:1044100018465037BD46BDE8B08F00BF0038024097
:104420000024F40000127A0080B400AF034B1B6834
:104430001846BD465DF8047B704700BF00000020B1
:1044400080B500AFFFF7F0FF0246054B9B689B0A63
:1044500003F007030349CB5C22FA03F3184680BD3F
:104460000038024010C5000880B483B000AF786007
:1044700039607B680F221A60124B9B6803F00302BD
:104480007B685A600F4B9B6803F0F0027B689A6070
:104490000C4B9B6803F4E0527B68DA60094B9B6825
:1044A000DB0803F4E0527B681A61074B1B6803F0DA
:1044B00007023B681A6000BF0C37BD465DF8047BFD
:1044C000704700BF00380240003C024080B582B017
:1044D00000AF78607B68002B01D1012341E07B684D
:1044E00093F83D30DBB2002B06D17B68002283F8C5
:1044F0003C207868FCF730FF7B68022283F83D207F
:104500007B681A687B6804331946104600F06EFB1E
:104510007B68012283F846207B68012283F83E20D5
:104520007B68012283F83F207B68012283F84020CA
:104530007B68012283F841207B68012283F84220B6
:104540007B68012283F843207B68012283F84420A2
:104550007B68012283F845207B68012283F83D2097
:10456000002318460837BD4680BD000080B485B0E2
:1045700000AF78607B6893F83D30DBB2012B01D04F
:1045800001234EE07B68022283F83D207B681B6894
:10459000DA687B681B6842F00102DA607B681B689E
:1045A000234A934222D07B681B68B3F1804F1DD011
:1045B0007B681B681F4A934218D07B681B681E4AA1
:1045C000934213D07B681B681C4A93420ED07B68D1
:1045D0001B681B4A934209D07B681B68194A9342A7
:1045E00004D07B681B68184A934211D17B681B6812
:1045F0009B6803F00703FB60FB68062B10D07B6809
:104600001B681A687B681B6842F001021A6007E0A9
:104610007B681B681A687B681B6842F001021A609D
:10462000002318461437BD465DF8047B704700BF71
:10463000000001400004004000080040000C004061
:1046400000040140004001400018004080B582B0E5
:1046500000AF78607B68002B01D1012341E07B68CB
:1046600093F83D30DBB2002B06D17B68002283F843
:104670003C207868FCF77CFD7B68022283F83D20B3
:104680007B681A687B6804331946104600F0AEFA5E
:104690007B68012283F846207B68012283F83E2054
:1046A0007B68012283F83F207B68012283F8402049
:1046B0007B68012283F841207B68012283F8422035
:1046C0007B68012283F843207B68012283F8442021
:1046D0007B68012283F845207B68012283F83D2016
:1046E000002318460837BD4680BD80B586B000AFB0
:1046F000786039607B68002B01D1012397E07B68EB
:1047000093F83D30DBB2002B06D17B68002283F8A2
:104710003C207868FCF74EFD7B68022283F83D2040
:104720007B681B689B687A68126823F4804323F0D7
:10473000070393607B681A687B6804331946104648
:1047400000F054FA7B681B689B687B617B681B6880
:104750009B693B617B681B681B6AFB603B681B684D
:104760007A6913437B613B6923F4407323F00303AD
:104770003B613B689A683B689B691B0213433A693B
:1047800013433B613B6923F4406323F00C033B611B
:104790003B6923F4704323F0F0033B613B68DA6824
:1047A0003B68DB691B0213433A6913433B613B6877
:1047B0001B691A013B681B6A1B0313433A691343C5
:1047C0003B61FB6823F02203FB60FB6823F0880356
:1047D000FB603B685A683B685B691B011343FA68DE
:1047E0001343FB607B681B687A699A607B681B686F
:1047F0003A699A617B681B68FA681A627B680122D1
:1048000083F846207B68012283F83E207B680122E2
:1048100083F83F207B68012283F842207B680122D5
:1048200083F843207B68012283F83D20002318464B
:104830001837BD4680BD80B584B000AF78607B6816
:104840001B68DB68FB607B681B681B69BB60BB681F
:1048500003F00203002B20D0FB6803F00203002BBF
:104860001BD07B681B686FF002021A617B68012213
:104870001A777B681B689B6903F00303002B03D046
:10488000786800F095F905E0786800F087F97868B5
:1048900000F098F97B6800221A77BB6803F00403E4
:1048A000002B20D0FB6803F00403002B1BD07B6897
:1048B0001B686FF004021A617B6802221A777B681A
:1048C0001B689B6903F44073002B03D0786800F0E9
:1048D0006FF905E0786800F061F9786800F072F926
:1048E0007B6800221A77BB6803F00803002B20D0F6
:1048F000FB6803F00803002B1BD07B681B686FF07C
:1049000008021A617B6804221A777B681B68DB69DE
:1049100003F00303002B03D0786800F049F905E0A9
:10492000786800F03BF9786800F04CF97B68002269
:104930001A77BB6803F01003002B20D0FB6803F04C
:104940001003002B1BD07B681B686FF010021A61EC
:104950007B6808221A777B681B68DB6903F4407365
:10496000002B03D0786800F023F905E0786800F0A8
:1049700015F9786800F026F97B6800221A77BB6881
:1049800003F00103002B0CD0FB6803F00103002BA4
:1049900007D07B681B686FF001021A617868FCF72A
:1049A00093FABB6803F08003002B0CD0FB6803F084
:1049B0008003002B07D07B681B686FF080021A61B0
:1049C000786800F041FCBB6803F04003002B0CD07A
:1049D000FB6803F04003002B07D07B681B686FF077
:1049E00040021A61786800F0F7F8BB6803F0200312
:1049F000002B0CD0FB6803F02003002B07D07B6852
:104A00001B686FF020021A61786800F013FC00BF89
:104A10001037BD4680BD000080B586B000AFF8609D
:104A2000B9607A600023FB75FB6893F83C30012B7A
:104A300001D10223AEE0FB68012283F83C207B68B1
:104A40000C2B00F29F8001A252F823F0814A00084B
:104A5000854B0008854B0008854B0008C14A0008BB
:104A6000854B0008854B0008854B0008034B000868
:104A7000854B0008854B0008854B0008434B000818
:104A8000FB681B68B968184600F056F9FB681B689C
:104A90009A69FB681B6842F008029A61FB681B6810
:104AA0009A69FB681B6822F004029A61FB681B6824
:104AB0009969BB681A69FB681B680A439A6164E0DC
:104AC000FB681B68B968184600F0A6F9FB681B680C
:104AD0009A69FB681B6842F400629A61FB681B6874
:104AE0009A69FB681B6822F480629A61FB681B6804
:104AF0009969BB681B691A02FB681B680A439A61C3
:104B000043E0FB681B68B968184600F0FBF9FB68D6
:104B10001B68DA69FB681B6842F00802DA61FB680F
:104B20001B68DA69FB681B6822F00402DA61FB6823
:104B30001B68D969BB681A69FB681B680A43DA619C
:104B400023E0FB681B68B968184600F04FFAFB6861
:104B50001B68DA69FB681B6842F40062DA61FB6873
:104B60001B68DA69FB681B6822F48062DA61FB6803
:104B70001B68D969BB681B691A02FB681B680A437A
:104B8000DA6102E00123FB7500BFFB68002283F8B5
:104B90003C20FB7D18461837BD4680BD80B483B0ED
:104BA00000AF786000BF0C37BD465DF8047B7047EE
:104BB00080B483B000AF786000BF0C37BD465DF8AD
:104BC000047B704780B483B000AF786000BF0C37BF
:104BD000BD465DF8047B704780B483B000AF786059
:104BE00000BF0C37BD465DF8047B704780B485B0CC
:104BF00000AF786039607B681B68FB607B68434A64
:104C0000934213D07B68B3F1804F0FD07B68404A4A
:104C100093420BD07B683F4A934207D07B683E4A61
:104C2000934203D07B683D4A934208D1FB6823F04E
:104C30007003FB603B685B68FA681343FB607B684A
:104C4000324A93422BD07B68B3F1804F27D07B68E8
:104C50002F4A934223D07B682E4A93421FD07B6811
:104C60002D4A93421BD07B682C4A934217D07B6815
:104C70002B4A934213D07B682A4A93420FD07B6819
:104C8000294A93420BD07B68284A934207D07B681D
:104C9000274A934203D07B68264A934208D1FB6897
:104CA00023F44073FB603B68DB68FA681343FB60E6
:104CB000FB6823F080023B685B691343FB603B6841
:104CC0009A687B68DA623B681A687B689A627B68DC
:104CD0000E4A934203D07B68104A934203D13B684B
:104CE0001A697B681A637B681B6843F004027B685F
:104CF0001A607B6801225A617B68FA681A6000BFFB
:104D00001437BD465DF8047B704700BF00000140CA
:104D10000004004000080040000C00400004014076
:104D2000004001400044014000480140001800409C
:104D3000001C00400020004080B487B000AF7860C5
:104D400039607B681B6A7B617B681B6A23F0010208
:104D50007B681A627B685B683B617B689B69FB6070
:104D6000FB6823F07003FB60FB6823F00303FB6028
:104D70003B681B68FA681343FB607B6923F00203FE
:104D80007B613B689B687A6913437B617B68204A3F
:104D9000934203D07B681F4A93420CD17B6923F076
:104DA00008037B613B68DB687A6913437B617B693D
:104DB00023F004037B617B68154A934203D07B6830
:104DC000144A934211D13B6923F480733B613B69E0
:104DD00023F400733B613B685B693A6913433B61B1
:104DE0003B689B693A6913433B617B683A695A6047
:104DF0007B68FA689A613B685A687B685A637B688B
:104E00007A691A6200BF1C37BD465DF8047B7047A3
:104E1000000001400004014080B487B000AF78601A
:104E200039607B681B6A7B617B681B6A23F0100218
:104E30007B681A627B685B683B617B689B69FB608F
:104E4000FB6823F4E043FB60FB6823F44073FB60E2
:104E50003B681B681B02FA681343FB607B6923F005
:104E600020037B613B689B681B017A6913437B616C
:104E70007B68224A934203D07B68214A93420DD13A
:104E80007B6923F080037B613B68DB681B017A69E7
:104E900013437B617B6923F040037B617B68174A86
:104EA000934203D07B68164A934213D13B6923F4A3
:104EB00080633B613B6923F400633B613B685B6952
:104EC0009B003A6913433B613B689B699B003A69CD
:104ED00013433B617B683A695A607B68FA689A6160
:104EE0003B685A687B689A637B687A691A6200BF7C
:104EF0001C37BD465DF8047B704700BF00000140D1
:104F00000004014080B487B000AF786039607B68EE
:104F10001B6A7B617B681B6A23F480727B681A6260
:104F20007B685B683B617B68DB69FB60FB6823F047
:104F30007003FB60FB6823F00303FB603B681B68A6
:104F4000FA681343FB607B6923F400737B613B6861
:104F50009B681B027A6913437B617B68214A9342F9
:104F600003D07B68204A93420DD17B6923F4006310
:104F70007B613B68DB681B027A6913437B617B6959
:104F800023F480637B617B68164A934203D07B687D
:104F9000154A934213D13B6923F480533B613B692B
:104FA00023F400533B613B685B691B013A6913437F
:104FB0003B613B689B691B013A6913433B617B681A
:104FC0003A695A607B68FA68DA613B685A687B68BC
:104FD000DA637B687A691A6200BF1C37BD465DF8E8
:104FE000047B7047000001400004014080B487B09A
:104FF00000AF786039607B681B6A3B617B681B6A25
:1050000023F480527B681A627B685B687B617B68F3
:10501000DB69FB60FB6823F4E043FB60FB6823F47F
:105020004073FB603B681B681B02FA681343FB601C
:105030003B6923F400533B613B689B681B033A695F
:1050400013433B617B68124A934203D07B68114A49
:10505000934209D17B6923F480437B613B685B69A0
:105060009B017A6913437B617B687A695A607B682C
:10507000FA68DA613B685A687B681A647B683A6947
:105080001A6200BF1C37BD465DF8047B704700BF45
:10509000000001400004014080B485B000AF78609A
:1050A00039607B6893F83C30012B01D102235AE030
:1050B0007B68012283F83C207B68022283F83D2034
:1050C0007B681B685B68FB607B681B689B68BB60D8
:1050D000FB6823F07003FB603B681B68FA681343AE
:1050E000FB607B681B68FA685A607B681B68214A12
:1050F000934222D07B681B68B3F1804F1DD07B6840
:105100001B681D4A934218D07B681B681B4A934258
:1051100013D07B681B681A4A93420ED07B681B68C9
:10512000184A934209D07B681B68174A934204D0FF
:105130007B681B68154A93420CD1BB6823F080033F
:10514000BB603B685B68BA681343BB607B681B68E5
:10515000BA689A607B68012283F83D207B68002250
:1051600083F83C20002318461437BD465DF8047BC5
:10517000704700BF000001400004004000080040EC
:10518000000C0040000401400040014000180040B5
:1051900080B485B000AF786039600023FB607B6825
:1051A00093F83C30012B01D102233DE07B680122C2
:1051B00083F83C20FB6823F0FF023B68DB68134365
:1051C000FB60FB6823F440723B689B681343FB6001
:1051D000FB6823F480623B685B681343FB60FB68F9
:1051E00023F400623B681B681343FB60FB6823F4F5
:1051F00080523B681B691343FB60FB6823F4005239
:105200003B685B691343FB60FB6823F480423B68A7
:10521000DB691343FB607B681B68FA685A647B6830
:10522000002283F83C20002318461437BD465DF861
:10523000047B704780B483B000AF786000BF0C3748
:10524000BD465DF8047B704780B483B000AF7860E2
:1052500000BF0C37BD465DF8047B704784B080B555
:1052600084B000AF786007F11C0080E80E0097F86A
:105270002130012B23D17B689B6B23F480327B6828
:105280009A637B68DB6823F4840323F040037A6825
:10529000D3607B68DB6823F440127B68DA6097F8A0
:1052A0002830012B05D17B68DB6843F480127B68D2
:1052B000DA60786801F0E8FA0346FB731BE07B686C
:1052C000DB6843F040027B68DA60786801F0DCFA62
:1052D0000346FB7397F82530002B06D17B689B6B48
:1052E00043F480327B689A6305E07B689B6B23F410
:1052F00080327B689A63BB7F012B0BD17B689B68F4
:1053000043F006027B689A607B689B6843F020024A
:105310007B689A60FB7B18461037BD46BDE880402D
:1053200004B0704780B487B000AFF860B96013462E
:10533000FB71FB79022B65D1BB68414A934206D9C8
:10534000BB68404A934202D20F237B6162E0BB6894
:105350003C4A934206D3BB683B4A934202D20E2397
:105360007B6157E0BB68384A934206D3BB68374A33
:10537000934202D20D237B614CE0BB68334A9342D7
:1053800006D3BB68324A934202D80C237B6141E0CA
:10539000BB682F4A934206D9BB682E4A934202D873
:1053A0000B237B6136E0BB682A4A934206D9BB686F
:1053B000294A934202D80A237B612BE0BB68264A24
:1053C000934206D9BB68254A934202D209237B61E6
:1053D00020E0BB68214A934206D3BB68204A93422F
:1053E00002D808237B6115E0BB681D4A934206D9A9
:1053F000BB681C4A934202D207237B610AE0062362
:105400007B6107E0FB79002B02D109237B6101E07E
:1054100009237B61FB68DB6823F47052FB68DA6068
:10542000FB68DA687B699B0203F470531A43FB68DC
:10543000DA60002318461C37BD465DF8047B7047D0
:10544000BFACD800C0E1E4000024F4008073060182
:105450009F491A01FF2C31013FA44C0100366E0117
:105460001FABA6010048E80180B483B000AF7860AC
:105470007B689B6843F001027B689A6000231846B2
:105480000C37BD465DF8047B704780B483B000AF35
:1054900078607B689B6823F001027B689A60002338
:1054A00018460C37BD465DF8047B704780B584B064
:1054B00000AF78600B46FB700023FB607B68DB6805
:1054C00023F0C0427B68DA60FB78012B15D17B6842
:1054D000DB6843F000527B68DA600A20FCF7CCF806
:1054E000FB680A33FB60786801F03FF90346012B43
:1054F0001ED0FB68C72BF0D91AE0FB78002B15D122
:105500007B68DB6843F080427B68DA600A20FCF746
:10551000B3F8FB680A33FB60786801F026F90346AC
:10552000002B05D0FB68C72BF0D901E0012305E073
:10553000FB68C82B01D1012300E000231846103777
:10554000BD4680BD84B080B586B000AF786007F1FD
:10555000240080E80E000023FB757B68FB600023BD
:105560003B6109E07A683B6940339B0013440022A9
:105570005A603B6901333B613B690E2BF2D997F8C6
:105580002E30002B1CD1FB6803F500635B68FA68C2
:1055900002F5006243F0020353607B689B6B43F4A7
:1055A00000127B689A637B689B6B23F400227B6804
:1055B0009A637B689B6B23F480227B689A630BE081
:1055C0007B689B6B23F400127B689A637B689B6B00
:1055D00043F400227B689A63FB6803F560631A4614
:1055E0000023136097F82930012B0DD197F827304D
:1055F000002B04D10021786800F068F908E001214F
:10560000786800F063F903E00321786800F05EF940
:105610001021786800F0FAF80346002B01D001232E
:10562000FB75786800F024F90346002B01D00123B4
:10563000FB75FB6803F500631A4600231361FB68E2
:1056400003F500631A4600235361FB6803F500630A
:105650001A460023D36100233B6143E03B695A01B2
:10566000FB68134403F510631B6803F00043B3F1B8
:10567000004F18D13B69002B0AD13B695A01FB68E6
:10568000134403F510631A464FF00063136013E0F0
:105690003B695A01FB68134403F510631A464FF047
:1056A0009043136008E03B695A01FB68134403F51B
:1056B00010631A46002313603B695A01FB681344C8
:1056C00003F510631A46002313613B695A01FB6816
:1056D000134403F510631A464FF67F3393603B691A
:1056E00001333B6197F824301A463B699342B5D3A6
:1056F00000233B6143E03B695A01FB68134403F517
:1057000030631B6803F00043B3F1004F18D13B69CD
:10571000002B0AD13B695A01FB68134403F530633F
:105720001A464FF00063136013E03B695A01FB68AF
:10573000134403F530631A464FF09043136008E0BA
:105740003B695A01FB68134403F530631A46002392
:1057500013603B695A01FB68134403F530631A4632
:10576000002313613B695A01FB68134403F530635E
:105770001A464FF67F3393603B6901333B6197F8DC
:1057800024301A463B699342B5D3FB6803F50063A6
:105790001B69FA6802F5006223F4807313617B6869
:1057A00000229A617B686FF080425A6197F8263038
:1057B000002B05D17B689B6943F010027B689A61DE
:1057C0007B689A69104B13437A68936197F82A3083
:1057D000002B05D07B689B6943F008027B689A61C7
:1057E00097F82E30012B07D17B689B6943F08043EB
:1057F00043F004037A689361FB7D18461837BD4671
:10580000BDE8804004B0704700383C8080B485B06B
:1058100000AF786039600023FB60FB680133FB60F8
:10582000FB68B3F1706F01D903231BE07B681B6930
:10583000002BF2DA0023FB603B689B0143F020025F
:105840007B681A61FB680133FB60FB68B3F1706F22
:1058500001D9032306E07B681B6903F02003202B9A
:10586000F0D0002318461437BD465DF8047B70471E
:1058700080B485B000AF78600023FB60FB68013323
:10588000FB60FB68B3F1706F01D9032318E07B68FC
:105890001B69002BF2DA0023FB607B6810221A617F
:1058A000FB680133FB60FB68B3F1706F01D9032320
:1058B00006E07B681B6903F01003102BF0D0002377
:1058C00018461437BD465DF8047B704780B485B038
:1058D00000AF78600B46FB707B68FB60FB6803F5EC
:1058E00000631A68FB78F96801F5006113430B60E7
:1058F000002318461437BD465DF8047B704780B41A
:1059000087B000AF78607B683B613B6903F500635B
:105910009B6803F00603FB60FB68002B02D10023A9
:10592000FB750AE0FB68022B02D0FB68062B02D154
:105930000223FB7501E00F23FB75FB7D18461C3726
:10594000BD465DF8047B704780B485B000AF7860D9
:1059500039607B68FB603B681B78BB603B685B78A9
:10596000012B3AD1FB6803F50063DA693B681B78C9
:1059700003F00F03012101FA03F39BB2F96801F56B
:1059800000611343CB61BB685A01FB68134403F504
:1059900010631B6803F40043002B55D1BB685A0108
:1059A000FB68134403F510631A683B689B68C3F3F4
:1059B0000A013B681B799B041943BB689B050B4399
:1059C0001343BA685101FA680A4402F5106243F0C1
:1059D000805343F40043136036E0FB6803F5006333
:1059E000DA693B681B7803F00F03012101FA03F326
:1059F0001B04F96801F500611343CB61BB685A01D0
:105A0000FB68134403F530631B6803F40043002B69
:105A10001AD1BB685A01FB68134403F530631A6856
:105A20003B689B68C3F30A013B681B799B040B43EB
:105A30001343BA685101FA680A4402F5306243F030
:105A4000805343F400431360002318461437BD46C7
:105A50005DF8047B7047000080B485B000AF7860CB
:105A600039607B68FB603B681B78BB603B685B7898
:105A7000012B61D1BB685A01FB68134403F5106325
:105A80001B6803F00043B3F1004F1FD1BB685A01FC
:105A9000FB68134403F510631B68BA685101FA6888
:105AA0000A4402F5106243F000631360BB685A01B8
:105AB000FB68134403F510631B68BA685101FA6868
:105AC0000A4402F5106243F080431360FB6803F55B
:105AD0000063DA6B3B681B7803F00F03012101FAC6
