:020000040800F2
:1000000000000220A5170008B5160008BD1600085C
:10001000C5160008CD160008D5160008000000001F
:10002000000000000000000000000000E17900086E
:10003000DD16000800000000317C0008F1530008C4
:10004000F5170008F5170008F5170008F517000860
:10005000F5170008F5170008F5170008F517000850
:10006000F5170008F5170008F5170008F517000840
:10007000F5170008F5170008F5170008F517000830
:10008000F5170008F5170008F5170008F517000820
:10009000F5170008F5170008F5170008F517000810
:1000A000F5170008F5170008F5170008F517000800
:1000B000F5170008F5170008F5170008F5170008F0
:1000C000F5170008F5170008F5170008F5170008E0
:1000D000F5170008F5170008F5170008F5170008D0
:1000E000F5170008F5170008F5170008F5170008C0
:1000F000F5170008F5170008F5170008F5170008B0
:10010000F5170008F5170008F5170008F51700089F
:10011000F5170008F5170008ED160008F517000898
:10012000F5170008F517000801170008F517000873
:10013000F5170008F5170008F5170008F51700086F
:10014000F5170008F5170008F5170008F51700085F
:10015000F5170008F5170008F5170008F51700084F
:10016000F5170008F5170008F5170008F51700083F
:10017000F5170008F5170008F51700080000000043
:08018000F5170008F51700084F
:1001900010B5054C237833B9044B13B10448AFF3C1
:1001A00000800123237010BD6000002000000000CB
:1001B000AC8E000808B5034B1BB103490348AFF3ED
:1001C000008008BD0000000064000020AC8E000824
:1001D000034613F8012B002AFBD1181A0138704787
:1001E00001F0FF01102A2BDB10F0070F08D010F8E8
:1001F000013B013A8B422DD010F0070F42B3F6D1EC
:10020000F0B441EA012141EA014122F007047FF004
:1002100000070023F0E80256083C85EA010586EA5B
:10022000010685FA47F5A3FA87F586FA47F6A5FA97
:1002300087F68EB9EED1F0BC01F0FF0102F00702A3
:1002400032B110F8013B013A83EA010313B1F8D14E
:100250000020704701387047002D06BF354603382F
:10026000073815F0010F07D1013015F4807F02BF68
:10027000013015F4C03F0130F0BC0138704700BFB9
:1002800053B94AB9002908BF00281CBF4FF0FF31FD
:100290004FF0FF3000F088B9ADF1080C6DE904CEE5
:1002A00000F006F8DDF804E0DDE9022304B0704751
:1002B0002DE9F047089D8E4604468846002B4AD11A
:1002C0008A42174662D9B2FA82F64EB1C6F12003CD
:1002D00001FA06F820FA03F3B74043EA0808B440ED
:1002E0004FEA174E1FFA87FCB8FBFEF1230C0EFBFA
:1002F000118843EA084301FB0CF29A4209D9FB1822
:1003000001F1FF3080F0EA809A4240F2E780023942
:100310003B449A1AA3B2B2FBFEF00EFB102243EA52
:10032000024300FB0CFC9C4509D9FB1800F1FF328D
:1003300080F0D6809C4540F2D3803B44023840EAAE
:100340000140A3EB0C0300211DB1F3400022C5E9DD
:100350000032BDE8F0878B4205D90DB1C5E9000137
:1003600000210846F5E7B3FA83F1002946D1734529
:1003700002D3824200F20581841A6EEB030201204F
:100380009046002DE5D0C5E90048E2E7002A00F0DC
:100390009080B2FA82F6002E40F0A4808A1A030CF4
:1003A0004FEA174E80B2BCB20121B2FBFEFC0EFB3D
:1003B0001C2243EA024304FB0CF29A4207D9FB18C1
:1003C0000CF1FF3802D29A4200F2E080C4469B1A38
:1003D000B3FBFEF20EFB123340EA034302FB04F4CC
:1003E0009C4207D9FB1802F1FF3002D29C4200F276
:1003F000CA8002461B1B42EA0C40A5E7C1F1200659
:100400008B4022FA06F71F430EFA01F420FA06F396
:100410002EFA06FE4FEA1749234300FA01F81FFAA5
:1004200087FCBEFBF9F01C0C09FB10EE44EA0E44FD
:1004300000FB0CFEA64502FA01F209D93C1900F1B5
:10044000FF3A80F09C80A64540F2998002383C44F7
:10045000A4EB0E041FFA83FEB4FBF9F309FB13446B
:100460004EEA044403FB0CFCA44508D93C1903F1F3
:10047000FF3E80F08280A4457FD9023B3C4443EAA2
:100480000040A4EB0C04A0FB02EC64457346E1467B
:1004900062D35FD05DB1B8EB030264EB090404FAE8
:1004A00006F622FA01F31E43CC40C5E900640021A0
:1004B0004FE7B1FBF2FC010C41EA0E4180B240EA89
:1004C00001423B4638463C46B846BE462026B1FB74
:1004D000F7F1A2EB080241EA0C4166E7014618E792
:1004E00010462CE7C6F120022EFA02F3B740B140C5
:1004F00020FA02F24FEA174E0A43B3FBFEF8BCB2F1
:100500000EFB1833110C41EA034108FB04F9B0401B
:1005100089454FEA104380B23ED9791808F1FF3C73
:1005200001D289451FD8A1EB0901B1FBFEF909FBF6
:1005300004F80EFB191192B242EA0142424529D257
:10054000BA1809F1FF31C4D24245C2D2A9F1020161
:100550003A44BEE7F0459DD2BEEB02036CEB070CBC
:100560000138E14696E7A7EB09094944A8F1020CD6
:10057000B1FBFEF909FB04F8DBE773467FE7504661
:1005800066E70846FDE63B44023A33E7ACF1020C6D
:100590003B441CE749469CE7A1EB0901C446B1FB7B
:1005A000FEF909FB04F8C4E7704700BF80B500AF4F
:1005B00001F022F900F05CF800F0B0FB00F08EFBD7
:1005C00000F046F900F058F900F05EFB00F00CF97D
:1005D00000F024FB00F07AFA00F07CF900F0CAFA8F
:1005E00000F020FA00F0AEF820221449144804F07C
:1005F000EBF904F017FF134805F00BF80346124A15
:100600001360124A0021124804F056FF0346114AB3
:100610001360114A0021114804F04EFF0346104AAE
:100620001360104A0021104804F046FF03460F4AA9
:10063000136004F01BFF00BFFDE700BF680300204C
:10064000B00200208C8F000864030020208F000877
:10065000590E000858030020448F0008750F000849
:100660005C030020688F0008950F000860030020DD
:1006700080B594B000AF07F1200330220021184666
:1006800007F0B8FD07F10C0300221A605A609A6067
:10069000DA601A610023BB60284B1B6C274A43F0C9
:1006A00080531364254B1B6C03F08053BB60BB6805
:1006B00000237B60224B1B68214A43F48043136074
:1006C0001F4B1B6803F480437B607B6801233B6204
:1006D0004FF480337B620223BB634FF48003FB63E0
:1006E00004233B6464237B640223BB640423FB6414
:1006F00007F12003184602F0A1FB0346002B01D0AE
:1007000000F06AFC0F23FB6002233B6100237B6146
:100710004FF4A053BB614FF4A053FB6107F10C03EE
:100720000321184602F002FE0346002B01D000F020
:1007300053FC00BF5037BD4680BD00BF00380240AB
:100740000070004080B584B000AF3B4600221A60C4
:100750005A609A60DA60214B214A1A601F4B0022CE
:100760005A601E4B00229A601C4B00221A611B4BE0
:1007700000221A76194B002283F82020174B002202
:10078000DA62164B174A9A62144B0022DA60134B56
:100790000122DA61114B002283F830200F4B012235
:1007A0005A610E4801F06AF80346002B01D000F0B0
:1007B00013FC03233B6001237B600023BB603B46AB
:1007C0001946064801F09EF80346002B01D000F0C0
:1007D00003FC00BF1037BD4680BD00BF7C00002079
:1007E000002001400100000F80B500AF164B174AF2
:1007F0001A60154B10225A60134B00229A60124B5C
:100800000022DA60104B00221A610F4B00225A615D
:100810000D4B00221A760C4B00225A760A4B00220E
:100820009A76094B0022DA76074B00221A77064B9C
:1008300000225A77044801F083FA0346002B01D0C6
:1008400000F0CAFB00BF80BDC4000020006400406F
:1008500080B500AF064B074A1A60054801F04EFC10
:100860000346002B01D000F0B7FB00BF80BD00BFE6
:10087000EC0000200030024080B500AF124B134A5C
:100880001A60114B124A5A600F4B00229A600E4BAD
:100890000022DA600C4B4FF480421A610A4B0022AE
:1008A0005A61094B00229A61074B0022DA61064B1C
:1008B00000221A62044802F07DF90346002B01D0A1
:1008C00000F08AFB00BF80BDF4000020005400400F
:1008D000801A060080B592B000AF07F140030022F5
:1008E0001A605A6007F1240300221A605A609A6065
:1008F000DA601A615A619A613B1D20220021184674
:1009000007F078FC454B464A1A60444B00225A6077
:10091000424B60229A60414B40F28162DA603F4B69
:1009200000221A613D4B00225A613C4B00229A6121
:100930003A4803F075F80346002B01D000F04CFB59
:1009400000233B6400237B6407F1400319463348CE
:1009500003F008FF0346002B01D000F03DFB6023AD
:100960007B620023BB620023FB6200233B63002306
:100970007B630023BB630023FB6307F12403002296
:100980001946264803F088FB0346002B01D000F0EF
:1009900023FB07F1240304221946204803F07CFBC3
:1009A0000346002B01D000F017FB07F124030822B7
:1009B00019461A4803F070FB0346002B01D000F0E3
:1009C0000BFB07F124030C221946144803F064FBC7
:1009D0000346002B01D000F0FFFA00237B600023C8
:1009E000BB600023FB6000233B6100237B614FF46D
:1009F0000053BB6100233B623B1D1946074803F0CF
:100A00002DFF0346002B01D000F0E6FA034800F06A
:100A100021FD00BF4837BD4680BD00BF4801002012
:100A20000000014080B58CB000AF07F10C03242218
:100A30000021184607F0DEFB3B1D00221A605A60B9
:100A4000214B4FF080421A601F4B00225A601E4B10
:100A500000229A601C4B4FF0FF32DA601A4B0022E2
:100A60001A61194B00229A610123FB6000233B614C
:100A700001237B610023BB610023FB6100233B62F8
:100A800001237B620023BB620023FB6207F10C039E
:100A900019460D4803F0DCF80346002B01D000F0A6
:100AA0009BFA00237B600023BB603B1D1946064870
:100AB00003F058FE0346002B01D000F08DFA00BF72
:100AC0003037BD4680BD00BF9001002080B58CB09E
:100AD00000AF07F10C0324220021184607F08AFB1F
:100AE0003B1D00221A605A60204B214A1A601F4B9E
:100AF00000225A601D4B00229A601C4B4FF6FF7279
:100B0000DA601A4B00221A61184B00229A61012305
:100B1000FB6000233B6101237B610023BB61002359
:100B2000FB6100233B6201237B620023BB62002345
:100B3000FB6207F10C0319460C4803F089F80346E1
:100B4000002B01D000F048FA00237B600023BB603B
:100B50003B1D1946054803F005FE0346002B01D056
:100B600000F03AFA00BF3037BD4680BDD801002002
:100B70000004004080B58CB000AF07F10C032422C4
:100B80000021184607F036FB3B1D00221A605A6010
:100B9000204B214A1A601F4B00225A601D4B002235
:100BA0009A601C4B4FF6FF72DA601A4B00221A61F2
:100BB000184B00229A610323FB6000233B61012351
:100BC0007B610023BB610023FB6100233B620123A7
:100BD0007B620023BB620023FB6207F10C03194612
:100BE0000C4803F035F80346002B01D000F0F4F96F
:100BF00000237B600023BB603B1D1946054803F0C2
:100C0000B1FD0346002B01D000F0E6F900BF3037FC
:100C1000BD4680BD200200200008004080B582B0A3
:100C200000AF3B4600221A605A60154B154A1A6005
:100C3000134B31225A60124B00229A60104B4FF630
:100C4000FF72DA600E4B00229A610D4802F0C0FD7F
:100C50000346002B01D000F0BFF900233B600023C6
:100C60007B603B461946064803F07CFD0346002B9B
:100C700001D000F0B1F900BF0837BD4680BD00BF0C
:100C8000680200200014004080B500AF114B124AEA
:100C90001A60104B4FF4E1325A600E4B00229A60FA
:100CA0000C4B0022DA600B4B00221A61094B0C221C
:100CB0005A61084B00229A61064B0022DA6105480E
:100CC00003F032FE0346002B01D000F085F900BF8F
:100CD00080BD00BFB00200200010014080B582B08E
:100CE00000AF00237B600C4B1B6B0B4A43F480036B
:100CF0001363094B1B6B03F480037B607B6800224A
:100D000005213A2001F0D0F93A2001F0E9F900BFBD
:100D10000837BD4680BD00BF0038024080B58CB0AA
:100D200000AF07F11C0300221A605A609A60DA6073
:100D30001A610023BB61344B1B6B334A43F08003C1
:100D40001363314B1B6B03F08003BB61BB69002352
:100D50007B612D4B1B6B2C4A43F0010313632A4B21
:100D60001B6B03F001037B617B6900233B61264B16
:100D70001B6B254A43F010031363234B1B6B03F0DB
:100D800010033B613B690023FB601F4B1B6B1E4A3A
:100D900043F0080313631C4B1B6B03F00803FB6059
:100DA000FB680023BB60184B1B6B174A43F004031E
:100DB0001363154B1B6B03F00403BB60BB6800237C
:100DC0007B60114B1B6B104A43F0020313630E4B05
:100DD0001B6B03F002037B607B680022C0210B4881
:100DE00001F0B4FEC023FB6101233B6200237B6260
:100DF0000023BB6207F11C031946044801F00AFDF9
:100E000000BF3037BD4680BD0038024000000240C0
:100E100080B582B000AF78607B681B68084A934257
:100E20000AD1084B084A0949094807F0B5F92022B8
:100E30000749084803F0C8FD00BF0837BD4680BD1C
:100E4000001001408C03002088030020F48E00086D
:100E500068030020B002002080B586B000AF786043
:100E60003D4802F005FD00213C4802F029FE042126
:100E70003A4802F025FE0821384802F021FE0C21F4
:100E8000364802F01DFE0021354802F087FF04219C
:100E9000334802F083FF0021324802F07FFF042133
:100EA000304802F07BFF00212F4802F077FF042139
:100EB0002D4802F073FF2B4B1B685B6A7B822B4B28
:100EC0001A68B7F91230D31AFB60294BBB60FB6874
:100ED000002BB8BF5B4207EE903AB8EEE77AD7ED49
:100EE000027A67EE277AFDEEE77A17EE903A7B6199
:100EF0007B69B3F57A7F02DB40F2E7337B61FB6805
:100F0000642B0CDD154B1B680022DA637B6983EAD6
:100F1000E372A2EBE372114B1B681A6418E0FB68E2
:100F200013F1640F0CDA7B6983EAE372A2EBE372DC
:100F30000A4B1B68DA63094B1B6800221A6407E03E
:100F4000064B1B680022DA63044B1B6800221A64FC
:100F50000A2004F043FBAEE76802002048010020AD
:100F600090010020D80100202002002088030020EA
:100F7000CDCC4C3F80B582B000AF786040210448B2
:100F800001F0FDFD4FF4FA7004F028FB00BFF5E717
:100F90000000024080B582B000AF78608021044834
:100FA00001F0EDFD4FF47A7004F018FB00BFF5E797
:100FB0000000024080B582B000AF78607B681B689B
:100FC000044A934201D100F039FC00BF0837BD4606
:100FD00080BD00BF0010004080B400AF72B600BFFB
:100FE00000BFFDE780B582B000AF00237B60124BED
:100FF0005B6C114A43F4804353640F4B5B6C03F406
:1010000080437B607B6800233B600B4B1B6C0A4A70
:1010100043F080531364084B1B6C03F080533B6018
:101020003B6800220F216FF0010001F03DF800BF86
:101030000837BD4680BD00BF0038024080B58AB089
:1010400000AF786007F1140300221A605A609A60BA
:10105000DA601A617B681B68174A934227D1002324
:101060003B61164B5B6C154A43F480735364134B1E
:101070005B6C03F480733B613B690023FB600F4BA7
:101080001B6B0E4A43F0010313630C4B1B6B03F005
:101090000103FB60FB6818237B610323BB61002312
:1010A000FB6107F114031946054801F0B3FB00BFCB
:1010B0002837BD4680BD00BF0020014000380240F7
:1010C0000000024080B58AB000AF786007F11403D9
:1010D00000221A605A609A60DA601A617B681B68A5
:1010E000194A93422CD100233B61184B1B6C174AC1
:1010F00043F000731364154B1B6C03F000733B61EA
:101100003B690023FB60114B1B6B104A43F001034A
:1011100013630E4B1B6B03F00103FB60FB684FF482
:10112000C0537B610223BB610023FB6103233B624D
:1011300009237B6207F114031946054801F06AFB95
:1011400000BF2837BD4680BD006400400038024023
:101150000000024080B485B000AF78607B681B68F7
:101160000B4A93420DD10023FB600A4B1B6B094ACB
:1011700043F480531363074B1B6B03F48053FB60F2
:10118000FB6800BF1437BD465DF8047B704700BFA5
:10119000003002400038024080B58AB000AF78606D
:1011A00007F1140300221A605A609A60DA601A612B
:1011B0007B681B68194A93422BD100233B61184B73
:1011C0001B6B174A43F002031363154B1B6B03F0B1
:1011D00002033B613B69C0237B611223BB61002397
:1011E000FB6103233B6204237B6207F1140319466E
:1011F0000C4801F00FFB0023FB60094B1B6C084AF5
:1012000043F400131364064B1B6C03F40013FB60E0
:10121000FB6800BF2837BD4680BD00BF00540040BA
:10122000003802400004024080B485B000AF78600E
:101230007B681B680B4A93420DD10023FB600A4B6D
:101240005B6C094A43F001035364074B5B6C03F08A
:101250000103FB60FB6800BF1437BD465DF8047BEB
:10126000704700BF000001400038024080B58EB0DA
:1012700000AF786007F1240300221A605A609A6078
:10128000DA601A617B681B68B3F1804F4AD1002392
:101290003B62584B1B6C574A43F001031364554B98
:1012A0001B6C03F001033B623B6A0023FB61514B63
:1012B0001B6B504A43F0010313634E4B1B6B03F04F
:1012C0000103FB61FB690023BB614A4B1B6B494A6D
:1012D00043F002031363474B1B6B03F00203BB6134
:1012E000BB6920237B620223BB620023FB620023D5
:1012F0003B6301237B6307F1240319463E4801F059
:1013000089FA08237B620223BB620023FB6200236D
:101310003B6301237B6307F124031946374801F03F
:1013200079FA63E07B681B68354A93422CD100232D
:101330007B61304B1B6C2F4A43F0020313642D4B2F
:101340001B6C03F002037B617B6900233B61294B2B
:101350001B6B284A43F004031363264B1B6B03F0FB
:1013600004033B613B69C0237B620223BB62002311
:10137000FB6200233B6302237B6307F124031946CE
:10138000204801F047FA31E07B681B681E4A93420F
:101390002CD10023FB60174B1B6C164A43F004034F
:1013A0001364144B1B6C03F00403FB60FB68002305
:1013B000BB60104B1B6B0F4A43F0080313630D4BCC
:1013C0001B6B03F00803BB60BB684FF440537B62A8
:1013D0000223BB620023FB6200233B6302237B6387
:1013E00007F124031946094801F014FA00BF383701
:1013F000BD4680BD003802400000024000040240AB
:10140000000400400008024000080040000C0240B8
:1014100080B485B000AF78607B681B680B4A93424C
:101420000DD10023FB600A4B1B6C094A43F02003DB
:101430001364074B1B6C03F02003FB60FB6800BFC9
:101440001437BD465DF8047B704700BF00140040B0
:101450000038024080B588B000AF786007F10C0317
:1014600000221A605A609A60DA601A617B681B6811
:10147000124A93421ED10023BB60114B1B6B104AD2
:1014800043F0100313630E4B1B6B03F01003BB60A0
:10149000BB684FF4D443FB6002233B6100237B61B4
:1014A0000023BB610123FB6107F10C0319460548CA
:1014B00001F0B0F900BF2037BD4680BD00000140FB
:1014C000003802400010024080B58AB000AF78605A
:1014D00007F1140300221A605A609A60DA601A61F8
:1014E0007B681B68304A93425AD100233B612F4BE3
:1014F0005B6C2E4A43F0100353642C4B5B6C03F07F
:1015000010033B613B690023FB60284B1B6B274AA0
:1015100043F001031363254B1B6B03F00103FB60D6
:10152000FB684FF4C0637B610223BB610023FB6156
:1015300003233B6207237B6207F1140319461C480F
:1015400001F068F91B4B1C4A1A601A4B4FF00062FD
:101550005A60184B00229A60164B0022DA60154B35
:101560004FF480621A61134B00225A61114B002222
:101570009A61104B0022DA610E4B00221A620D4B69
:1015800000225A620B4800F0D5FD0346002B01D023
:10159000FFF722FD7B68074ADA63064A7B6893639C
:1015A00000BF2837BD4680BD001001400038024012
:1015B00000000240F80200204064024080B58EB076
:1015C00000AF78600023FB620023BB620023FB6056
:1015D000334B1B6C324A43F010031364304B1B6CCB
:1015E00003F01003FB60FB6807F1100207F114031E
:1015F0001146184602F0BAF83B6AFB62FB6A002B00
:1016000003D102F08BF8786304E002F087F8034618
:101610005B007B637B6B234AA2FB03239B0C013B98
:10162000BB62214B214A1A601F4B40F2E732DA605D
:101630001D4ABB6A53601C4B00221A611A4B0022E0
:101640009A60194B00229A61174802F0C1F80346CC
:1016500087F8333097F83330002B1BD1124802F053
:101660006FF9034687F8333097F83330002B11D1E8
:10167000362000F035FD7B680F2B08D800227968F2
:10168000362000F011FD0A4A7B68136002E0012356
:1016900087F8333097F8333018463837BD4680BD69
:1016A0000038024083DE1B439003002000100040FE
:1016B0000400002080B400AF00BFFDE780B400AF9D
:1016C00000BFFDE780B400AF00BFFDE780B400AF0E
:1016D00000BFFDE780B400AF00BFFDE780B400AFFE
:1016E00000BFBD465DF8047B7047000080B500AFC9
:1016F000024802F0E1FB00BF80BD00BF9003002064
:1017000080B500AF024800F01BFE00BF80BD00BFE7
:10171000F802002080B586B000AF7860144A154BFF
:10172000D31A7B617B693B61134B1B68002B02D191
:10173000114B124A1A60104B1A687B6813443A69BD
:101740009A4207D206F0BCFD03460C221A604FF005
:10175000FF3309E0084B1B68FB60074B1A687B6886
:101760001344054A1360FB6818461837BD4680BD10
:101770000000022000040000D8030020104F0020C9
:1017800080B400AF064BD3F88830054A43F47003A9
:10179000C2F8883000BFBD465DF8047B704700BFCB
:1017A00000ED00E0DFF834D0FFF7EAFF0C480D4908
:1017B0000D4A002302E0D458C4500433C4188C42AC
:1017C000F9D30A4A0A4C002301E013600432A24212
:1017D000FBD306F07BFDFEF7E9FE70470000022018
:1017E0000000002060000020EC9000086000002055
:1017F000104F0020FEE7000080B500AF0E4B1B68C5
:101800000D4A43F4007313600B4B1B680A4A43F400
:1018100080631360084B1B68074A43F480731360AE
:10182000032000F036FC0F20FFF7C8FEFFF7DAFBBD
:101830000023184680BD00BF003C024080B400AFCA
:10184000064B1B781A46064B1B681344044A136068
:1018500000BFBD465DF8047B704700BF0800002054
:10186000DC03002080B400AF034B1B681846BD4664
:101870005DF8047B704700BFDC03002080B584B0B6
:1018800000AF78600023FB737B68002B01D101233C
:1018900033E07B681B6C002B09D17868FFF7CEFB27
:1018A0007B6800225A647B68002283F83C207B68B6
:1018B0001B6C03F01003002B18D17B681B6C23F406
:1018C000885323F0020343F002027B681A647868AD
:1018D00000F03AF97B6800225A647B681B6C23F0A5
:1018E000030343F001027B681A6401E00123FB73E8
:1018F0007B68002283F83C20FB7B18461037BD46EE
:1019000080BD000080B485B000AF786039600023EE
:10191000BB607B6893F83C30012B01D1022305E1C9
:101920007B68012283F83C203B681B68092B25D982
:101930007B681B68D9683B681B689BB21A461346D4
:101940005B0013441E3B072202FA03F3DA437B6871
:101950001B680A40DA607B681B68D9683B689A6834
:101960003B681B689BB2184603465B0003441E3B62
:101970009A407B681B680A43DA6022E07B681B6838
:1019800019693B681B689BB21A4613465B001344F7
:10199000072202FA03F3DA437B681B680A401A61E4
:1019A0007B681B6819693B689A683B681B689BB237
:1019B000184603465B0003449A407B681B680A4351
:1019C0001A613B685B68062B24D87B681B68596BDF
:1019D0003B685A6813469B001344053B1F2202FADA
:1019E00003F3DA437B681B680A405A637B681B6811
:1019F000596B3B681B689BB218463B685A68134694
:101A00009B001344053B00FA03F27B681B680A4302
:101A10005A634CE03B685B680C2B24D87B681B68DE
:101A2000196B3B685A6813469B001344233B1F22E3
:101A300002FA03F3DA437B681B680A401A637B6887
:101A40001B68196B3B681B689BB218463B685A6859
:101A500013469B001344233B00FA03F27B681B6888
:101A60000A431A6323E07B681B68D96A3B685A689B
:101A700013469B001344413B1F2202FA03F3DA434F
:101A80007B681B680A40DA627B681B68D96A3B681E
:101A90001B689BB218463B685A6813469B00134468
:101AA000413B00FA03F27B681B680A43DA62224B6F
:101AB000FB607B681B68214A934209D13B681B6825
:101AC000122B05D1FB685B6843F48002FB685A6007
:101AD0007B681B68194A934223D13B681B68102B13
:101AE00003D03B681B68112B1BD1FB685B6843F478
:101AF0000002FB685A603B681B68102B11D1104B29
:101B00001B68104AA2FB03239A0C13469B00134444
:101B10005B00BB6002E0BB68013BBB60BB68002BA5
:101B2000F9D17B68002283F83C2000231846143743
:101B3000BD465DF8047B7047002301400020014052
:101B40000000002083DE1B4380B485B000AF7860C6
:101B5000794BFB60FB685B6823F44032FB685A609A
:101B6000FB685A687B685B681A43FB685A607B684D
:101B70001B685A687B681B6822F480725A607B6815
:101B80001B6859687B681B691A027B681B680A43DB
:101B90005A607B681B685A687B681B6822F0407239
:101BA0005A607B681B6859687B689A687B681B6809
:101BB0000A435A607B681B689A687B681B6822F43A
:101BC00000629A607B681B6899687B68DA687B684A
:101BD0001B680A439A607B689B6A584A934222D0EA
:101BE0007B681B689A687B681B6822F070629A6049
:101BF0007B681B6899687B689A6A7B681B680A43E4
:101C00009A607B681B689A687B681B6822F0405268
:101C10009A607B681B6899687B68DA6A7B681B68D6
:101C20000A439A600FE07B681B689A687B681B68B0
:101C300022F070629A607B681B689A687B681B68F8
:101C400022F040529A607B681B689A687B681B6828
:101C500022F002029A607B681B6899687B681B7E91
:101C60005A007B681B680A439A607B6893F82030AF
:101C7000002B1BD07B681B685A687B681B6842F48A
:101C800000625A607B681B685A687B681B6822F494
:101C900060425A607B681B6859687B685B6A013BDD
:101CA0005A037B681B680A435A6007E07B681B681D
:101CB0005A687B681B6822F400625A607B681B6864
:101CC000DA6A7B681B6822F47002DA627B681B6840
:101CD000D96A7B68DB69013B1A057B681B680A438C
:101CE000DA627B681B689A687B681B6822F4007262
:101CF0009A607B681B6899687B6893F830305A0259
:101D00007B681B680A439A607B681B689A687B68DB
:101D10001B6822F480629A607B681B6899687B6804
:101D20005B699A027B681B680A439A6000BF14379C
:101D3000BD465DF8047B7047002301400100000FA1
:101D400080B584B000AF78607B68002B01D101239F
:101D5000EDE07B6893F82030DBB2002B02D178688D
:101D6000FFF7B0F97B681B681A687B681B6842F054
:101D700001021A60FFF776FDF86012E0FFF772FDCE
:101D80000246FB68D31A0A2B0BD97B685B6A43F4C3
:101D900000327B685A627B68052283F82020012389
:101DA000C5E07B681B685B6803F00103002BE5D08E
:101DB0007B681B681A687B681B6822F002021A6045
:101DC000FFF750FDF86012E0FFF74CFD0246FB689C
:101DD000D31A0A2B0BD97B685B6A43F400327B6809
:101DE0005A627B68052283F8202001239FE07B68EC
:101DF0001B685B6803F00203002BE5D17B681B7E48
:101E0000012B08D17B681B681A687B681B6842F04D
:101E100080021A6007E07B681B681A687B681B6891
:101E200022F080021A607B685B7E012B08D17B6800
:101E30001B681A687B681B6842F040021A6007E062
:101E40007B681B681A687B681B6822F040021A6076
:101E50007B689B7E012B08D17B681B681A687B68B6
:101E60001B6842F020021A6007E07B681B681A6852
:101E70007B681B6822F020021A607B68DB7E012BE6
:101E800008D17B681B681A687B681B6822F0100207
:101E90001A6007E07B681B681A687B681B6842F061
:101EA00010021A607B681B7F012B08D17B681B68BE
:101EB0001A687B681B6842F008021A6007E07B68BA
:101EC0001B681A687B681B6822F008021A607B682E
:101ED0005B7F012B08D17B681B681A687B681B68D5
:101EE00042F004021A6007E07B681B681A687B688E
:101EF0001B6822F004021A607B689A687B68DB68C2
:101F00001A437B681B691A437B685B6942EA0301D9
:101F10007B685B685A1E7B681B680A43DA617B68D2
:101F200000225A627B68012283F820200023184691
:101F30001037BD4680BD000080B485B000AF78602A
:101F40007B6803F00703FB600C4BDB68BB60BA687F
:101F50004FF6FF031340BB60FB681A02BB681343D4
:101F600043F0BF6343F40033BB60044ABB68D360F3
:101F700000BF1437BD465DF8047B704700ED00E0FC
:101F800080B400AF044BDB681B0A03F0070318465C
:101F9000BD465DF8047B704700ED00E080B483B07F
:101FA00000AF0346FB7197F90730002B0BDBFB7981
:101FB00003F01F02074997F907305B09012000FA77
:101FC00002F241F8232000BF0C37BD465DF8047BC8
:101FD000704700BF00E100E080B483B000AF03466B
:101FE0003960FB7197F90730002B0ADB3B68DAB2E6
:101FF0000C4997F907301201D2B20B4483F8002341
:102000000AE03B68DAB20849FB7903F00F03043BAE
:102010001201D2B20B441A7600BF0C37BD465DF8F0
:10202000047B704700E100E000ED00E080B489B07F
:1020300000AFF860B9607A60FB6803F00703FB61EA
:10204000FB69C3F10703042B28BF0423BB61FB69B1
:102050000433062B02D9FB69033B00E000237B61BC
:102060004FF0FF32BB6902FA03F3DA43BB681A4050
:102070007B699A404FF0FF317B6901FA03F3D94342
:102080007B680B40134318462437BD465DF8047B3C
:10209000704780B582B000AF78607868FFF74CFF7A
:1020A00000BF0837BD4680BD80B586B000AF03468F
:1020B000B9607A60FB7300237B61FFF761FF786191
:1020C0007A68B9687869FFF7B1FF024697F90F306F
:1020D00011461846FFF780FF00BF1837BD4680BD88
:1020E00080B582B000AF0346FB7197F90730184600
:1020F000FFF754FF00BF0837BD4680BD80B582B0F2
:1021000000AF78607B68002B01D101230EE07B6873
:102110005B79DBB2002B05D17B6800221A717868ED
:10212000FFF718F87B6801225A7100231846083718
:10213000BD4680BD80B586B000AF786000237B616E
:10214000FFF790FB38617B68002B01D1012399E0F8
:102150007B68022283F835207B68002283F83420D4
:102160007B681B681A687B681B6822F001021A6092
:102170000FE0FFF777FB02463B69D31A052B08D91E
:102180007B6820225A657B68032283F8352003236D
:1021900078E07B681B681B6803F00103002BE8D123
:1021A0007B681B681B687B617A69384B13407B61D5
:1021B0007B685A687B689B681A437B68DB681A43B4
:1021C0007B681B691A437B685B691A437B689B6960
:1021D0001A437B68DB691A437B681B6A13437A697D
:1021E00013437B617B685B6A042B07D17B68DA6AE7
:1021F0007B681B6B13437A6913437B617B681B68A5
:102200007A691A607B681B685B697B617B6923F074
:1022100007037B617B685B6A7A6913437B617B6838
:102220005B6A042B17D17B689B6A7A6913437B61D5
:102230007B68DB6A002B0ED0786800F06FFA0346EB
:10224000002B08D07B6840225A657B68012283F806
:102250003520012316E07B681B687A695A6178682B
:1022600000F026FA0346FB607B68DB6D3F229A4054
:10227000FB689A607B6800225A657B68012283F8BC
:102280003520002318461837BD4680BD3F8010F02A
:1022900080B586B000AFF860B9607A603B6000231B
:1022A000FB75FB689B6D3B61FB6893F83430012B39
:1022B00001D1022340E0FB68012283F83420FB684F
:1022C00093F83530DBB2012B2FD1FB68022283F863
:1022D0003520FB6800225A653B687A68B968F8685F
:1022E00000F0B8F9FB68DB6D3F229A403B699A60C9
:1022F000FB681B681A68FB681B6842F016021A60CC
:10230000FB681B6C002B07D0FB681B681A68FB6816
:102310001B6842F008021A60FB681B681A68FB68B9
:102320001B6842F001021A6005E0FB68002283F896
:1023300034200223FB75FB7D18461837BD4680BD4F
:1023400080B586B000AF78600023BB608E4B1B6801
:102350008E4AA2FB03239B0A7B617B689B6D3B61DA
:102360003B691B68FB607B68DB6D08229A40FB6859
:102370001340002B1AD07B681B681B6803F0040312
:10238000002B13D07B681B681A687B681B6822F0DF
:1023900004021A607B68DB6D08229A403B699A60F0
:1023A0007B685B6D43F001027B685A657B68DB6D7F
:1023B00001229A40FB681340002B12D07B681B68F7
:1023C0005B6903F08003002B0BD07B68DB6D01227F
:1023D0009A403B699A607B685B6D43F002027B68C0
:1023E0005A657B68DB6D04229A40FB681340002B22
:1023F00012D07B681B681B6803F00203002B0BD014
:102400007B68DB6D04229A403B699A607B685B6D58
:1024100043F004027B685A657B68DB6D10229A40AA
:10242000FB681340002B43D07B681B681B6803F0DC
:102430000803002B3CD07B68DB6D10229A403B697F
:102440009A607B681B681B6803F48023002B18D0FC
:102450007B681B681B6803F40023002B08D17B6892
:102460001B6C002B24D07B681B6C786898471FE09E
:102470007B689B6C002B1BD07B689B6C78689847B3
:1024800016E07B681B681B6803F48073002B07D180
:102490007B681B681A687B681B6822F008021A6058
:1024A0007B681B6C002B03D07B681B6C786898479B
:1024B0007B68DB6D20229A40FB681340002B00F004
:1024C0008F807B681B681B6803F01003002B00F0F3
:1024D00087807B68DB6D20229A403B699A607B682D
:1024E00093F83530DBB2052B36D17B681B681A6850
:1024F0007B681B6822F016021A607B681B685A69A9
:102500007B681B6822F080025A617B681B6C002B81
:1025100003D17B689B6C002B07D07B681B681A6813
:102520007B681B6822F008021A607B68DB6D3F2223
:102530009A403B699A607B68012283F835207B686A
:10254000002283F834207B681B6D002B7ED07B68D3
:102550001B6D7868984779E07B681B681B6803F4FB
:102560008023002B1DD07B681B681B6803F40023AD
:10257000002B0DD17B685B6C002B31D07B685B6CD2
:10258000786898472CE000BF00000020B5814E1B02
:102590007B68DB6B002B23D07B68DB6B786898470C
:1025A0001EE07B681B681B6803F48073002B0FD14F
:1025B0007B681B681A687B681B6822F010021A602F
:1025C0007B68012283F835207B68002283F8342061
:1025D0007B68DB6B002B03D07B68DB6B78689847EC
:1025E0007B685B6D002B32D07B685B6D03F0010371
:1025F000002B22D07B68052283F835207B681B687E
:102600001A687B681B6822F001021A60BB680133FC
:10261000BB607A699A4207D37B681B681B6803F02A
:102620000103002BF2D100E000BF7B68012283F898
:1026300035207B68002283F834207B68DB6C002B1C
:1026400005D07B68DB6C7868984700E000BF1837DE
:10265000BD4680BD80B485B000AFF860B9607A60D7
:102660003B60FB681B681A68FB681B6822F48022C9
:102670001A60FB681B683A685A60FB689B68402BCD
:1026800008D1FB681B687A689A60FB681B68BA68A7
:10269000DA6007E0FB681B68BA689A60FB681B6831
:1026A0007A68DA6000BF1437BD465DF8047B704776
:1026B00080B485B000AF78607B681B68DBB2103BEC
:1026C000144AA2FB03231B09FB60134AFB68134453
:1026D0001B781A467B68DA65FB68032B09D97B688F
:1026E0001B6823F47F7323F003031A1D7B689A652C
:1026F00007E07B681B6823F47F7323F003037A6889
:1027000093657B689B6D18461437BD465DF8047B66
:10271000704700BFABAAAAAAB48F000880B485B0E6
:1027200000AF78600023FB737B689B6ABB607B68AB
:102730009B69002B1FD1BB68032B56D801A252F80E
:1027400023F000BF55270008672700085527000819
:10275000EB2700087B68DB6A03F08073002B46D010
:102760000123FB7343E07B68DB6AB3F1C07F40D198
:102770000123FB733DE07B689B69B3F5005F21D1CA
:10278000BB68032B37D801A252F823F09D2700081D
:10279000A32700089D270008B52700080123FB7325
:1027A00030E07B68DB6A03F08073002B25D00123C7
:1027B000FB7322E07B68DB6AB3F1C07F1FD101238A
:1027C000FB731CE0BB68022B03D9BB68032B03D04F
:1027D00018E00123FB7315E07B68DB6A03F080736C
:1027E000002B0ED00123FB730BE000BF0AE000BFFB
:1027F00008E000BF06E000BF04E000BF02E000BF49
:1028000000E000BFFB7B18461437BD465DF8047B33
:10281000704700BF80B489B000AF78603960002392
:102820007B6100233B610023BB610023FB616BE103
:102830000122FB6902FA03F37B613B681B687A693A
:1028400013403B613A697B699A4240F05A813B6888
:102850005B6803F00303012B05D03B685B6803F062
:102860000303022B30D17B689B68BB61FB695B0073
:10287000032202FA03F3DB43BA691340BB613B68EE
:10288000DA68FB695B0002FA03F3BA691343BB61C0
:102890007B68BA699A607B685B68BB610122FB69EF
:1028A00002FA03F3DB43BA691340BB613B685B6820
:1028B0001B0903F00102FB6902FA03F3BA6913432F
:1028C000BB617B68BA695A603B685B6803F00303CD
:1028D000032B17D07B68DB68BB61FB695B000322BD
:1028E00002FA03F3DB43BA691340BB613B689A68A1
:1028F000FB695B0002FA03F3BA691343BB617B68AF
:10290000BA69DA603B685B6803F00303022B23D1EA
:10291000FB69DA087B68083253F82230BB61FB6937
:1029200003F007039B000F2202FA03F3DB43BA69AB
:102930001340BB613B681A69FB6903F007039B0006
:1029400002FA03F3BA691343BB61FB69DA087B68D7
:102950000832B96943F822107B681B68BB61FB69C8
:102960005B00032202FA03F3DB43BA691340BB6145
:102970003B685B6803F00302FB695B0002FA03F348
:10298000BA691343BB617B68BA691A603B685B68CC
:1029900003F44033002B00F0B4800023FB60604B55
:1029A0005B6C5F4A43F4804353645D4B5B6C03F4A0
:1029B0008043FB60FB685B4AFB699B08023352F86B
:1029C0002330BB61FB6903F003039B000F2202FA73
:1029D00003F3DB43BA691340BB617B68524A9342FD
:1029E0002BD07B68514A934225D07B68504A934252
:1029F0001FD07B684F4A934219D07B684E4A93425E
:102A000013D07B684D4A93420DD07B684C4A934269
:102A100007D07B684B4A934201D107230EE008237D
:102A20000CE006230AE0052308E0042306E0032364
:102A300004E0022302E0012300E00023FA6902F02F
:102A4000030292009340BA691343BB613549FB69A5
:102A50009B080233BA6941F823203B4B9B68BB615A
:102A60003B69DB43BA691340BB613B685B6803F4B5
:102A70008013002B03D0BA693B691343BB61324A10
:102A8000BB699360304BDB68BB613B69DB43BA6970
:102A90001340BB613B685B6803F40013002B03D059
:102AA000BA693B691343BB61274ABB69D360264BB4
:102AB0005B68BB613B69DB43BA691340BB613B6840
:102AC0005B6803F40033002B03D0BA693B691343FE
:102AD000BB611D4ABB6953601B4B1B68BB613B69F3
:102AE000DB43BA691340BB613B685B6803F4803326
:102AF000002B03D0BA693B691343BB61124ABB691F
:102B00001360FB690133FB61FB690F2B7FF690AE0D
:102B100000BF00BF2437BD465DF8047B704700BF8F
:102B2000003802400038014000000240000402402A
:102B300000080240000C0240001002400014024055
:102B400000180240001C0240003C014080B483B0E9
:102B500000AF78600B467B8013467B707B78002B40
:102B600003D07A887B689A6103E07B881A047B68CB
:102B70009A6100BF0C37BD465DF8047B704780B496
:102B800085B000AF78600B467B807B685B69FB603B
:102B90007A88FB6813401A04FB68D9437B880B4092
:102BA0001A437B689A6100BF1437BD465DF8047B09
:102BB0007047000080B584B000AF78607B68002B60
:102BC00001D101232BE17B6893F83D30DBB2002B70
:102BD00006D17B68002283F83C207868FEF7DCFA97
:102BE0007B68242283F83D207B681B681A687B6819
:102BF0001B6822F001021A607B681B681A687B68F8
:102C00001B6842F400421A607B681B681A687B6884
:102C10001B6822F400421A6000F080FDF8607B68B7
:102C20005B68814A934207D8FB68804A934294BF0D
:102C300001230023DBB206E0FB687D4A934294BF88
:102C400001230023DBB2002B01D00123E7E0FB6866
:102C5000784AA2FB03239B0CBB607B681B685B6804
:102C600023F03F017B681B68BA680A435A607B689F
:102C70001B681B6A23F03F017B685B686A4A9342CA
:102C800002D8BB68013309E0BB684FF4967202FBBF
:102C900003F3694AA2FB03239B0901337A68126894
:102CA0000B4313627B681B68DB6923F44F4222F0FD
:102CB000FF027B685B685C498B4219D8FB68591E30
:102CC0007B685B685B00B1FBF3F3591C40F6FC7357
:102CD0000B40002B0AD0FB68591E7B685B685B00C9
:102CE000B1FBF3F30133C3F30B0351E004234FE0D3
:102CF0007B689B68002B11D1FB68581E7B68596864
:102D00000B465B000B44B0FBF3F30133C3F30B033F
:102D1000002B0CBF01230023DBB212E0FB68581E1E
:102D20007B6859680B469B000B4499000B44B0FB31
:102D3000F3F30133C3F30B03002B0CBF0123002378
:102D4000DBB2002B01D0012322E07B689B68002BC3
:102D50000ED1FB68581E7B6859680B465B000B441C
:102D6000B0FBF3F30133C3F30B0343F400430FE071
:102D7000FB68581E7B6859680B469B000B44990002
:102D80000B44B0FBF3F30133C3F30B0343F44043B1
:102D9000796809681343CB617B681B681B6823F063
:102DA000C0017B68DA697B681B6A1A437B681B6811
:102DB0000A431A607B681B689B6823F4034323F073
:102DC000FF037A6811697A68D26811437A681268D9
:102DD0000B4393607B681B68DB6823F0FF017B6813
:102DE0005A697B689B691A437B681B680A43DA60EF
:102DF0007B681B681A687B681B6842F001021A60D6
:102E00007B6800221A647B68202283F83D207B685F
:102E100000221A637B68002283F83E2000231846B4
:102E20001037BD4680BD00BFA08601007F841E0014
:102E3000FF083D0083DE1B43D34D621080B586B092
:102E400000AF78607B68002B01D1012367E27B68CB
:102E50001B6803F00103002B75D0884B9B6803F0BF
:102E60000C03042B0CD0854B9B6803F00C03082B40
:102E700012D1824B5B6803F48003B3F5800F0BD152
:102E80007E4B1B6803F40033002B5BD07B685B68D0
:102E9000002B57D1012342E27B685B68B3F5803F8A
:102EA00006D1764B1B68754A43F4803313601DE0EE
:102EB0007B685B68B3F5A02F0CD1704B1B686F4A21
:102EC00043F4802313606D4B1B686C4A43F48033DA
:102ED00013600BE0694B1B68684A23F4803313606E
:102EE000664B1B68654A23F4802313607B685B682C
:102EF000002B13D0FEF7B6FC386108E0FEF7B2FCF9
:102F000002463B69D31A642B01D9032307E25B4BCA
:102F10001B6803F40033002BF0D014E0FEF7A2FC92
:102F2000386108E0FEF79EFC02463B69D31A642B29
:102F300001D90323F3E1514B1B6803F40033002B49
:102F4000F0D100E000BF7B681B6803F00203002B98
:102F500063D04A4B9B6803F00C03002B0BD0474B0C
:102F60009B6803F00C03082B1CD1444B5B6803F4F3
:102F70008003002B16D1414B1B6803F00203002B8A
:102F800005D07B68DB68012B01D00123C7E13B4BF7
:102F90001B6823F0F8027B681B69DB003749134389
:102FA0000B603AE07B68DB68002B20D0344B0122B9
:102FB0001A60FEF757FC386108E0FEF753FC024642
:102FC0003B69D31A022B01D90323A8E12B4B1B68C1
:102FD00003F00203002BF0D0284B1B6823F0F8020B
:102FE0007B681B69DB00254913430B6015E0244B0C
:102FF00000221A60FEF736FC386108E0FEF732FC6A
:1030000002463B69D31A022B01D9032387E11B4BEC
:103010001B6803F00203002BF0D17B681B6803F0F0
:103020000803002B36D07B685B69002B16D0154B4C
:1030300001221A60FEF716FC386108E0FEF712FC68
:1030400002463B69D31A022B01D9032367E10B4BDC
:103050005B6F03F00203002BF0D01BE0094B002252
:103060001A60FEF7FFFB38610EE0FEF7FBFB02463D
:103070003B69D31A022B07D9032350E100380240E1
:1030800000004742800E4742884B5B6F03F002030B
:10309000002BEAD17B681B6803F00403002B00F0CF
:1030A00097800023FB75814B1B6C03F08053002B32
:1030B0000FD10023BB607D4B1B6C7C4A43F08053D7
:1030C00013647A4B1B6C03F08053BB60BB68012315
:1030D000FB75774B1B6803F48073002B18D1744B7E
:1030E0001B68734A43F480731360FEF7BBFB3861BF
:1030F00008E0FEF7B7FB02463B69D31A022B01D961
:1031000003230CE16A4B1B6803F48073002BF0D09F
:103110007B689B68012B06D1644B1B6F634A43F0AD
:10312000010313671CE07B689B68052B0CD15F4B88
:103130001B6F5E4A43F0040313675C4B1B6F5B4AD3
:1031400043F0010313670BE0584B1B6F574A23F002
:1031500001031367554B1B6F544A23F00403136795
:103160007B689B68002B15D0FEF77CFB38610AE07A
:10317000FEF778FB02463B69D31A41F2883293424C
:1031800001D90323CBE0494B1B6F03F00203002B53
:10319000EED014E0FEF766FB38610AE0FEF762FB52
:1031A00002463B69D31A41F28832934201D9032384
:1031B000B5E03E4B1B6F03F00203002BEED1FB7D0D
:1031C000012B05D1394B1B6C384A23F08053136413
:1031D0007B689B69002B00F0A180344B9B6803F057
:1031E0000C03082B5CD07B689B69022B41D1314BCF
:1031F00000221A60FEF736FB386108E0FEF732FB6A
:1032000002463B69D31A022B01D9032387E0274BDF
:103210001B6803F00073002BF0D17B68DA697B68D0
:103220001B6A1A437B685B6A9B011A437B689B6A33
:103230005B08013B1B041A437B68DB6A1B061B49C6
:1032400013434B601B4B01221A60FEF70BFB3861E6
:1032500008E0FEF707FB02463B69D31A022B01D9AF
:1032600003235CE0114B1B6803F00073002BF0D0CC
:1032700054E0104B00221A60FEF7F4FA386108E0BF
:10328000FEF7F0FA02463B69D31A022B01D9032359
:1032900045E0064B1B6803F00073002BF0D13DE0C6
:1032A0007B689B69012B07D1012338E0003802407D
:1032B00000700040600047421B4B5B68FB607B680E
:1032C0009B69012B28D0FB6803F480027B68DB69D3
:1032D0009A4221D1FB6803F03F027B681B6A9A4245
:1032E0001AD1FA6847F6C07313407A68526A92019D
:1032F000934211D1FB6803F440327B689B6A5B0800
:10330000013B1B049A4207D1FB6803F070627B68A3
:10331000DB6A1B069A4201D0012300E00023184615
:103320001837BD4680BD00BF0038024080B584B06C
:1033300000AF786039607B68002B01D10123CCE0BD
:10334000684B1B6803F007033A689A420CD9654B37
:103350003A68D2B21A70634B1B6803F007033A68ED
:103360009A4201D00123B8E07B681B6803F0020396
:10337000002B20D07B681B6803F00403002B05D0D2
:10338000594B9B68584A43F4E05393607B681B6831
:1033900003F00803002B05D0534B9B68524A43F4BB
:1033A00060439360504B9B6823F0F0027B689B68FE
:1033B0004D4913438B607B681B6803F00103002BAE
:1033C00044D07B685B68012B07D1474B1B6803F433
:1033D0000033002B19D101237FE07B685B68022B4F
:1033E00003D07B685B68032B07D13F4B1B6803F05E
:1033F0000073002B09D101236FE03B4B1B6803F0E6
:103400000203002B01D1012367E0374B9B6823F0B7
:1034100003027B685B68344913438B60FEF722FA32
:10342000F8600AE0FEF71EFA0246FB68D31A41F282
:103430008832934201D903234FE02B4B9B6803F062
:103440000C027B685B689B009A42EBD1254B1B68A2
:1034500003F007033A689A420CD2224B3A68D2B280
:103460001A70204B1B6803F007033A689A4201D098
:10347000012332E07B681B6803F00403002B08D0B3
:10348000194B9B6823F4E0527B68DB6816491343B1
:103490008B607B681B6803F00803002B09D0124B7C
:1034A0009B6823F460427B681B69DB000E49134371
:1034B0008B6000F021F802460B4B9B681B0903F060
:1034C0000F030A49CB5C22FA03F3094A1360094B44
:1034D0001B681846FEF772F8002318461037BD46E1
:1034E00080BD00BF003C0240003802409C8F0008B5
:1034F00000000020040000202DE9B04F94B000AF80
:1035000000237B640023FB6400233B640023BB6433
:10351000794B9B6803F00C03082B0DD0082B00F2AD
:10352000E180002B02D0042B03D0DBE0734BBB64A3
:10353000DBE0734BBB64D8E06F4B5B6803F03F0389
:103540007B646D4B5B6803F48003002B63D06A4B94
:103550005B689B090022BB63FA63BB6BC3F3080380
:103560003B6300237B63D7E90C4522462B464FF093
:1035700000004FF00001590141EAD26150010246BA
:103580000B462146511A3961294663EB01037B61E1
:103590004FF000024FF00003D7E904AB59468B010E
:1035A000514643EA916351468A015146B2EB010804
:1035B000594663EB01094FF000024FF000034FEA58
:1035C000C90343EA58734FEAC80290469946234616
:1035D00018EB0303BB602B4649EB0303FB604FF082
:1035E00000024FF00003D7E9024529464B0221466D
:1035F00043EAD15321464A02104619467B6C002209
:10360000BB62FA62D7E90A23FCF73AFE02460B4690
:103610001346FB6458E0384B5B689B090022184650
:103620001146C0F308033B6200237B62D7E9088997
:1036300042464B464FF000004FF00001590141EA6D
:10364000D261500102460B464146B2EB010A49469F
:1036500063EB010B4FF000024FF000034FEA8B13B6
:1036600043EA9A634FEA8A12B2EB0A0463EB0B0552
:103670004FF000024FF00003EB0043EA5473E20006
:1036800014461D464346E3183B604B4645EB030397
:103690007B604FF000024FF00003D7E90045294658
:1036A0008B02214643EA915321468A02104619466D
:1036B0007B6C0022BB61FA61D7E90623FCF7E0FDD1
:1036C00002460B461346FB640B4B5B681B0C03F076
:1036D000030301335B003B64FA6C3B6CB2FBF3F316
:1036E000BB6402E0054BBB6400BFBB6C184650379F
:1036F000BD46BDE8B08F00BF003802400024F40092
:1037000000127A0080B400AF034B1B681846BD4618
:103710005DF8047B704700BF0000002080B500AF5B
:10372000FFF7F0FF0246054B9B689B0A03F0070377
:103730000349CB5C22FA03F3184680BD00380240EF
:10374000AC8F000880B500AFFFF7DCFF0246054BE9
:103750009B685B0B03F007030349CB5C22FA03F37E
:10376000184680BD00380240AC8F000880B483B09A
:1037700000AF786039607B680F221A60124B9B683B
:1037800003F003027B685A600F4B9B6803F0F00262
:103790007B689A600C4B9B6803F4E0527B68DA60AC
:1037A000094B9B68DB0803F4E0527B681A61074B06
:1037B0001B6803F007023B681A6000BF0C37BD4668
:1037C0005DF8047B704700BF00380240003C0240B7
:1037D00080B582B000AF78607B68002B01D10123F7
:1037E00041E07B6893F83D30DBB2002B06D17B686B
:1037F000002283F83C207868FDF70AFE7B680222ED
:1038000083F83D207B681A687B68043319461046AC
:1038100000F02CFD7B68012283F846207B680122A2
:1038200083F83E207B68012283F83F207B680122D9
:1038300083F840207B68012283F841207B680122C5
:1038400083F842207B68012283F843207B680122B1
:1038500083F844207B68012283F845207B6801229D
:1038600083F83D20002318460837BD4680BD000080
:1038700080B485B000AF78607B6893F83D30DBB2F0
:10388000012B01D0012346E07B68022283F83D2012
:103890007B681B68234A934222D07B681B68B3F184
:1038A000804F1DD07B681B681F4A934218D07B68ED
:1038B0001B681E4A934213D07B681B681C4A9342C4
:1038C0000ED07B681B681B4A934209D07B681B683B
:1038D000194A934204D07B681B68184A934211D15D
:1038E0007B681B689B6803F00703FB60FB68062B83
:1038F00010D07B681B681A687B681B6842F0010265
:103900001A6007E07B681B681A687B681B6842F0D6
:1039100001021A60002318461437BD465DF8047B87
:10392000704700BF00000140000400400008004054
:10393000000C00400004014000400140001800401D
:1039400080B485B000AF78607B6893F83D30DBB21F
:10395000012B01D001234EE07B68022283F83D2039
:103960007B681B68DA687B681B6842F00102DA60DA
:103970007B681B68234A934222D07B681B68B3F1A3
:10398000804F1DD07B681B681F4A934218D07B680C
:103990001B681E4A934213D07B681B681C4A9342E3
:1039A0000ED07B681B681B4A934209D07B681B685A
:1039B000194A934204D07B681B68184A934211D17C
:1039C0007B681B689B6803F00703FB60FB68062BA2
:1039D00010D07B681B681A687B681B6842F0010284
:1039E0001A6007E07B681B681A687B681B6842F0F6
:1039F00001021A60002318461437BD465DF8047BA7
:103A0000704700BF00000140000400400008004073
:103A1000000C00400004014000400140001800403C
:103A200080B582B000AF78607B68002B01D10123A4
:103A300041E07B6893F83D30DBB2002B06D17B6818
:103A4000002283F83C207868FDF7EEFB7B680222B9
:103A500083F83D207B681A687B680433194610465A
:103A600000F004FC7B68012283F846207B68012279
:103A700083F83E207B68012283F83F207B68012287
:103A800083F840207B68012283F841207B68012273
:103A900083F842207B68012283F843207B6801225F
:103AA00083F844207B68012283F845207B6801224B
:103AB00083F83D20002318460837BD4680BD00002E
:103AC00080B584B000AF786039603B68002B09D1C5
:103AD0007B6893F83E30DBB2012B14BF0123002337
:103AE000DBB222E03B68042B09D17B6893F83F30BE
:103AF000DBB2012B14BF01230023DBB215E03B68CE
:103B0000082B09D17B6893F84030DBB2012B14BF3E
:103B100001230023DBB208E07B6893F84130DBB27D
:103B2000012B14BF01230023DBB2002B01D00123A2
:103B30007CE03B68002B04D17B68022283F83E20A6
:103B400013E03B68042B04D17B68022283F83F20FA
:103B50000BE03B68082B04D17B68022283F84020ED
:103B600003E07B68022283F841207B681B68012206
:103B70003968184600F0D0FD7B681B682D4A9342D7
:103B800004D07B681B682C4A934201D1012300E0DA
:103B90000023002B07D07B681B685A6C7B681B686E
:103BA00042F400425A647B681B68224A934222D046
:103BB0007B681B68B3F1804F1DD07B681B681F4A70
:103BC000934218D07B681B681D4A934213D07B68D0
:103BD0001B681C4A93420ED07B681B68164A9342AE
:103BE00009D07B681B68184A934204D07B681B6825
:103BF000164A934211D17B681B689B6803F0070348
:103C0000FB60FB68062B10D07B681B681A687B681A
:103C10001B6842F001021A6007E07B681B681A68A3
:103C20007B681B6842F001021A60002318461037B7
:103C3000BD4680BD0000014000040140000400407A
:103C400000080040000C0040004001400018004007
:103C500080B586B000AF786039607B68002B01D1F9
:103C6000012397E07B6893F83D30DBB2002B06D14F
:103C70007B68002283F83C207868FDF7F7FA7B68C0
:103C8000022283F83D207B681B689B687A68126873
:103C900023F4804323F0070393607B681A687B68F2
:103CA00004331946104600F0E1FA7B681B689B68F4
:103CB0007B617B681B689B693B617B681B681B6A37
:103CC000FB603B681B687A6913437B613B6923F4A3
:103CD000407323F003033B613B689A683B689B6930
:103CE0001B0213433A6913433B613B6923F440636E
:103CF00023F00C033B613B6923F4704323F0F00392
:103D00003B613B68DA683B68DB691B0213433A6935
:103D100013433B613B681B691A013B681B6A1B0329
:103D200013433A6913433B61FB6823F02203FB60B2
:103D3000FB6823F08803FB603B685A683B685B695B
:103D40001B011343FA681343FB607B681B687A69A5
:103D50009A607B681B683A699A617B681B68FA689D
:103D60001A627B68012283F846207B68012283F86F
:103D70003E207B68012283F83F207B68012283F884
:103D800042207B68012283F843207B68012283F86C
:103D90003D20002318461837BD4680BD80B584B04D
:103DA00000AF786039607B6893F83E30FB737B68C6
:103DB00093F83F30BB737B6893F842307B737B682A
:103DC00093F843303B733B68002B10D1FB7B012BF6
:103DD00002D17B7B012B01D0012369E07B680222A9
:103DE00083F83E207B68022283F8422031E03B6862
:103DF000042B10D1BB7B012B02D13B7B012B01D0CB
:103E0000012355E07B68022283F83F207B68022271
:103E100083F843201DE0FB7B012B08D1BB7B012BEA
:103E200005D17B7B012B02D13B7B012B01D00123F0
:103E30003EE07B68022283F83E207B68022283F802
:103E40003F207B68022283F842207B68022283F8AD
:103E500043203B68002B03D03B68042B08D00FE0C5
:103E60007B681B6801220021184600F055FC16E013
:103E70007B681B6801220421184600F04DFC0EE00F
:103E80007B681B6801220021184600F045FC7B6816
:103E90001B6801220421184600F03EFC00BF7B682D
:103EA0001B681A687B681B6842F001021A600023D5
:103EB00018461037BD4680BD80B584B000AF78602D
:103EC0007B681B68DB68FB607B681B681B69BB60E9
:103ED000BB6803F00203002B20D0FB6803F0020351
:103EE000002B1BD07B681B686FF002021A617B6895
:103EF00001221A777B681B689B6903F00303002B80
:103F000003D0786800F094F905E0786800F086F94D
:103F1000786800F097F97B6800221A77BB6803F095
:103F20000403002B20D0FB6803F00403002B1BD0FC
:103F30007B681B686FF004021A617B6802221A77A3
:103F40007B681B689B6903F44073002B03D078687F
:103F500000F06EF905E0786800F060F9786800F02C
:103F600071F97B6800221A77BB6803F00803002B05
:103F700020D0FB6803F00803002B1BD07B681B6874
:103F80006FF008021A617B6804221A777B681B684D
:103F9000DB6903F00303002B03D0786800F048F9D5
:103FA00005E0786800F03AF9786800F04BF97B6832
:103FB00000221A77BB6803F01003002B20D0FB68A7
:103FC00003F01003002B1BD07B681B686FF01002FE
:103FD0001A617B6808221A777B681B68DB6903F427
:103FE0004073002B03D0786800F022F905E0786870
:103FF00000F014F9786800F025F97B6800221A7740
:10400000BB6803F00103002B0CD0FB6803F0010335
:10401000002B07D07B681B686FF001021A6178687B
:10402000FCF7C8FFBB6803F08003002B0CD0FB68D3
:1040300003F08003002B07D07B681B686FF08002C1
:104040001A61786800F066FCBB6803F04003002B3F
:104050000CD0FB6803F04003002B07D07B681B6883
:104060006FF040021A61786800F0F6F8BB6803F060
:104070002003002B0CD0FB6803F02003002B07D09B
:104080007B681B686FF020021A61786800F038FCCA
:1040900000BF1037BD4680BD80B586B000AFF86068
:1040A000B9607A600023FB75FB6893F83C30012B04
:1040B00001D10223AEE0FB68012283F83C207B683B
:1040C0000C2B00F29F8001A252F823F0014100085E
:1040D0000542000805420008054200084141000869
:1040E0000542000805420008054200088341000817
:1040F000054200080542000805420008C3410008C7
:10410000FB681B68B968184600F056F9FB681B6825
:104110009A69FB681B6842F008029A61FB681B6899
:104120009A69FB681B6822F004029A61FB681B68AD
:104130009969BB681A69FB681B680A439A6164E065
:10414000FB681B68B968184600F0A6F9FB681B6895
:104150009A69FB681B6842F400629A61FB681B68FD
:104160009A69FB681B6822F480629A61FB681B688D
:104170009969BB681B691A02FB681B680A439A614C
:1041800043E0FB681B68B968184600F0FBF9FB6860
:104190001B68DA69FB681B6842F00802DA61FB6899
:1041A0001B68DA69FB681B6822F00402DA61FB68AD
:1041B0001B68D969BB681A69FB681B680A43DA6126
:1041C00023E0FB681B68B968184600F04FFAFB68EB
:1041D0001B68DA69FB681B6842F40062DA61FB68FD
:1041E0001B68DA69FB681B6822F48062DA61FB688D
:1041F0001B68D969BB681B691A02FB681B680A4304
:10420000DA6102E00123FB7500BFFB68002283F83E
:104210003C20FB7D18461837BD4680BD80B483B076
:1042200000AF786000BF0C37BD465DF8047B704777
:1042300080B483B000AF786000BF0C37BD465DF836
:10424000047B704780B483B000AF786000BF0C3748
:10425000BD465DF8047B704780B483B000AF7860E2
:1042600000BF0C37BD465DF8047B704780B485B055
:1042700000AF786039607B681B68FB607B68434AED
:10428000934213D07B68B3F1804F0FD07B68404AD4
:1042900093420BD07B683F4A934207D07B683E4AEB
:1042A000934203D07B683D4A934208D1FB6823F0D8
:1042B0007003FB603B685B68FA681343FB607B68D4
:1042C000324A93422BD07B68B3F1804F27D07B6872
:1042D0002F4A934223D07B682E4A93421FD07B689B
:1042E0002D4A93421BD07B682C4A934217D07B689F
:1042F0002B4A934213D07B682A4A93420FD07B68A3
:10430000294A93420BD07B68284A934207D07B68A6
:10431000274A934203D07B68264A934208D1FB6820
:1043200023F44073FB603B68DB68FA681343FB606F
:10433000FB6823F080023B685B691343FB603B68CA
:104340009A687B68DA623B681A687B689A627B6865
:104350000E4A934203D07B68104A934203D13B68D4
:104360001A697B681A637B681B6843F004027B68E8
:104370001A607B6801225A617B68FA681A6000BF84
:104380001437BD465DF8047B704700BF0000014054
:104390000004004000080040000C00400004014000
:1043A0000040014000440140004801400018004026
:1043B000001C00400020004080B487B000AF78604F
:1043C00039607B681B6A7B617B681B6A23F0010292
:1043D0007B681A627B685B683B617B689B69FB60FA
:1043E000FB6823F07003FB60FB6823F00303FB60B2
:1043F0003B681B68FA681343FB607B6923F0020388
:104400007B613B689B687A6913437B617B68204AC8
:10441000934203D07B681F4A93420CD17B6923F0FF
:1044200008037B613B68DB687A6913437B617B69C6
:1044300023F004037B617B68154A934203D07B68B9
:10444000144A934211D13B6923F480733B613B6969
:1044500023F400733B613B685B693A6913433B613A
:104460003B689B693A6913433B617B683A695A60D0
:104470007B68FA689A613B685A687B685A637B6814
:104480007A691A6200BF1C37BD465DF8047B70472D
:10449000000001400004014080B487B000AF7860A4
:1044A00039607B681B6A7B617B681B6A23F01002A2
:1044B0007B681A627B685B683B617B689B69FB6019
:1044C000FB6823F4E043FB60FB6823F44073FB606C
:1044D0003B681B681B02FA681343FB607B6923F08F
:1044E00020037B613B689B681B017A6913437B61F6
:1044F0007B68224A934203D07B68214A93420DD1C4
:104500007B6923F080037B613B68DB681B017A6970
:1045100013437B617B6923F040037B617B68174A0F
:10452000934203D07B68164A934213D13B6923F42C
:1045300080633B613B6923F400633B613B685B69DB
:104540009B003A6913433B613B689B699B003A6956
:1045500013433B617B683A695A607B68FA689A61E9
:104560003B685A687B689A637B687A691A6200BF05
:104570001C37BD465DF8047B704700BF000001405A
:104580000004014080B487B000AF786039607B6878
:104590001B6A7B617B681B6A23F480727B681A62EA
:1045A0007B685B683B617B68DB69FB60FB6823F0D1
:1045B0007003FB60FB6823F00303FB603B681B6830
:1045C000FA681343FB607B6923F400737B613B68EB
:1045D0009B681B027A6913437B617B68214A934283
:1045E00003D07B68204A93420DD17B6923F400639A
:1045F0007B613B68DB681B027A6913437B617B69E3
:1046000023F480637B617B68164A934203D07B6806
:10461000154A934213D13B6923F480533B613B69B4
:1046200023F400533B613B685B691B013A69134308
:104630003B613B689B691B013A6913433B617B68A3
:104640003A695A607B68FA68DA613B685A687B6845
:10465000DA637B687A691A6200BF1C37BD465DF871
:10466000047B7047000001400004014080B487B023
:1046700000AF786039607B681B6A3B617B681B6AAE
:1046800023F480527B681A627B685B687B617B687D
:10469000DB69FB60FB6823F4E043FB60FB6823F409
:1046A0004073FB603B681B681B02FA681343FB60A6
:1046B0003B6923F400533B613B689B681B033A69E9
:1046C00013433B617B68124A934203D07B68114AD3
:1046D000934209D17B6923F480437B613B685B692A
:1046E0009B017A6913437B617B687A695A607B68B6
:1046F000FA68DA613B685A687B681A647B683A69D1
:104700001A6200BF1C37BD465DF8047B704700BFCE
:10471000000001400004014080B487B000AFF860A1
:10472000B9607A60BB6803F01F03012202FA03F349
:104730007B61FB681A6A7B69DB431A40FB681A627B
:10474000FB681A6ABB6803F01F03796801FA03F378
:104750001A43FB681A6200BF1C37BD465DF8047B34
:104760007047000080B485B000AF786039607B6826
:1047700093F83C30012B01D102235AE07B680122DF
:1047800083F83C207B68022283F83D207B681B680D
:104790005B68FB607B681B689B68BB60FB6823F001
:1047A0007003FB603B681B68FA681343FB607B681F
:1047B0001B68FA685A607B681B68214A934222D0C2
:1047C0007B681B68B3F1804F1DD07B681B681D4A56
:1047D000934218D07B681B681B4A934213D07B68B6
:1047E0001B681A4A93420ED07B681B68184A934292
:1047F00009D07B681B68174A934204D07B681B680A
:10480000154A93420CD1BB6823F08003BB603B6820
:104810005B68BA681343BB607B681B68BA689A60C0
:104820007B68012283F83D207B68002283F83C20CE
:10483000002318461437BD465DF8047B704700BF5F
:10484000000001400004004000080040000C00404F
:1048500000040140004001400018004080B485B0D1
:1048600000AF786039600023FB607B6893F83C30D0
:10487000012B01D102233DE07B68012283F83C201B
:10488000FB6823F0FF023B68DB681343FB60FB68B7
:1048900023F440723B689B681343FB60FB6823F47E
:1048A00080623B685B681343FB60FB6823F4006233
:1048B0003B681B681343FB60FB6823F480523B6832
:1048C0001B691343FB60FB6823F400523B685B6980
:1048D0001343FB60FB6823F480423B68DB691343AE
:1048E000FB607B681B68FA685A647B68002283F867
:1048F0003C20002318461437BD465DF8047B704702
:1049000080B483B000AF786000BF0C37BD465DF85F
:10491000047B704780B483B000AF786000BF0C3771
:10492000BD465DF8047B704780B582B000AF78600B
:104930007B68002B01D1012342E07B6893F8413072
:10494000DBB2002B06D17B68002283F84020786818
:10495000FCF7BAFD7B68242283F841207B681B6842
:10496000DA687B681B6822F40052DA60786800F02D
:10497000A1FA7B681B681A697B681B6822F4904265
:104980001A617B681B685A697B681B6822F02A02DF
:104990005A617B681B68DA687B681B6842F40052C6
:1049A000DA607B6800225A647B68202283F8412009
:1049B0007B68202283F842207B6800225A63002310
:1049C00018460837BD4680BD80B584B000AFF8609A
:1049D000B9601346FB80FB6893F84230DBB2202BB2
:1049E00012D1BB68002B02D0FB88002B01D1012320
:1049F0000BE0FB6800221A63FB881A46B968F86866
:104A000000F026F9034600E0022318461037BD46A1
:104A100080BD80B483B000AF786000BF0C37BD4666
:104A20005DF8047B704780B483B000AF786000BF4E
:104A30000C37BD465DF8047B704780B483B000AF8F
:104A400078600B467B8000BF0C37BD465DF8047B69
:104A5000704780B59CB000AF78607B689B6BFB664D
:104A60007B681B681B6803F48073002B72D1FB6E9C
:104A70000022DA85FB6E1B680C33FB64FB6C53E889
:104A8000003FBB64BB6C23F48073BB66FB6E1B688A
:104A90000C33BA6EBA657B65796DBA6D41E8002357
:104AA0003B653B6D002BE5D1FB6E1B681433BB638C
:104AB000BB6B53E8003F7B637B6B23F001037B669A
:104AC000FB6E1B6814337A6E7A643B64396C7A6CC3
:104AD00041E80023FB63FB6B002BE5D1FB6E1B68F9
:104AE00014337B627B6A53E8003F3B623B6A23F0EE
:104AF00040033B66FB6E1B6814333A6E3A63FB62FD
:104B0000F96A3A6B41E80023BB62BB6A002BE5D12E
:104B1000FB6E202283F84220FB6E1B6B012B19D108
:104B2000FB6E1B680C333B613B6953E8003FFB6045
:104B3000FB6823F01003FB65FB6E1B680C33FA6DFA
:104B4000FA61BB61B969FA6941E800237B617B695D
:104B5000002BE5D1FB6E00225A63FB6E1B6B012B11
:104B600006D1FB6E9B8D1946F86EFFF766FF02E0DB
:104B7000F86EFCF74DF900BF7037BD4680BD80B5BB
:104B800084B000AF78607B689B6BFB60FB680122A0
:104B90005A63FB681B6B012B08D1FB689B8D5B087C
:104BA0009BB21946F868FFF748FF02E0F868FFF784
:104BB00030FF00BF1037BD4680BD80B584B000AF68
:104BC00078600023FB607B689B6BBB60BB681B68E5
:104BD0005B6903F08003802B0CBF01230023DBB251
:104BE000FB60BB6893F84130DBB2212B08D1FB6836
:104BF000002B05D0BB680022DA84B86800F0CEF83C
:104C0000BB681B685B6903F04003402B0CBF0123AA
:104C10000023DBB2FB60BB6893F84230DBB2222B8F
:104C200008D1FB68002B05D0BB680022DA85B86884
:104C300000F0DCF8BB685B6C43F01002BB685A64A0
:104C4000B868FFF7F0FE00BF1037BD4680BD00001A
:104C500080B598B000AFF860B9601346FB80BA68C1
:104C6000FB689A62FB68FA889A85FB6800225A649E
:104C7000FB68222283F84220FB68DB6B444ADA633C
:104C8000FB68DB6B434A1A64FB68DB6B424ADA64FD
:104C9000FB68DB6B00221A6507F10803FB65FB6804
:104CA000D86BFB681B6804331946FB6D1A68FB88D8
:104CB000FDF7EEFA0346002B08D0FB6810225A6479
:104CC000FB68202283F8422001235DE000233B6142
:104CD000FB681B681B683B61FB681B685B683B618A
:104CE0003B69FB681B69002B19D0FB681B680C3300
:104CF0003B643B6C53E8003FFB63FB6B43F4807306
:104D0000BB65FB681B680C33BA6DFA64BB64B96C95
:104D1000FA6C41E800237B647B6C002BE5D1FB68D7
:104D20001B681433FB62FB6A53E8003FBB62BB6A3B
:104D300043F001037B65FB681B6814337A6DBA632B
:104D40007B63796BBA6B41E800233B633B6B002BC1
:104D5000E5D1FB681B681433BB61BB6953E8003FB6
:104D60007B617B6943F040033B65FB681B68143340
:104D70003A6D7A623B62396A7A6A41E80023FB61E4
:104D8000FB69002BE5D1002318466037BD4680BD86
:104D9000534A00087F4B0008BB4B000880B489B021
:104DA00000AF78607B681B680C33FB60FB6853E8DE
:104DB000003FBB60BB6823F0C003FB617B681B68DE
:104DC0000C33FA69BA617B617969BA6941E80023F9
:104DD0003B613B69002BE5D17B68202283F84120B1
:104DE00000BF2437BD465DF8047B704780B495B0A2
:104DF00000AF78607B681B680C337B637B6B53E888
:104E0000003F3B633B6B23F49073FB647B681B6840
:104E10000C33FA6C3A64FB63F96B3A6C41E800239B
:104E2000BB63BB6B002BE5D17B681B6814333B6213
:104E30003B6A53E8003FFB61FB6923F00103BB645D
:104E40007B681B681433BA6CFA62BB62B96AFA6A8F
:104E500041E800237B627B6A002BE5D17B681B6BFA
:104E6000012B19D17B681B680C33FB60FB6853E88E
:104E7000003FBB60BB6823F010037B647B681B684A
:104E80000C337A6CBA617B617969BA6941E80023B5
:104E90003B613B69002BE5D17B68202283F84220EF
:104EA0007B6800221A6300BF5437BD465DF8047B5F
:104EB000704700002DE9B04FC0B000AFC7F8F40054
:104EC000D7F8F4301B681B6923F44050D7F8F4304E
:104ED000D968D7F8F4301A6840EA01031361D7F8AB
:104EE000F4309A68D7F8F4301B691A43D7F8F430D5
:104EF0005B691A43D7F8F430DB691343C7F8F8301D
:104F0000D7F8F4301B68DB6823F4164121F00C015C
:104F1000D7F8F4301A68D7F8F8300B43D360D7F8D5
:104F2000F4301B685B6923F44070D7F8F43099695A
:104F3000D7F8F4301A6840EA01035361D7F8F43027
:104F40001A688F4B9A4205D0D7F8F4301A688D4B07
:104F50009A4204D1FEF7F6FBC7F8FC0003E0FEF727
:104F6000DDFBC7F8FC00D7F8F430DB69B3F5004F80
:104F700040F00C81D7F8FC300022C7F8E830C7F8C1
:104F8000EC20D7E93A4522462B469118B9655B419A
:104F9000FB65D7E91623214612EB0108294643EBAE
:104FA00001094FF000024FF000034FEAC90343EA42
:104FB00058734FEAC80290469946234618EB0303FC
:104FC000C7F8E0302B4649EB0303C7F8E430D7F8C5
:104FD000F4305B680022C7F8D830C7F8DC20D7E986
:104FE00036120B46DB183B65134642EB03037B6529
:104FF000D7E91423D7E93801FBF742F902460B46FB
:10500000614BA3FB02235B091C01D7F8FC30002293
:10501000C7F8D030C7F8D420D7E9348942464B4688
:105020009118B9645B41FB64D7E91223414612EB46
:10503000010A494643EB010B4FF000024FF0000319
:105040004FEACB0343EA5A734FEACA0292469B46A1
:1050500043461AEB0303C7F8C8304B464BEB030338
:10506000C7F8CC30D7F8F4305B680022C7F8C030FE
:10507000C7F8C420D7E930120B46DB183B6413464F
:1050800042EB03037B64D7E91023D7E93201FBF736
:10509000F7F802460B4611463B4BA3FB01235B0985
:1050A000642202FB03F3CB1ADB0003F13202364B1E
:1050B000A3FB02235B095B0003F4F8731C44D7F8DD
:1050C000FC300022C7F8B830C7F8BC20D7E92E89D9
:1050D00042464B469118B9635B41FB63D7E90E2307
:1050E00041465118396349464B417B634FF00002FA
:1050F0004FF00003D7E90CAB5946CB00514643EAC9
:1051000051735146CA0010461946034642469B1841
:10511000C7F8B0304B460A4642EB0303C7F8B43039
:10512000D7F8F4305B680022C7F8A830C7F8AC2085
:10513000D7E92A120B46DB18BB62134642EB030386
:10514000FB62D7E90A23D7E92C01FBF799F802465D
:105150000B460D4BA3FB02135B09642101FB03F318
:10516000D31ADB003233084AA2FB03235B0903F0A6
:105170000702D7F8F4301B6822449A6006E100BFAA
:1051800000100140001401401F85EB51D7F8FC309E
:105190000022C7F8A030C7F8A420D7E928894246E2
:1051A0004B46911839625B417B62D7E9082341463F
:1051B0005418494643EB01054FF000024FF000033D
:1051C000EB0043EA5473E20014461D464346E318DD
:1051D000C7F898304B4645EB0303C7F89C30D7F827
:1051E000F4305B680022C7F89030C7F894204FF085
:1051F00000024FF00003D7E9244529468B002146E1
:1052000043EA917321468A00D7E92601FBF738F873
:1052100002460B46604BA3FB02235B091C01D7F837
:10522000FC300022C7F88830C7F88C20D7E92289E3
:1052300042464B469118B9615B41FB61D7E90623B1
:1052400041465118396149464B417B614FF000029C
:105250004FF00003D7E904AB5946CB00514643EA6F
:1052600051735146CA0010461946034642469B18E0
:10527000C7F880304B460A4642EB0303C7F8843038
:10528000D7F8F4305B680022BB67FA674FF0000282
:105290004FF00003D7E91E8949468B00414643EA97
:1052A000917341468A00D7E92001FAF7E9FF0246E7
:1052B0000B461146384BA3FB01235B09642202FB1A
:1052C00003F3CB1A1B013233334AA2FB03235B09DE
:1052D00003F0F0031C44D7F8FC3000223B677A67E8
:1052E000D7E91C8942464B469118B9605B41FB6087
:1052F000D7E9022341465118396049464B417B604A
:105300004FF000024FF00003D7E900AB5946CB0045
:10531000514643EA51735146CA00104619460346A6
:1053200042469B18BB664B460A4642EB0303FB66AC
:10533000D7F8F4305B6800223B667A664FF00002D3
:105340004FF00003D7E9188949468B00414643EAEC
:10535000917341468A00D7E91A01FAF791FF024694
:105360000B460D4BA3FB02135B09642101FB03F306
:10537000D31A1B013233084AA2FB03235B0903F053
:105380000F02D7F8F4301B6822449A6000BF07F57B
:105390008077BD46BDE8B08F1F85EB5180B483B0E8
:1053A00000AF03463960FB7197F90730002B0ADB29
:1053B0003B68DAB20C4997F907301201D2B20B44BC
:1053C00083F800230AE03B68DAB20849FB7903F06E
:1053D0000F03043B1201D2B20B441A7600BF0C3704
:1053E000BD465DF8047B704700E100E000ED00E0A1
:1053F00080B500AF054B1B6801F054FE0346012B3E
:1054000001D002F049FC00BF80BD00BF10E000E009
:1054100080B500AF00216FF00400FFF7BFFF00BFB1
:1054200080BD000080B483B000AFEFF305833B6024
:105430003B68002B03D06FF005037B600CE00A4B48
:105440001B68002B05D1084B01221A6000237B60EA
:1054500002E04FF0FF337B607B6818460C37BD4697
:105460005DF8047B704700BFE003002080B582B088
:1054700000AFEFF305833B603B68002B03D06FF078
:1054800005037B6010E00B4B1B68012B09D1FFF774
:10549000BFFF084B02221A6001F0A0F900237B60D5
:1054A00002E04FF0FF337B607B6818460837BD464B
:1054B00080BD00BFE003002080B58EB004AFF8606F
:1054C000B9607A6000233B61EFF305837B617B6900
:1054D000002B7ED1FB68002B7BD080233B621823FE
:1054E000FB6100237B624FF0FF33BB617B68002BC5
:1054F00045D07B681B68002B02D07B681B687B62F1
:105500007B689B69002B02D07B689B69FB61FB6910
:10551000002B08D0FB69382B05D87B685B6803F04B
:105520000103002B01D0002354E07B685B69002B52
:1055300003D07B685B699B083B627B689B68002BA0
:105540000ED07B68DB68A72B0AD97B681B69002B10
:1055500006D07B685B69002B02D00123BB6110E0A1
:105560007B689B68002B0CD17B68DB68002B08D123
:105570007B681B69002B04D10023BB6101E0002381
:10558000BB61BB69012B10D17B681B697A6892688B
:1055900002920193FB690093BB683A6A796AF868E2
:1055A00000F028FF03463B6113E0BB69002B10D1DC
:1055B0003B6A9AB207F110030193FB690093BB6841
:1055C000796AF86800F076FF0346012B01D00023CA
:1055D0003B613B6918462837BD4680BD80B584B025
:1055E00000AF7860EFF30583BB60BB68002B03D08E
:1055F0006FF00503FB6007E00023FB607B68002B76
:1056000002D0786801F0B4F8FB6818461037BD4640
:1056100080BD80B588B000AF78600023FB61EFF3F8
:105620000583BB60BB68002B74D17B68002B03D063
:105630007B685B68BB6101E00023BB61BB6903F071
:105640000103002B02D001237B6101E000237B6179
:10565000BB6903F00803002B5CD14FF0FF333B61C3
:105660007B68002B15D07B689B68002B06D07B687D
:10567000DB684F2B02D901233B610CE07B689B6800
:10568000002B08D17B68DB68002B04D100233B6131
:1056900001E000233B613B69012B12D17B69002BA8
:1056A00007D07B689B681946042000F098FAF861DF
:1056B00016E07B689B681946012000F090FAF861BB
:1056C0000EE03B69002B0BD17B69002B04D004203A
:1056D00000F06DFAF86103E0012000F068FAF8616B
:1056E000FB69002B0CD07B68002B03D07B681B6808
:1056F000FB6001E00023FB60F968F86900F01CFE24
:10570000FB69002B06D07B69002B03D0FB6943F0BB
:105710000103FB61FB6918462037BD4680BD0000D0
:1057200080B485B000AFF860B9607A60FB68074A62
:105730001A60BB68064A1A607B6880221A6000BF44
:105740001437BD465DF8047B704700BFE4030020BA
:105750008C04002080B485B000AFF860B9607A6036
:10576000FB68074A1A60BB68064A1A607B684FF4F8
:1057700080721A6000BF1437BD465DF8047B704725
:105780008C0600203407002080B483B000AF78601E
:105790007B6803F108027B685A607B684FF0FF3238
:1057A0009A607B6803F108027B68DA607B6803F12A
:1057B00008027B681A617B6800221A6000BF0C3700
:1057C000BD465DF8047B704780B483B000AF78605D
:1057D0007B6800221A6100BF0C37BD465DF8047B70
:1057E000704780B485B000AF786039607B685B68D3
:1057F000FB603B68FA685A60FB689A683B689A608D
:10580000FB689B683A685A60FB683A689A603B6834
:105810007A681A617B681B685A1C7B681A6000BF33
:105820001437BD465DF8047B704780B485B000AF87
:10583000786039603B681B68BB60BB68B3F1FF3FB1
:1058400003D17B681B69FB600CE07B680833FB605D
:1058500002E0FB685B68FB60FB685B681B68BA681A
:105860009A42F6D2FB685A683B685A603B685B68AC
:105870003A689A603B68FA689A60FB683A685A60CE
:105880003B687A681A617B681B685A1C7B681A60DF
:1058900000BF1437BD465DF8047B704780B485B007
:1058A00000AF78607B681B69FB607B685B687A6827
:1058B00092689A607B689B687A6852685A60FB6855
:1058C0005B687A689A4203D17B689A68FB685A6081
:1058D0007B6800221A61FB681B685A1EFB681A600D
:1058E000FB681B6818461437BD465DF8047B70479B
:1058F00080B584B000AF786039607B68FB60FB687E
:10590000002B0BD14FF0500383F31188BFF36F8F3F
:10591000BFF34F8FBB6000BF00BFFDE702F02CF963
:10592000FB681A68FB68DB6BF968096C01FB03F321
:105930001A44FB689A60FB6800229A63FB681A6845
:10594000FB685A60FB681A68FB68DB6B013BF9680F
:10595000096C01FB03F31A44FB68DA60FB68FF2261
:1059600083F84420FB68FF2283F845203B68002B26
:1059700014D1FB681B69002B1AD0FB681033184642
:1059800001F0CAF90346002B12D00D4B4FF08052A4
:105990001A60BFF34F8FBFF36F8F09E0FB681033BE
:1059A0001846FFF7F1FEFB6824331846FFF7ECFEBC
:1059B00002F014F9012318461037BD4680BD00BF20
:1059C00004ED00E080B58EB002AFF860B9607A6097
:1059D0003B60FB68002B0BD14FF0500383F3118821
:1059E000BFF36F8FBFF34F8FBB6200BF00BFFDE7F8
:1059F0003B68002B0BD14FF0500383F31188BFF3AA
:105A00006F8FBFF34F8F7B6200BF00BFFDE77B68E6
:105A1000002B02D0BB68002B01D0012300E0002343
:105A2000002B0BD14FF0500383F31188BFF36F8F1E
:105A3000BFF34F8F3B6200BF00BFFDE77B68002BC9
:105A400002D1BB68002B01D1012300E00023002B11
:105A50000BD14FF0500383F31188BFF36F8FBFF367
:105A60004F8FFB6100BF00BFFDE750237B617B6967
:105A7000502B0BD04FF0500383F31188BFF36F8F7F
:105A8000BFF34F8FBB6100BF00BFFDE77B693B6881
:105A9000FB62FB6A002B0DD0FB6A012283F84620D3
:105AA00097F83820FB6A009313467A68B968F8685B
:105AB00000F040F8FB6A18463037BD4680BD80B51F
:105AC0008AB002AFF860B9601346FB71FB68002B27
:105AD0000BD14FF0500383F31188BFF36F8FBFF3E7
